{"abi":[{"type":"constructor","inputs":[{"name":"_priceOracle","type":"address","internalType":"address"},{"name":"_settlementToken","type":"address","internalType":"address"}],"stateMutability":"nonpayable"},{"type":"function","name":"FUNDING_INTERVAL","inputs":[],"outputs":[{"name":"","type":"uint256","internalType":"uint256"}],"stateMutability":"view"},{"type":"function","name":"FUNDING_PERIODS","inputs":[],"outputs":[{"name":"","type":"uint256","internalType":"uint256"}],"stateMutability":"view"},{"type":"function","name":"MAX_LEVERAGE","inputs":[],"outputs":[{"name":"","type":"uint256","internalType":"uint256"}],"stateMutability":"view"},{"type":"function","name":"MIN_LEVERAGE","inputs":[],"outputs":[{"name":"","type":"uint256","internalType":"uint256"}],"stateMutability":"view"},{"type":"function","name":"MIN_MARGIN","inputs":[],"outputs":[{"name":"","type":"uint256","internalType":"uint256"}],"stateMutability":"view"},{"type":"function","name":"PRECISION","inputs":[],"outputs":[{"name":"","type":"uint256","internalType":"uint256"}],"stateMutability":"view"},{"type":"function","name":"addMargin","inputs":[{"name":"user","type":"address","internalType":"address"},{"name":"amount","type":"uint256","internalType":"uint256"},{"name":"direction","type":"uint8","internalType":"enum Parimutuel.Direction"}],"outputs":[],"stateMutability":"nonpayable"},{"type":"function","name":"balance","inputs":[{"name":"","type":"address","internalType":"address"}],"outputs":[{"name":"","type":"uint256","internalType":"uint256"}],"stateMutability":"view"},{"type":"function","name":"closePosition","inputs":[{"name":"direction","type":"uint8","internalType":"enum Parimutuel.Direction"}],"outputs":[],"stateMutability":"nonpayable"},{"type":"function","name":"currentPrice","inputs":[],"outputs":[{"name":"","type":"uint256","internalType":"uint256"}],"stateMutability":"view"},{"type":"function","name":"deposit","inputs":[{"name":"amount","type":"uint256","internalType":"uint256"}],"outputs":[],"stateMutability":"nonpayable"},{"type":"function","name":"fundingRate","inputs":[{"name":"user","type":"address","internalType":"address"},{"name":"direction","type":"uint8","internalType":"enum Parimutuel.Direction"}],"outputs":[],"stateMutability":"nonpayable"},{"type":"function","name":"liquidatePosition","inputs":[{"name":"user","type":"address","internalType":"address"},{"name":"direction","type":"uint8","internalType":"enum Parimutuel.Direction"}],"outputs":[],"stateMutability":"nonpayable"},{"type":"function","name":"longProfits","inputs":[],"outputs":[{"name":"","type":"uint256","internalType":"uint256"}],"stateMutability":"view"},{"type":"function","name":"longShares","inputs":[],"outputs":[{"name":"","type":"uint256","internalType":"uint256"}],"stateMutability":"view"},{"type":"function","name":"longTokens","inputs":[],"outputs":[{"name":"","type":"uint256","internalType":"uint256"}],"stateMutability":"view"},{"type":"function","name":"longs","inputs":[{"name":"","type":"address","internalType":"address"}],"outputs":[{"name":"active","type":"bool","internalType":"bool"},{"name":"margin","type":"uint256","internalType":"uint256"},{"name":"leverage","type":"uint256","internalType":"uint256"},{"name":"tokens","type":"uint256","internalType":"uint256"},{"name":"entry","type":"uint256","internalType":"uint256"},{"name":"liquidation","type":"uint256","internalType":"uint256"},{"name":"profit","type":"uint256","internalType":"uint256"},{"name":"shares","type":"uint256","internalType":"uint256"},{"name":"funding","type":"uint256","internalType":"uint256"}],"stateMutability":"view"},{"type":"function","name":"openPosition","inputs":[{"name":"margin","type":"uint256","internalType":"uint256"},{"name":"leverage","type":"uint256","internalType":"uint256"},{"name":"direction","type":"uint8","internalType":"enum Parimutuel.Direction"}],"outputs":[],"stateMutability":"nonpayable"},{"type":"function","name":"shortProfits","inputs":[],"outputs":[{"name":"","type":"uint256","internalType":"uint256"}],"stateMutability":"view"},{"type":"function","name":"shortShares","inputs":[],"outputs":[{"name":"","type":"uint256","internalType":"uint256"}],"stateMutability":"view"},{"type":"function","name":"shortTokens","inputs":[],"outputs":[{"name":"","type":"uint256","internalType":"uint256"}],"stateMutability":"view"},{"type":"function","name":"shorts","inputs":[{"name":"","type":"address","internalType":"address"}],"outputs":[{"name":"active","type":"bool","internalType":"bool"},{"name":"margin","type":"uint256","internalType":"uint256"},{"name":"leverage","type":"uint256","internalType":"uint256"},{"name":"tokens","type":"uint256","internalType":"uint256"},{"name":"entry","type":"uint256","internalType":"uint256"},{"name":"liquidation","type":"uint256","internalType":"uint256"},{"name":"profit","type":"uint256","internalType":"uint256"},{"name":"shares","type":"uint256","internalType":"uint256"},{"name":"funding","type":"uint256","internalType":"uint256"}],"stateMutability":"view"},{"type":"function","name":"withdraw","inputs":[{"name":"amount","type":"uint256","internalType":"uint256"}],"outputs":[],"stateMutability":"nonpayable"},{"type":"event","name":"Deposit","inputs":[{"name":"user","type":"address","indexed":true,"internalType":"address"},{"name":"amount","type":"uint256","indexed":false,"internalType":"uint256"}],"anonymous":false},{"type":"event","name":"FundingPaid","inputs":[{"name":"position","type":"tuple","indexed":true,"internalType":"struct Parimutuel.Position","components":[{"name":"active","type":"bool","internalType":"bool"},{"name":"margin","type":"uint256","internalType":"uint256"},{"name":"leverage","type":"uint256","internalType":"uint256"},{"name":"tokens","type":"uint256","internalType":"uint256"},{"name":"entry","type":"uint256","internalType":"uint256"},{"name":"liquidation","type":"uint256","internalType":"uint256"},{"name":"profit","type":"uint256","internalType":"uint256"},{"name":"shares","type":"uint256","internalType":"uint256"},{"name":"funding","type":"uint256","internalType":"uint256"}]},{"name":"direction","type":"uint8","indexed":false,"internalType":"enum Parimutuel.Direction"}],"anonymous":false},{"type":"event","name":"MarginAdded","inputs":[{"name":"position","type":"tuple","indexed":true,"internalType":"struct Parimutuel.Position","components":[{"name":"active","type":"bool","internalType":"bool"},{"name":"margin","type":"uint256","internalType":"uint256"},{"name":"leverage","type":"uint256","internalType":"uint256"},{"name":"tokens","type":"uint256","internalType":"uint256"},{"name":"entry","type":"uint256","internalType":"uint256"},{"name":"liquidation","type":"uint256","internalType":"uint256"},{"name":"profit","type":"uint256","internalType":"uint256"},{"name":"shares","type":"uint256","internalType":"uint256"},{"name":"funding","type":"uint256","internalType":"uint256"}]},{"name":"direction","type":"uint8","indexed":false,"internalType":"enum Parimutuel.Direction"}],"anonymous":false},{"type":"event","name":"OpenPosition","inputs":[{"name":"position","type":"tuple","indexed":true,"internalType":"struct Parimutuel.Position","components":[{"name":"active","type":"bool","internalType":"bool"},{"name":"margin","type":"uint256","internalType":"uint256"},{"name":"leverage","type":"uint256","internalType":"uint256"},{"name":"tokens","type":"uint256","internalType":"uint256"},{"name":"entry","type":"uint256","internalType":"uint256"},{"name":"liquidation","type":"uint256","internalType":"uint256"},{"name":"profit","type":"uint256","internalType":"uint256"},{"name":"shares","type":"uint256","internalType":"uint256"},{"name":"funding","type":"uint256","internalType":"uint256"}]},{"name":"direction","type":"uint8","indexed":false,"internalType":"enum Parimutuel.Direction"}],"anonymous":false},{"type":"event","name":"PositionClosedAtLoss","inputs":[{"name":"position","type":"tuple","indexed":true,"internalType":"struct Parimutuel.Position","components":[{"name":"active","type":"bool","internalType":"bool"},{"name":"margin","type":"uint256","internalType":"uint256"},{"name":"leverage","type":"uint256","internalType":"uint256"},{"name":"tokens","type":"uint256","internalType":"uint256"},{"name":"entry","type":"uint256","internalType":"uint256"},{"name":"liquidation","type":"uint256","internalType":"uint256"},{"name":"profit","type":"uint256","internalType":"uint256"},{"name":"shares","type":"uint256","internalType":"uint256"},{"name":"funding","type":"uint256","internalType":"uint256"}]},{"name":"direction","type":"uint8","indexed":false,"internalType":"enum Parimutuel.Direction"}],"anonymous":false},{"type":"event","name":"PositionClosedAtProfit","inputs":[{"name":"position","type":"tuple","indexed":true,"internalType":"struct Parimutuel.Position","components":[{"name":"active","type":"bool","internalType":"bool"},{"name":"margin","type":"uint256","internalType":"uint256"},{"name":"leverage","type":"uint256","internalType":"uint256"},{"name":"tokens","type":"uint256","internalType":"uint256"},{"name":"entry","type":"uint256","internalType":"uint256"},{"name":"liquidation","type":"uint256","internalType":"uint256"},{"name":"profit","type":"uint256","internalType":"uint256"},{"name":"shares","type":"uint256","internalType":"uint256"},{"name":"funding","type":"uint256","internalType":"uint256"}]},{"name":"direction","type":"uint8","indexed":false,"internalType":"enum Parimutuel.Direction"}],"anonymous":false},{"type":"event","name":"PositionLiquidated","inputs":[{"name":"position","type":"tuple","indexed":true,"internalType":"struct Parimutuel.Position","components":[{"name":"active","type":"bool","internalType":"bool"},{"name":"margin","type":"uint256","internalType":"uint256"},{"name":"leverage","type":"uint256","internalType":"uint256"},{"name":"tokens","type":"uint256","internalType":"uint256"},{"name":"entry","type":"uint256","internalType":"uint256"},{"name":"liquidation","type":"uint256","internalType":"uint256"},{"name":"profit","type":"uint256","internalType":"uint256"},{"name":"shares","type":"uint256","internalType":"uint256"},{"name":"funding","type":"uint256","internalType":"uint256"}]},{"name":"direction","type":"uint8","indexed":false,"internalType":"enum Parimutuel.Direction"}],"anonymous":false},{"type":"event","name":"Withdraw","inputs":[{"name":"user","type":"address","indexed":true,"internalType":"address"},{"name":"amount","type":"uint256","indexed":false,"internalType":"uint256"}],"anonymous":false},{"type":"error","name":"AmountMustBeGreaterThanZero","inputs":[]},{"type":"error","name":"FundingRateNotDue","inputs":[]},{"type":"error","name":"InsufficientBalance","inputs":[]},{"type":"error","name":"InsufficientMargin","inputs":[]},{"type":"error","name":"InvalidLeverage","inputs":[]},{"type":"error","name":"NoActivePosition","inputs":[{"name":"direction","type":"uint8","internalType":"enum Parimutuel.Direction"}]},{"type":"error","name":"NotCloseableAtLoss","inputs":[]},{"type":"error","name":"NotCloseableAtProfit","inputs":[]},{"type":"error","name":"NotLiquidatable","inputs":[]},{"type":"error","name":"TransferFailed","inputs":[]}],"bytecode":{"object":"0x60806040523480156200001157600080fd5b50604051620020de380380620020de833981016040819052620000349162000093565b600180546001600160a01b039384166001600160a01b0319918216179091556002805492909316918116919091179091556000805490911633179055620000cb565b80516001600160a01b03811681146200008e57600080fd5b919050565b60008060408385031215620000a757600080fd5b620000b28362000076565b9150620000c26020840162000076565b90509250929050565b61200380620000db6000396000f3fe608060405234801561001057600080fd5b506004361061014d5760003560e01c8063891de083116100c3578063b6b55f251161007c578063b6b55f2514610319578063c731e2ca1461032c578063da5b79801461033f578063e3d670d714610352578063eee8a1681461030a578063f3d490f41461037257600080fd5b8063891de083146102815780639b45ec97146102de5780639d1b464a146102e6578063a10e58aa146102ee578063a6b527fe146102f7578063aaf5eb681461030a57600080fd5b80634e088863116101155780634e0888631461019d57806355efb287146101a65780635e0c7f6f146101af5780635fbf81cc146101c25780636e4c3df3146101d55780637b05811e146101de57600080fd5b80630f416ad4146101525780632e1a7d4d1461016e57806334c1557d14610183578063359002f81461018b578063374c8b4014610194575b600080fd5b61015b60035481565b6040519081526020015b60405180910390f35b61018161017c366004611d0f565b61037b565b005b61015b600181565b61015b6105b481565b61015b60065481565b61015b60055481565b61015b61546081565b6101816101bd366004611d4e565b6104c2565b6101816101d0366004611d81565b6106dd565b61015b60045481565b61023b6101ec366004611db6565b600a6020526000908152604090208054600182015460028301546003840154600485015460058601546006870154600788015460089098015460ff909716979596949593949293919290919089565b604080519915158a5260208a0198909852968801959095526060870193909352608086019190915260a085015260c084015260e083015261010082015261012001610165565b61023b61028f366004611db6565b600b6020526000908152604090208054600182015460028301546003840154600485015460058601546006870154600788015460089098015460ff909716979596949593949293919290919089565b61015b606481565b61015b610afb565b61015b60075481565b610181610305366004611dd8565b610b8d565b61015b670de0b6b3a764000081565b610181610327366004611d0f565b610cc7565b61018161033a366004611d4e565b610de1565b61018161034d366004611df3565b6112cf565b61015b610360366004611db6565b60096020526000908152604090205481565b61015b60085481565b3360009081526009602052604090205481908111156103ad57604051631e9acf1760e31b815260040160405180910390fd5b816000036103ce57604051635e85ae7360e01b815260040160405180910390fd5b33600090815260096020526040812080548492906103ed908490611e3c565b909155505060025460405163a9059cbb60e01b8152336004820152602481018490526000916001600160a01b03169063a9059cbb906044016020604051808303816000875af1158015610444573d6000803e3d6000fd5b505050506040513d601f19601f820116820180604052508101906104689190611e55565b905080610488576040516312171d8360e31b815260040160405180910390fd5b60405183815233907f884edad9ce6fa2440d8a54cc123490eb96d2768479d49ff9c7366125a94243649060200160405180910390a2505050565b6000808260018111156104d7576104d7611e77565b146104f9576001600160a01b0383166000908152600b60205260409020610512565b6001600160a01b0383166000908152600a602052604090205b805490915060ff16610542578160405163e7893f4b60e01b81526004016105399190611e8d565b60405180910390fd5b600061054c610afb565b9050600083600181111561056257610562611e77565b1480156105725750816005015481105b8061059c5750600183600181111561058c5761058c611e77565b14801561059c5750816005015481115b156105ba57604051636ef5bcdd60e11b815260040160405180910390fd5b60008360018111156105ce576105ce611e77565b0361062d578160030154600360008282546105e99190611e3c565b925050819055508160070154600760008282546106069190611e3c565b9091555050600182015460068054600090610622908490611eb5565b909155506106819050565b8160030154600460008282546106439190611e3c565b909155505060078201546008805460009061065f908490611e3c565b909155505060018201546005805460009061067b908490611eb5565b90915550505b8160405161068f9190611ec8565b60405180910390207f20965486510529d8d33d10365a182b41a308677a602dff52a7926c1dda796a61846040516106c69190611e8d565b60405180910390a26106d782611536565b50505050565b33600090815260096020526040902054839081111561070f57604051631e9acf1760e31b815260040160405180910390fd5b670de0b6b3a7640000841015610738576040516341c092a960e01b815260040160405180910390fd5b60018310806107475750606483115b1561076557604051633fe89cb960e11b815260040160405180910390fd5b3360009081526009602052604081208054869290610784908490611e3c565b90915550600090506107968486611f2a565b905060006107a2610afb565b90506000808560018111156107b9576107b9611e77565b146107e35760646107ca8782611e3c565b6107d49084611f2a565b6107de9190611f41565b610803565b60646107ef8782611eb5565b6107f99084611f2a565b6108039190611f41565b905060008086600181111561081a5761081a611e77565b1461084457606461082b8882611eb5565b6108359085611f2a565b61083f9190611f41565b610864565b60646108508882611e3c565b61085a9085611f2a565b6108649190611f41565b905060008087600181111561087b5761087b611e77565b146108885760085461088c565b6007545b6108c960008960018111156108a3576108a3611e77565b146108bb57866004546108b69190611eb5565b611579565b866003546108b69190611eb5565b6108d39190611e3c565b90506000808860018111156108ea576108ea611e77565b1461090257856004546108fd9190611eb5565b610910565b856003546109109190611eb5565b9050600081610927670de0b6b3a764000089611f2a565b6109319190611f41565b90506000670de0b6b3a76400006109488d84611f2a565b6109529190611f41565b905061095e818d611e3c565b9b5060008a600181111561097457610974611e77565b036109c857806005600082825461098b9190611eb5565b9250508190555087600360008282546109a49190611eb5565b9250508190555083600760008282546109bd9190611eb5565b90915550610a129050565b80600660008282546109da9190611eb5565b9250508190555087600460008282546109f39190611eb5565b925050819055508360086000828254610a0c9190611eb5565b90915550505b6000808b6001811115610a2757610a27611e77565b14610a4057336000908152600b60205260409020610a50565b336000908152600a602052604090205b805460ff19166001908117825581018e9055600281018d9055600381018a9055600481018990556005810188905560068101879055600781018690559050610a9a61546042611eb5565b6008820155604051610aad908290611ec8565b60405180910390207f8046b77d9c9d0db20a426631639fdcab9dd37fbca9c3146e20e25ab11103dae28c604051610ae49190611e8d565b60405180910390a250505050505050505050505050565b600080600160009054906101000a90046001600160a01b03166001600160a01b031663feaf968c6040518163ffffffff1660e01b815260040160a060405180830381865afa158015610b51573d6000803e3d6000fd5b505050506040513d601f19601f82011682018060405250810190610b759190611f7d565b5050509150506000811215610b88575060005b919050565b600080826001811115610ba257610ba2611e77565b14610bbb57336000908152600b60205260409020610bcb565b336000908152600a602052604090205b805490915060ff16610bf2578160405163e7893f4b60e01b81526004016105399190611e8d565b6000610bfc610afb565b90506000836001811115610c1257610c12611e77565b148015610c23575081600501548110155b80610c4e57506001836001811115610c3d57610c3d611e77565b148015610c4e575081600501548111155b15610c6257610c5d33846104c2565b505050565b6000836001811115610c7657610c76611e77565b148015610c865750816004015481115b80610cb057506001836001811115610ca057610ca0611e77565b148015610cb05750816004015481105b15610cbe57610c5d836115e8565b610c5d836118ff565b80600003610ce857604051635e85ae7360e01b815260040160405180910390fd5b6002546040516323b872dd60e01b8152336004820152306024820152604481018390526000916001600160a01b0316906323b872dd906064016020604051808303816000875af1158015610d40573d6000803e3d6000fd5b505050506040513d601f19601f82011682018060405250810190610d649190611e55565b905080610d84576040516312171d8360e31b815260040160405180910390fd5b3360009081526009602052604081208054849290610da3908490611eb5565b909155505060405182815233907fe1fffcc4923d04b559f4d29a8bfc6cda04eb5b0d3c460751c2402c5c5cc9109c9060200160405180910390a25050565b600080826001811115610df657610df6611e77565b14610e18576001600160a01b0383166000908152600b60205260409020610e31565b6001600160a01b0383166000908152600a602052604090205b805490915060ff16610e58578160405163e7893f4b60e01b81526004016105399190611e8d565b4281600801541115610e7d57604051632df6a3e960e11b815260040160405180910390fd5b6000826001811115610e9157610e91611e77565b148015610ea2575060045460035411155b80610ecd57506001826001811115610ebc57610ebc611e77565b148015610ecd575060035460045411155b15610ef257615460816008016000828254610ee89190611eb5565b9091555050505050565b6000600454600354610f049190611eb5565b90506000816003546064610f189190611f2a565b610f229190611f41565b90506000610f31826064611e3c565b9050600080866001811115610f4857610f48611e77565b14610f69576105b4610f5a8484611e3c565b610f649190611f41565b610f80565b6105b4610f768385611e3c565b610f809190611f41565b905060006064828760010154610f969190611f2a565b610fa09190611f41565b9050856001015481106110cf576000876001811115610fc157610fc1611e77565b0361102057856003015460036000828254610fdc9190611e3c565b92505081905550856007015460076000828254610ff99190611e3c565b9091555050600186015460068054600090611015908490611eb5565b909155506110749050565b8560030154600460008282546110369190611e3c565b9091555050600786015460088054600090611052908490611e3c565b909155505060018601546005805460009061106e908490611eb5565b90915550505b856040516110829190611ec8565b60405180910390207f20965486510529d8d33d10365a182b41a308677a602dff52a7926c1dda796a61886040516110b99190611e8d565b60405180910390a26110ca86611536565b6112c5565b808660010160008282546110e39190611e3c565b90915550600090508760018111156110fd576110fd611e77565b0361111f5780600660008282546111149190611eb5565b909155506111379050565b80600560008282546111319190611eb5565b90915550505b8560010154670de0b6b3a764000087600301546111549190611f2a565b61115e9190611f41565b6002870155600087600181111561117757611177611e77565b146111ad5760648660020154606461118f9190611e3c565b876004015461119e9190611f2a565b6111a89190611f41565b6111d9565b6064866002015460646111c09190611eb5565b87600401546111cf9190611f2a565b6111d99190611f41565b600587015560008760018111156111f2576111f2611e77565b146112285760648660020154606461120a9190611eb5565b87600401546112199190611f2a565b6112239190611f41565b611254565b60648660020154606461123b9190611e3c565b876004015461124a9190611f2a565b6112549190611f41565b86600601819055506154608660080160008282546112729190611eb5565b9091555050604051611285908790611ec8565b60405180910390207f7756baf00bdffc1bccffd9a90a9f64352e6606e03dc385ebefbb10f7aab69acd886040516112bc9190611e8d565b60405180910390a25b5050505050505050565b33600090815260096020526040902054829081111561130157604051631e9acf1760e31b815260040160405180910390fd5b60008083600181111561131657611316611e77565b14611338576001600160a01b0385166000908152600b60205260409020611351565b6001600160a01b0385166000908152600a602052604090205b805490915060ff16611378578260405163e7893f4b60e01b81526004016105399190611e8d565b6001600160a01b038516600090815260096020526040812080548692906113a0908490611e3c565b92505081905550838160010160008282546113bb9190611eb5565b9091555050600181015460038201546113dd90670de0b6b3a764000090611f2a565b6113e79190611f41565b6002820155600083600181111561140057611400611e77565b14611436576064816002015460646114189190611eb5565b82600401546114279190611f2a565b6114319190611f41565b611462565b6064816002015460646114499190611e3c565b82600401546114589190611f2a565b6114629190611f41565b6006820155600083600181111561147b5761147b611e77565b146114b1576064816002015460646114939190611e3c565b82600401546114a29190611f2a565b6114ac9190611f41565b6114dd565b6064816002015460646114c49190611eb5565b82600401546114d39190611f2a565b6114dd9190611f41565b60058201556040516114f0908290611ec8565b60405180910390207f33b3dca41d83b6d4691a7b1646689cfc431c8fa5ff5dc0a1bce0a7b27984d1ba846040516115279190611e8d565b60405180910390a25050505050565b805460ff19168155600060018201819055600282018190556003820181905560048201819055600582018190556006820181905560078201819055600890910155565b600060038211156115da5750806000611593600283611f41565b61159e906001611eb5565b90505b818110156115d4579050806002816115b98186611f41565b6115c39190611eb5565b6115cd9190611f41565b90506115a1565b50919050565b8115610b8857506001919050565b6000808260018111156115fd576115fd611e77565b1461161657336000908152600b60205260409020611626565b336000908152600a602052604090205b805490915060ff1661164d578160405163e7893f4b60e01b81526004016105399190611e8d565b6000611657610afb565b9050600083600181111561166d5761166d611e77565b14801561168c575081600401548111158061168c575081600501548110155b806116c5575060018360018111156116a6576116a6611e77565b1480156116c557508160040154811015806116c5575081600501548111155b156116e3576040516345f1258960e11b815260040160405180910390fd5b6000808460018111156116f8576116f8611e77565b1461174357826005015483600401546117119190611e3c565b670de0b6b3a764000083856004015461172a9190611e3c565b6117349190611f2a565b61173e9190611f41565b611784565b826004015483600501546117579190611e3c565b670de0b6b3a76400008460040154846117709190611e3c565b61177a9190611f2a565b6117849190611f41565b90506000670de0b6b3a76400008285600101546117a19190611f2a565b6117ab9190611f41565b90508084600101546117bd9190611e3c565b33600090815260096020526040812080549091906117dc908490611eb5565b90915550600090508560018111156117f6576117f6611e77565b0361185257806006600082825461180d9190611eb5565b9250508190555083600301546003600082825461182a9190611e3c565b925050819055508360070154600760008282546118479190611e3c565b909155506118a29050565b80600560008282546118649190611eb5565b9091555050600384015460048054600090611880908490611e3c565b909155505060078401546008805460009061189c908490611e3c565b90915550505b836040516118b09190611ec8565b60405180910390207fe84a97c2c3b7891232df6d5950aae9f24d77380b07fbb63cec607e7eef783b20866040516118e79190611e8d565b60405180910390a26118f884611536565b5050505050565b60008082600181111561191457611914611e77565b1461192d57336000908152600b6020526040902061193d565b336000908152600a602052604090205b805490915060ff16611964578160405163e7893f4b60e01b81526004016105399190611e8d565b600061196e610afb565b9050600083600181111561198457611984611e77565b1480156119945750816004015481115b806119be575060018360018111156119ae576119ae611e77565b1480156119be5750816004015481105b156119dc5760405163ce63d92760e01b815260040160405180910390fd5b6000808460018111156119f1576119f1611e77565b148015611a02575082600601548211155b80611a2d57506001846001811115611a1c57611a1c611e77565b148015611a2d575082600601548210155b15611a9c576000846001811115611a4657611a46611e77565b14611a5357600854611a57565b6007545b6000856001811115611a6b57611a6b611e77565b14611a7857600654611a7c565b6005545b8460070154611a8b9190611f2a565b611a959190611f41565b9050611bc4565b600080856001811115611ab157611ab1611e77565b14611afc5783600401548460060154611aca9190611e3c565b670de0b6b3a7640000856004015485611ae39190611e3c565b611aed9190611f2a565b611af79190611f41565b611b3d565b83600601548460040154611b109190611e3c565b670de0b6b3a7640000856006015485611b299190611e3c565b611b339190611f2a565b611b3d9190611f41565b9050670de0b6b3a76400006000866001811115611b5c57611b5c611e77565b14611b6957600854611b6d565b6007545b611b779190611f2a565b816000876001811115611b8c57611b8c611e77565b14611b9957600654611b9d565b6005545b8660070154611bac9190611f2a565b611bb69190611f2a565b611bc09190611f41565b9150505b808360010154611bd49190611eb5565b3360009081526009602052604081208054909190611bf3908490611eb5565b9091555060009050846001811115611c0d57611c0d611e77565b03611c69578060056000828254611c249190611e3c565b92505081905550826003015460036000828254611c419190611e3c565b92505081905550826007015460076000828254611c5e9190611e3c565b90915550611cb99050565b8060066000828254611c7b9190611e3c565b9091555050600383015460048054600090611c97908490611e3c565b9091555050600783015460088054600090611cb3908490611e3c565b90915550505b82604051611cc79190611ec8565b60405180910390207f151310d65a6e661e37328da157dd7b99c21ec4f5d014e8348a1a0e93b967d39885604051611cfe9190611e8d565b60405180910390a26106d783611536565b600060208284031215611d2157600080fd5b5035919050565b80356001600160a01b0381168114610b8857600080fd5b803560028110610b8857600080fd5b60008060408385031215611d6157600080fd5b611d6a83611d28565b9150611d7860208401611d3f565b90509250929050565b600080600060608486031215611d9657600080fd5b8335925060208401359150611dad60408501611d3f565b90509250925092565b600060208284031215611dc857600080fd5b611dd182611d28565b9392505050565b600060208284031215611dea57600080fd5b611dd182611d3f565b600080600060608486031215611e0857600080fd5b611e1184611d28565b925060208401359150611dad60408501611d3f565b634e487b7160e01b600052601160045260246000fd5b81810381811115611e4f57611e4f611e26565b92915050565b600060208284031215611e6757600080fd5b81518015158114611dd157600080fd5b634e487b7160e01b600052602160045260246000fd5b6020810160028310611eaf57634e487b7160e01b600052602160045260246000fd5b91905290565b80820180821115611e4f57611e4f611e26565b815460ff161515815260018201546020820152600282015460408201526003820154606082015260048201546080820152600582015460a0820152600682015460c0820152600782015460e08201526008909101546101008201526101200190565b8082028115828204841417611e4f57611e4f611e26565b600082611f5e57634e487b7160e01b600052601260045260246000fd5b500490565b805169ffffffffffffffffffff81168114610b8857600080fd5b600080600080600060a08688031215611f9557600080fd5b611f9e86611f63565b9450602086015193506040860151925060608601519150611fc160808701611f63565b9050929550929590935056fea2646970667358221220dc5973edbb8dc041614e1dc7602527c6e5e5fda8174107a5b24995d3027d87ae64736f6c63430008140033","linkReferences":{}},"methodIdentifiers":{"FUNDING_INTERVAL()":"55efb287","FUNDING_PERIODS()":"359002f8","MAX_LEVERAGE()":"9b45ec97","MIN_LEVERAGE()":"34c1557d","MIN_MARGIN()":"eee8a168","PRECISION()":"aaf5eb68","addMargin(address,uint256,uint8)":"da5b7980","balance(address)":"e3d670d7","closePosition(uint8)":"a6b527fe","currentPrice()":"9d1b464a","deposit(uint256)":"b6b55f25","fundingRate(address,uint8)":"c731e2ca","liquidatePosition(address,uint8)":"5e0c7f6f","longProfits()":"374c8b40","longShares()":"f3d490f4","longTokens()":"6e4c3df3","longs(address)":"891de083","openPosition(uint256,uint256,uint8)":"5fbf81cc","shortProfits()":"4e088863","shortShares()":"a10e58aa","shortTokens()":"0f416ad4","shorts(address)":"7b05811e","withdraw(uint256)":"2e1a7d4d"},"id":3}