{"abi":[{"type":"constructor","inputs":[],"stateMutability":"nonpayable"},{"type":"function","name":"allowance","inputs":[{"name":"owner","type":"address","internalType":"address"},{"name":"spender","type":"address","internalType":"address"}],"outputs":[{"name":"","type":"uint256","internalType":"uint256"}],"stateMutability":"view"},{"type":"function","name":"approve","inputs":[{"name":"spender","type":"address","internalType":"address"},{"name":"value","type":"uint256","internalType":"uint256"}],"outputs":[{"name":"","type":"bool","internalType":"bool"}],"stateMutability":"nonpayable"},{"type":"function","name":"balanceOf","inputs":[{"name":"account","type":"address","internalType":"address"}],"outputs":[{"name":"","type":"uint256","internalType":"uint256"}],"stateMutability":"view"},{"type":"function","name":"decimals","inputs":[],"outputs":[{"name":"","type":"uint8","internalType":"uint8"}],"stateMutability":"view"},{"type":"function","name":"faucetAmount","inputs":[],"outputs":[{"name":"","type":"uint256","internalType":"uint256"}],"stateMutability":"view"},{"type":"function","name":"mint","inputs":[],"outputs":[{"name":"","type":"bool","internalType":"bool"}],"stateMutability":"nonpayable"},{"type":"function","name":"name","inputs":[],"outputs":[{"name":"","type":"string","internalType":"string"}],"stateMutability":"view"},{"type":"function","name":"symbol","inputs":[],"outputs":[{"name":"","type":"string","internalType":"string"}],"stateMutability":"view"},{"type":"function","name":"totalSupply","inputs":[],"outputs":[{"name":"","type":"uint256","internalType":"uint256"}],"stateMutability":"view"},{"type":"function","name":"transfer","inputs":[{"name":"to","type":"address","internalType":"address"},{"name":"value","type":"uint256","internalType":"uint256"}],"outputs":[{"name":"","type":"bool","internalType":"bool"}],"stateMutability":"nonpayable"},{"type":"function","name":"transferFrom","inputs":[{"name":"from","type":"address","internalType":"address"},{"name":"to","type":"address","internalType":"address"},{"name":"value","type":"uint256","internalType":"uint256"}],"outputs":[{"name":"","type":"bool","internalType":"bool"}],"stateMutability":"nonpayable"},{"type":"event","name":"Approval","inputs":[{"name":"owner","type":"address","indexed":true,"internalType":"address"},{"name":"spender","type":"address","indexed":true,"internalType":"address"},{"name":"value","type":"uint256","indexed":false,"internalType":"uint256"}],"anonymous":false},{"type":"event","name":"Transfer","inputs":[{"name":"from","type":"address","indexed":true,"internalType":"address"},{"name":"to","type":"address","indexed":true,"internalType":"address"},{"name":"value","type":"uint256","indexed":false,"internalType":"uint256"}],"anonymous":false},{"type":"error","name":"ERC20InsufficientAllowance","inputs":[{"name":"spender","type":"address","internalType":"address"},{"name":"allowance","type":"uint256","internalType":"uint256"},{"name":"needed","type":"uint256","internalType":"uint256"}]},{"type":"error","name":"ERC20InsufficientBalance","inputs":[{"name":"sender","type":"address","internalType":"address"},{"name":"balance","type":"uint256","internalType":"uint256"},{"name":"needed","type":"uint256","internalType":"uint256"}]},{"type":"error","name":"ERC20InvalidApprover","inputs":[{"name":"approver","type":"address","internalType":"address"}]},{"type":"error","name":"ERC20InvalidReceiver","inputs":[{"name":"receiver","type":"address","internalType":"address"}]},{"type":"error","name":"ERC20InvalidSender","inputs":[{"name":"sender","type":"address","internalType":"address"}]},{"type":"error","name":"ERC20InvalidSpender","inputs":[{"name":"spender","type":"address","internalType":"address"}]}],"bytecode":{"object":"0x6080604052683635c9adc5dea0000060055534801561001d57600080fd5b506040518060400160405280600881526020016711985ad9481554d160c21b81525060405180604001604052806004815260200163119554d160e21b815250816003908161006b919061011f565b506004610078828261011f565b5050506101de565b634e487b7160e01b600052604160045260246000fd5b600181811c908216806100aa57607f821691505b6020821081036100ca57634e487b7160e01b600052602260045260246000fd5b50919050565b601f82111561011a57600081815260208120601f850160051c810160208610156100f75750805b601f850160051c820191505b8181101561011657828155600101610103565b5050505b505050565b81516001600160401b0381111561013857610138610080565b61014c816101468454610096565b846100d0565b602080601f83116001811461018157600084156101695750858301515b600019600386901b1c1916600185901b178555610116565b600085815260208120601f198616915b828110156101b057888601518255948401946001909101908401610191565b50858210156101ce5787850151600019600388901b60f8161c191681555b5050505050600190811b01905550565b610795806101ed6000396000f3fe608060405234801561001057600080fd5b50600436106100a95760003560e01c8063313ce56711610071578063313ce5671461011c57806370a082311461012b57806395d89b41146101545780639c2814301461015c578063a9059cbb14610165578063dd62ed3e1461017857600080fd5b806306fdde03146100ae578063095ea7b3146100cc5780631249c58b146100ef57806318160ddd146100f757806323b872dd14610109575b600080fd5b6100b66101b1565b6040516100c391906105df565b60405180910390f35b6100df6100da366004610649565b610243565b60405190151581526020016100c3565b6100df61025d565b6002545b6040519081526020016100c3565b6100df610117366004610673565b610271565b604051601281526020016100c3565b6100fb6101393660046106af565b6001600160a01b031660009081526020819052604090205490565b6100b6610295565b6100fb60055481565b6100df610173366004610649565b6102a4565b6100fb6101863660046106d1565b6001600160a01b03918216600090815260016020908152604080832093909416825291909152205490565b6060600380546101c090610704565b80601f01602080910402602001604051908101604052809291908181526020018280546101ec90610704565b80156102395780601f1061020e57610100808354040283529160200191610239565b820191906000526020600020905b81548152906001019060200180831161021c57829003601f168201915b5050505050905090565b6000336102518185856102b2565b60019150505b92915050565b600061026b336005546102c4565b50600190565b60003361027f858285610303565b61028a858585610381565b506001949350505050565b6060600480546101c090610704565b600033610251818585610381565b6102bf83838360016103e0565b505050565b6001600160a01b0382166102f35760405163ec442f0560e01b8152600060048201526024015b60405180910390fd5b6102ff600083836104b5565b5050565b6001600160a01b03838116600090815260016020908152604080832093861683529290522054600019811461037b578181101561036c57604051637dc7a0d960e11b81526001600160a01b038416600482015260248101829052604481018390526064016102ea565b61037b848484840360006103e0565b50505050565b6001600160a01b0383166103ab57604051634b637e8f60e11b8152600060048201526024016102ea565b6001600160a01b0382166103d55760405163ec442f0560e01b8152600060048201526024016102ea565b6102bf8383836104b5565b6001600160a01b03841661040a5760405163e602df0560e01b8152600060048201526024016102ea565b6001600160a01b03831661043457604051634a1406b160e11b8152600060048201526024016102ea565b6001600160a01b038085166000908152600160209081526040808320938716835292905220829055801561037b57826001600160a01b0316846001600160a01b03167f8c5be1e5ebec7d5bd14f71427d1e84f3dd0314c0f7b2291e5b200ac8c7c3b925846040516104a791815260200190565b60405180910390a350505050565b6001600160a01b0383166104e05780600260008282546104d5919061073e565b909155506105529050565b6001600160a01b038316600090815260208190526040902054818110156105335760405163391434e360e21b81526001600160a01b038516600482015260248101829052604481018390526064016102ea565b6001600160a01b03841660009081526020819052604090209082900390555b6001600160a01b03821661056e5760028054829003905561058d565b6001600160a01b03821660009081526020819052604090208054820190555b816001600160a01b0316836001600160a01b03167fddf252ad1be2c89b69c2b068fc378daa952ba7f163c4a11628f55a4df523b3ef836040516105d291815260200190565b60405180910390a3505050565b600060208083528351808285015260005b8181101561060c578581018301518582016040015282016105f0565b506000604082860101526040601f19601f8301168501019250505092915050565b80356001600160a01b038116811461064457600080fd5b919050565b6000806040838503121561065c57600080fd5b6106658361062d565b946020939093013593505050565b60008060006060848603121561068857600080fd5b6106918461062d565b925061069f6020850161062d565b9150604084013590509250925092565b6000602082840312156106c157600080fd5b6106ca8261062d565b9392505050565b600080604083850312156106e457600080fd5b6106ed8361062d565b91506106fb6020840161062d565b90509250929050565b600181811c9082168061071857607f821691505b60208210810361073857634e487b7160e01b600052602260045260246000fd5b50919050565b8082018082111561025757634e487b7160e01b600052601160045260246000fdfea2646970667358221220751676db2d3676e2ad61ca73a454a1e69b4fe5c4125e958e20e3c93fc3479b2464736f6c63430008140033","linkReferences":{}},"methodIdentifiers":{"allowance(address,address)":"dd62ed3e","approve(address,uint256)":"095ea7b3","balanceOf(address)":"70a08231","decimals()":"313ce567","faucetAmount()":"9c281430","mint()":"1249c58b","name()":"06fdde03","symbol()":"95d89b41","totalSupply()":"18160ddd","transfer(address,uint256)":"a9059cbb","transferFrom(address,address,uint256)":"23b872dd"},"id":6}