{"abi":[{"type":"constructor","inputs":[{"name":"_priceOracle","type":"address","internalType":"address"},{"name":"_settlementToken","type":"address","internalType":"address"}],"stateMutability":"nonpayable"},{"type":"function","name":"FUNDING_INTERVAL","inputs":[],"outputs":[{"name":"","type":"uint256","internalType":"uint256"}],"stateMutability":"view"},{"type":"function","name":"FUNDING_PERIODS","inputs":[],"outputs":[{"name":"","type":"uint256","internalType":"uint256"}],"stateMutability":"view"},{"type":"function","name":"MAX_LEVERAGE","inputs":[],"outputs":[{"name":"","type":"uint256","internalType":"uint256"}],"stateMutability":"view"},{"type":"function","name":"MIN_LEVERAGE","inputs":[],"outputs":[{"name":"","type":"uint256","internalType":"uint256"}],"stateMutability":"view"},{"type":"function","name":"MIN_MARGIN","inputs":[],"outputs":[{"name":"","type":"uint256","internalType":"uint256"}],"stateMutability":"view"},{"type":"function","name":"PRECISION","inputs":[],"outputs":[{"name":"","type":"uint256","internalType":"uint256"}],"stateMutability":"view"},{"type":"function","name":"addMarginLong","inputs":[{"name":"user","type":"address","internalType":"address"},{"name":"amount","type":"uint256","internalType":"uint256"}],"outputs":[],"stateMutability":"nonpayable"},{"type":"function","name":"addMarginShort","inputs":[{"name":"user","type":"address","internalType":"address"},{"name":"amount","type":"uint256","internalType":"uint256"}],"outputs":[],"stateMutability":"nonpayable"},{"type":"function","name":"admin","inputs":[],"outputs":[{"name":"","type":"address","internalType":"address"}],"stateMutability":"view"},{"type":"function","name":"balance","inputs":[{"name":"","type":"address","internalType":"address"}],"outputs":[{"name":"","type":"uint256","internalType":"uint256"}],"stateMutability":"view"},{"type":"function","name":"closeLong","inputs":[],"outputs":[],"stateMutability":"nonpayable"},{"type":"function","name":"closeShort","inputs":[],"outputs":[],"stateMutability":"nonpayable"},{"type":"function","name":"currentPrice","inputs":[],"outputs":[{"name":"","type":"uint256","internalType":"uint256"}],"stateMutability":"view"},{"type":"function","name":"deposit","inputs":[{"name":"amount","type":"uint256","internalType":"uint256"}],"outputs":[],"stateMutability":"nonpayable"},{"type":"function","name":"fundingRateLong","inputs":[{"name":"user","type":"address","internalType":"address"}],"outputs":[],"stateMutability":"nonpayable"},{"type":"function","name":"fundingRateShort","inputs":[{"name":"user","type":"address","internalType":"address"}],"outputs":[],"stateMutability":"nonpayable"},{"type":"function","name":"longProfits","inputs":[],"outputs":[{"name":"","type":"uint256","internalType":"uint256"}],"stateMutability":"view"},{"type":"function","name":"longShares","inputs":[],"outputs":[{"name":"","type":"uint256","internalType":"uint256"}],"stateMutability":"view"},{"type":"function","name":"longTokens","inputs":[],"outputs":[{"name":"","type":"uint256","internalType":"uint256"}],"stateMutability":"view"},{"type":"function","name":"longs","inputs":[{"name":"","type":"address","internalType":"address"}],"outputs":[{"name":"active","type":"bool","internalType":"bool"},{"name":"margin","type":"uint256","internalType":"uint256"},{"name":"leverage","type":"uint256","internalType":"uint256"},{"name":"tokens","type":"uint256","internalType":"uint256"},{"name":"entry","type":"uint256","internalType":"uint256"},{"name":"liquidation","type":"uint256","internalType":"uint256"},{"name":"profit","type":"uint256","internalType":"uint256"},{"name":"shares","type":"uint256","internalType":"uint256"},{"name":"funding","type":"uint256","internalType":"uint256"}],"stateMutability":"view"},{"type":"function","name":"openLong","inputs":[{"name":"margin","type":"uint256","internalType":"uint256"},{"name":"leverage","type":"uint256","internalType":"uint256"}],"outputs":[],"stateMutability":"nonpayable"},{"type":"function","name":"openShort","inputs":[{"name":"margin","type":"uint256","internalType":"uint256"},{"name":"leverage","type":"uint256","internalType":"uint256"}],"outputs":[],"stateMutability":"nonpayable"},{"type":"function","name":"priceOracle","inputs":[],"outputs":[{"name":"","type":"address","internalType":"contract AggregatorV3Interface"}],"stateMutability":"view"},{"type":"function","name":"settlementToken","inputs":[],"outputs":[{"name":"","type":"address","internalType":"contract IERC20"}],"stateMutability":"view"},{"type":"function","name":"shortProfits","inputs":[],"outputs":[{"name":"","type":"uint256","internalType":"uint256"}],"stateMutability":"view"},{"type":"function","name":"shortShares","inputs":[],"outputs":[{"name":"","type":"uint256","internalType":"uint256"}],"stateMutability":"view"},{"type":"function","name":"shortTokens","inputs":[],"outputs":[{"name":"","type":"uint256","internalType":"uint256"}],"stateMutability":"view"},{"type":"function","name":"shorts","inputs":[{"name":"","type":"address","internalType":"address"}],"outputs":[{"name":"active","type":"bool","internalType":"bool"},{"name":"margin","type":"uint256","internalType":"uint256"},{"name":"leverage","type":"uint256","internalType":"uint256"},{"name":"tokens","type":"uint256","internalType":"uint256"},{"name":"entry","type":"uint256","internalType":"uint256"},{"name":"liquidation","type":"uint256","internalType":"uint256"},{"name":"profit","type":"uint256","internalType":"uint256"},{"name":"shares","type":"uint256","internalType":"uint256"},{"name":"funding","type":"uint256","internalType":"uint256"}],"stateMutability":"view"},{"type":"function","name":"withdraw","inputs":[{"name":"amount","type":"uint256","internalType":"uint256"}],"outputs":[],"stateMutability":"nonpayable"},{"type":"event","name":"Deposit","inputs":[{"name":"user","type":"address","indexed":true,"internalType":"address"},{"name":"amount","type":"uint256","indexed":false,"internalType":"uint256"}],"anonymous":false},{"type":"event","name":"LongClosedAtLoss","inputs":[{"name":"short","type":"tuple","indexed":true,"internalType":"struct Parimutuel.Position","components":[{"name":"active","type":"bool","internalType":"bool"},{"name":"margin","type":"uint256","internalType":"uint256"},{"name":"leverage","type":"uint256","internalType":"uint256"},{"name":"tokens","type":"uint256","internalType":"uint256"},{"name":"entry","type":"uint256","internalType":"uint256"},{"name":"liquidation","type":"uint256","internalType":"uint256"},{"name":"profit","type":"uint256","internalType":"uint256"},{"name":"shares","type":"uint256","internalType":"uint256"},{"name":"funding","type":"uint256","internalType":"uint256"}]}],"anonymous":false},{"type":"event","name":"LongClosedAtProfit","inputs":[{"name":"short","type":"tuple","indexed":true,"internalType":"struct Parimutuel.Position","components":[{"name":"active","type":"bool","internalType":"bool"},{"name":"margin","type":"uint256","internalType":"uint256"},{"name":"leverage","type":"uint256","internalType":"uint256"},{"name":"tokens","type":"uint256","internalType":"uint256"},{"name":"entry","type":"uint256","internalType":"uint256"},{"name":"liquidation","type":"uint256","internalType":"uint256"},{"name":"profit","type":"uint256","internalType":"uint256"},{"name":"shares","type":"uint256","internalType":"uint256"},{"name":"funding","type":"uint256","internalType":"uint256"}]}],"anonymous":false},{"type":"event","name":"LongFundingPaid","inputs":[{"name":"long","type":"tuple","indexed":true,"internalType":"struct Parimutuel.Position","components":[{"name":"active","type":"bool","internalType":"bool"},{"name":"margin","type":"uint256","internalType":"uint256"},{"name":"leverage","type":"uint256","internalType":"uint256"},{"name":"tokens","type":"uint256","internalType":"uint256"},{"name":"entry","type":"uint256","internalType":"uint256"},{"name":"liquidation","type":"uint256","internalType":"uint256"},{"name":"profit","type":"uint256","internalType":"uint256"},{"name":"shares","type":"uint256","internalType":"uint256"},{"name":"funding","type":"uint256","internalType":"uint256"}]}],"anonymous":false},{"type":"event","name":"LongLiquidated","inputs":[{"name":"short","type":"tuple","indexed":true,"internalType":"struct Parimutuel.Position","components":[{"name":"active","type":"bool","internalType":"bool"},{"name":"margin","type":"uint256","internalType":"uint256"},{"name":"leverage","type":"uint256","internalType":"uint256"},{"name":"tokens","type":"uint256","internalType":"uint256"},{"name":"entry","type":"uint256","internalType":"uint256"},{"name":"liquidation","type":"uint256","internalType":"uint256"},{"name":"profit","type":"uint256","internalType":"uint256"},{"name":"shares","type":"uint256","internalType":"uint256"},{"name":"funding","type":"uint256","internalType":"uint256"}]}],"anonymous":false},{"type":"event","name":"MarginAddedLong","inputs":[{"name":"short","type":"tuple","indexed":true,"internalType":"struct Parimutuel.Position","components":[{"name":"active","type":"bool","internalType":"bool"},{"name":"margin","type":"uint256","internalType":"uint256"},{"name":"leverage","type":"uint256","internalType":"uint256"},{"name":"tokens","type":"uint256","internalType":"uint256"},{"name":"entry","type":"uint256","internalType":"uint256"},{"name":"liquidation","type":"uint256","internalType":"uint256"},{"name":"profit","type":"uint256","internalType":"uint256"},{"name":"shares","type":"uint256","internalType":"uint256"},{"name":"funding","type":"uint256","internalType":"uint256"}]}],"anonymous":false},{"type":"event","name":"MarginAddedShort","inputs":[{"name":"short","type":"tuple","indexed":true,"internalType":"struct Parimutuel.Position","components":[{"name":"active","type":"bool","internalType":"bool"},{"name":"margin","type":"uint256","internalType":"uint256"},{"name":"leverage","type":"uint256","internalType":"uint256"},{"name":"tokens","type":"uint256","internalType":"uint256"},{"name":"entry","type":"uint256","internalType":"uint256"},{"name":"liquidation","type":"uint256","internalType":"uint256"},{"name":"profit","type":"uint256","internalType":"uint256"},{"name":"shares","type":"uint256","internalType":"uint256"},{"name":"funding","type":"uint256","internalType":"uint256"}]}],"anonymous":false},{"type":"event","name":"OpenLong","inputs":[{"name":"short","type":"tuple","indexed":true,"internalType":"struct Parimutuel.Position","components":[{"name":"active","type":"bool","internalType":"bool"},{"name":"margin","type":"uint256","internalType":"uint256"},{"name":"leverage","type":"uint256","internalType":"uint256"},{"name":"tokens","type":"uint256","internalType":"uint256"},{"name":"entry","type":"uint256","internalType":"uint256"},{"name":"liquidation","type":"uint256","internalType":"uint256"},{"name":"profit","type":"uint256","internalType":"uint256"},{"name":"shares","type":"uint256","internalType":"uint256"},{"name":"funding","type":"uint256","internalType":"uint256"}]}],"anonymous":false},{"type":"event","name":"OpenShort","inputs":[{"name":"short","type":"tuple","indexed":true,"internalType":"struct Parimutuel.Position","components":[{"name":"active","type":"bool","internalType":"bool"},{"name":"margin","type":"uint256","internalType":"uint256"},{"name":"leverage","type":"uint256","internalType":"uint256"},{"name":"tokens","type":"uint256","internalType":"uint256"},{"name":"entry","type":"uint256","internalType":"uint256"},{"name":"liquidation","type":"uint256","internalType":"uint256"},{"name":"profit","type":"uint256","internalType":"uint256"},{"name":"shares","type":"uint256","internalType":"uint256"},{"name":"funding","type":"uint256","internalType":"uint256"}]}],"anonymous":false},{"type":"event","name":"ShortClosedAtLoss","inputs":[{"name":"short","type":"tuple","indexed":true,"internalType":"struct Parimutuel.Position","components":[{"name":"active","type":"bool","internalType":"bool"},{"name":"margin","type":"uint256","internalType":"uint256"},{"name":"leverage","type":"uint256","internalType":"uint256"},{"name":"tokens","type":"uint256","internalType":"uint256"},{"name":"entry","type":"uint256","internalType":"uint256"},{"name":"liquidation","type":"uint256","internalType":"uint256"},{"name":"profit","type":"uint256","internalType":"uint256"},{"name":"shares","type":"uint256","internalType":"uint256"},{"name":"funding","type":"uint256","internalType":"uint256"}]}],"anonymous":false},{"type":"event","name":"ShortClosedAtProfit","inputs":[{"name":"short","type":"tuple","indexed":true,"internalType":"struct Parimutuel.Position","components":[{"name":"active","type":"bool","internalType":"bool"},{"name":"margin","type":"uint256","internalType":"uint256"},{"name":"leverage","type":"uint256","internalType":"uint256"},{"name":"tokens","type":"uint256","internalType":"uint256"},{"name":"entry","type":"uint256","internalType":"uint256"},{"name":"liquidation","type":"uint256","internalType":"uint256"},{"name":"profit","type":"uint256","internalType":"uint256"},{"name":"shares","type":"uint256","internalType":"uint256"},{"name":"funding","type":"uint256","internalType":"uint256"}]}],"anonymous":false},{"type":"event","name":"ShortFundingPaid","inputs":[{"name":"short","type":"tuple","indexed":true,"internalType":"struct Parimutuel.Position","components":[{"name":"active","type":"bool","internalType":"bool"},{"name":"margin","type":"uint256","internalType":"uint256"},{"name":"leverage","type":"uint256","internalType":"uint256"},{"name":"tokens","type":"uint256","internalType":"uint256"},{"name":"entry","type":"uint256","internalType":"uint256"},{"name":"liquidation","type":"uint256","internalType":"uint256"},{"name":"profit","type":"uint256","internalType":"uint256"},{"name":"shares","type":"uint256","internalType":"uint256"},{"name":"funding","type":"uint256","internalType":"uint256"}]}],"anonymous":false},{"type":"event","name":"ShortLiquidated","inputs":[{"name":"short","type":"tuple","indexed":true,"internalType":"struct Parimutuel.Position","components":[{"name":"active","type":"bool","internalType":"bool"},{"name":"margin","type":"uint256","internalType":"uint256"},{"name":"leverage","type":"uint256","internalType":"uint256"},{"name":"tokens","type":"uint256","internalType":"uint256"},{"name":"entry","type":"uint256","internalType":"uint256"},{"name":"liquidation","type":"uint256","internalType":"uint256"},{"name":"profit","type":"uint256","internalType":"uint256"},{"name":"shares","type":"uint256","internalType":"uint256"},{"name":"funding","type":"uint256","internalType":"uint256"}]}],"anonymous":false},{"type":"event","name":"Withdraw","inputs":[{"name":"user","type":"address","indexed":true,"internalType":"address"},{"name":"amount","type":"uint256","indexed":false,"internalType":"uint256"}],"anonymous":false},{"type":"error","name":"AmountMustBeGreaterThanZero","inputs":[]},{"type":"error","name":"FundingRateNotDue","inputs":[]},{"type":"error","name":"InsufficientBalance","inputs":[]},{"type":"error","name":"InsufficientMargin","inputs":[]},{"type":"error","name":"InvalidLeverage","inputs":[]},{"type":"error","name":"NoActiveLong","inputs":[]},{"type":"error","name":"NoActiveShort","inputs":[]},{"type":"error","name":"NotCloseableAtLoss","inputs":[]},{"type":"error","name":"NotCloseableAtProfit","inputs":[]},{"type":"error","name":"NotLiquidatable","inputs":[]},{"type":"error","name":"TransferFailed","inputs":[]}],"bytecode":{"object":"0x60806040523480156200001157600080fd5b50604051620025b6380380620025b6833981016040819052620000349162000093565b600180546001600160a01b039384166001600160a01b0319918216179091556002805492909316918116919091179091556000805490911633179055620000cb565b80516001600160a01b03811681146200008e57600080fd5b919050565b60008060408385031215620000a757600080fd5b620000b28362000076565b9150620000c26020840162000076565b90509250929050565b6124db80620000db6000396000f3fe608060405234801561001057600080fd5b50600436106101cf5760003560e01c80637b05811e11610104578063adc8f5a4116100a2578063eee8a16811610071578063eee8a168146103e5578063f3d490f41461044d578063f8432a1b14610456578063f851a4401461045e57600080fd5b8063adc8f5a4146103f4578063b6b55f2514610407578063c181d4181461041a578063e3d670d71461042d57600080fd5b80639b45ec97116100de5780639b45ec97146103cc5780639d1b464a146103d4578063a10e58aa146103dc578063aaf5eb68146103e557600080fd5b80637b05811e146102b95780637b9e618d1461035c578063891de0831461036f57600080fd5b806334c1557d116101715780634e0888631161014b5780634e0888631461028b57806355efb287146102945780635a56c4b81461029d5780636e4c3df3146102b057600080fd5b806334c1557d14610271578063359002f814610279578063374c8b401461028257600080fd5b80632143f4d4116101ad5780632143f4d41461021857806324f825261461022b5780632630c12f146102335780632e1a7d4d1461025e57600080fd5b80630f416ad4146101d45780631239921a146101f05780631266a61914610205575b600080fd5b6101dd60035481565b6040519081526020015b60405180910390f35b6102036101fe3660046122b5565b610471565b005b6102036102133660046122d7565b61078e565b6102036102263660046122f9565b610a77565b610203610bf8565b600154610246906001600160a01b031681565b6040516001600160a01b0390911681526020016101e7565b61020361026c366004612323565b610c69565b6101dd600181565b6101dd6105b481565b6101dd60065481565b6101dd60055481565b6101dd61546081565b6102036102ab3660046122f9565b610db0565b6101dd60045481565b6103166102c73660046122b5565b600a6020526000908152604090208054600182015460028301546003840154600485015460058601546006870154600788015460089098015460ff909716979596949593949293919290919089565b604080519915158a5260208a0198909852968801959095526060870193909352608086019190915260a085015260c084015260e0830152610100820152610120016101e7565b600254610246906001600160a01b031681565b61031661037d3660046122b5565b600b6020526000908152604090208054600182015460028301546003840154600485015460058601546006870154600788015460089098015460ff909716979596949593949293919290919089565b6101dd606481565b6101dd610f31565b6101dd60075481565b6101dd670de0b6b3a764000081565b6102036104023660046122b5565b610fc3565b610203610415366004612323565b6112d5565b6102036104283660046122d7565b6113ef565b6101dd61043b3660046122b5565b60096020526000908152604090205481565b6101dd60085481565b6102036116d3565b600054610246906001600160a01b031681565b6001600160a01b0381166000908152600a60205260409020805460ff166104ab57604051632674890960e11b815260040160405180910390fd5b42816008015411156104d057604051632df6a3e960e11b815260040160405180910390fd5b600454600354116104fa576154608160080160008282546104f19190612352565b90915550505050565b600060045460035461050c9190612352565b90506000816003546064610520919061236b565b61052a9190612382565b905060006105398260646123a4565b905060006105b461054a83856123a4565b6105549190612382565b90506000606482876001015461056a919061236b565b6105749190612382565b90508560010154811061066d5785600301546003600082825461059791906123a4565b925050819055508560070154600760008282546105b491906123a4565b90915550506001860154600680546000906105d0908490612352565b90915550506040516105e39087906123b7565b604051908190038120907ffffccc3ab08400d9793d9b23671b6bdfe653a6ac7684efb4168afc36111dad2d90600090a26001600160a01b0387166000908152600a60205260408120805460ff191681556001810182905560028101829055600381018290556004810182905560058101829055600681018290556007810182905560080155610785565b8086600101600082825461068191906123a4565b92505081905550806006600082825461069a9190612352565b9091555050600186015460038701546106bc90670de0b6b3a76400009061236b565b6106c69190612382565b600287018190556064906106da9082612352565b87600401546106e9919061236b565b6106f39190612382565b6005870155600286015460649061070a90826123a4565b8760040154610719919061236b565b6107239190612382565b86600601819055506154608660080160008282546107419190612352565b90915550506040516107549087906123b7565b604051908190038120907f58bf49e3bdcc4db1215b27adb74b70cfa7ec1bfdfa44a781ae1206bef62ae02290600090a25b50505050505050565b3360009081526009602052604090205482908111156107c057604051631e9acf1760e31b815260040160405180910390fd5b670de0b6b3a76400008310156107e9576040516341c092a960e01b815260040160405180910390fd5b60018210806107f85750606482115b1561081657604051633fe89cb960e11b815260040160405180910390fd5b33600090815260096020526040812080548592906108359084906123a4565b9091555060009050610847838561236b565b90506000610853610f31565b9050600060646108638682612352565b61086d908461236b565b6108779190612382565b90506000606461088787826123a4565b610891908561236b565b61089b9190612382565b905060006007546108b8866003546108b39190612352565b611740565b6108c291906123a4565b90506000856003546108d49190612352565b90506000816108eb670de0b6b3a76400008961236b565b6108f59190612382565b90506000670de0b6b3a764000061090c8c8461236b565b6109169190612382565b9050610922818c6123a4565b9a5080600560008282546109369190612352565b92505081905550876003600082825461094f9190612352565b9250508190555083600760008282546109689190612352565b925050819055506040518061012001604052806001151581526020018c81526020018b8152602001898152602001888152602001878152602001868152602001858152602001615460426109bc9190612352565b9052336000908152600a60209081526040918290208351815460ff1916901515178155908301516001820155828201516002820155606083015160038201556080830151600482015560a0830151600582015560c0830151600682015560e0830151600782015561010090920151600883015551610a3a91906123b7565b604051908190038120907f573a25a3312dce3b34fa314d28ff79a1714844441a2f7e5f244d674eb80b15c290600090a25050505050505050505050565b336000908152600960205260409020548190811115610aa957604051631e9acf1760e31b815260040160405180910390fd5b6001600160a01b0383166000908152600b60205260409020805460ff16610ae3576040516331868fb760e11b815260040160405180910390fd5b6001600160a01b03841660009081526009602052604081208054859290610b0b9084906123a4565b9250508190555082816001016000828254610b269190612352565b909155505060018101546003820154610b4890670de0b6b3a76400009061236b565b610b529190612382565b60028201819055606490610b669082612352565b8260040154610b75919061236b565b610b7f9190612382565b60068201556002810154606490610b9690826123a4565b8260040154610ba5919061236b565b610baf9190612382565b6005820155604051610bc29082906123b7565b604051908190038120907f73ea3adbe3baee0e0e7808d6da6025ed3756bc885f5a8b50e42daa2c7f55080c90600090a250505050565b336000908152600b60205260409020805460ff16610c29576040516331868fb760e11b815260040160405180910390fd5b6000610c33610f31565b905081600501548111610c4d57610c49336117af565b5050565b8160040154811015610c6157610c49611903565b610c49611af4565b336000908152600960205260409020548190811115610c9b57604051631e9acf1760e31b815260040160405180910390fd5b81600003610cbc57604051635e85ae7360e01b815260040160405180910390fd5b3360009081526009602052604081208054849290610cdb9084906123a4565b909155505060025460405163a9059cbb60e01b8152336004820152602481018490526000916001600160a01b03169063a9059cbb906044016020604051808303816000875af1158015610d32573d6000803e3d6000fd5b505050506040513d601f19601f82011682018060405250810190610d569190612419565b905080610d76576040516312171d8360e31b815260040160405180910390fd5b60405183815233907f884edad9ce6fa2440d8a54cc123490eb96d2768479d49ff9c7366125a94243649060200160405180910390a2505050565b336000908152600960205260409020548190811115610de257604051631e9acf1760e31b815260040160405180910390fd5b6001600160a01b0383166000908152600a60205260409020805460ff16610e1c57604051632674890960e11b815260040160405180910390fd5b6001600160a01b03841660009081526009602052604081208054859290610e449084906123a4565b9250508190555082816001016000828254610e5f9190612352565b909155505060018101546003820154610e8190670de0b6b3a76400009061236b565b610e8b9190612382565b60028201819055606490610e9f90826123a4565b8260040154610eae919061236b565b610eb89190612382565b60068201556002810154606490610ecf9082612352565b8260040154610ede919061236b565b610ee89190612382565b6005820155604051610efb9082906123b7565b604051908190038120907f5d4ff44de1b0d8f4b7181ed76af9913dec97aed99ee9d1d7c9095ba6d5a0f45a90600090a250505050565b600080600160009054906101000a90046001600160a01b03166001600160a01b031663feaf968c6040518163ffffffff1660e01b815260040160a060405180830381865afa158015610f87573d6000803e3d6000fd5b505050506040513d601f19601f82011682018060405250810190610fab9190612455565b5050509150506000811215610fbe575060005b919050565b6001600160a01b0381166000908152600b60205260409020805460ff16610ffd576040516331868fb760e11b815260040160405180910390fd5b428160080154111561102257604051632df6a3e960e11b815260040160405180910390fd5b60035460045411611043576154608160080160008282546104f19190612352565b60006004546003546110559190612352565b90506000816004546064611069919061236b565b6110739190612382565b905060006110828260646123a4565b905060006105b461109383856123a4565b61109d9190612382565b9050600060648287600101546110b3919061236b565b6110bd9190612382565b9050856001015481106111b5578560030154600460008282546110e091906123a4565b90915550506007860154600880546000906110fc9084906123a4565b9091555050600186015460058054600090611118908490612352565b909155505060405161112b9087906123b7565b604051908190038120907f8eb3d2a79022846e3fddc6310504c9b46b10aad565da7a6804d8c00b1177391490600090a26001600160a01b0387166000908152600b60205260408120805460ff191681556001810182905560028101829055600381018290556004810182905560058101829055600681018290556007810182905560080155610785565b808660010160008282546111c991906123a4565b9250508190555080600560008282546111e29190612352565b90915550506001860154600387015461120490670de0b6b3a76400009061236b565b61120e9190612382565b6002870181905560649061122290826123a4565b8760040154611231919061236b565b61123b9190612382565b600587015560028601546064906112529082612352565b8760040154611261919061236b565b61126b9190612382565b86600601819055506154608660080160008282546112899190612352565b909155505060405161129c9087906123b7565b604051908190038120907f68231237047f831001bde6adc5118a30ce889227f735daf9cf4b3c3e16f7eec990600090a250505050505050565b806000036112f657604051635e85ae7360e01b815260040160405180910390fd5b6002546040516323b872dd60e01b8152336004820152306024820152604481018390526000916001600160a01b0316906323b872dd906064016020604051808303816000875af115801561134e573d6000803e3d6000fd5b505050506040513d601f19601f820116820180604052508101906113729190612419565b905080611392576040516312171d8360e31b815260040160405180910390fd5b33600090815260096020526040812080548492906113b1908490612352565b909155505060405182815233907fe1fffcc4923d04b559f4d29a8bfc6cda04eb5b0d3c460751c2402c5c5cc9109c9060200160405180910390a25050565b33600090815260096020526040902054829081111561142157604051631e9acf1760e31b815260040160405180910390fd5b670de0b6b3a764000083101561144a576040516341c092a960e01b815260040160405180910390fd5b60018210806114595750606482115b1561147757604051633fe89cb960e11b815260040160405180910390fd5b33600090815260096020526040812080548592906114969084906123a4565b90915550600090506114a8838561236b565b905060006114b4610f31565b9050600060646114c486826123a4565b6114ce908461236b565b6114d89190612382565b9050600060646114e88782612352565b6114f2908561236b565b6114fc9190612382565b90506000600854611514866004546108b39190612352565b61151e91906123a4565b90506000856004546115309190612352565b9050600081611547670de0b6b3a76400008961236b565b6115519190612382565b90506000670de0b6b3a76400006115688c8461236b565b6115729190612382565b905061157e818c6123a4565b9a5080600660008282546115929190612352565b9250508190555087600460008282546115ab9190612352565b9250508190555083600860008282546115c49190612352565b925050819055506040518061012001604052806001151581526020018c81526020018b8152602001898152602001888152602001878152602001868152602001858152602001615460426116189190612352565b9052336000908152600b60209081526040918290208351815460ff1916901515178155908301516001820155828201516002820155606083015160038201556080830151600482015560a0830151600582015560c0830151600682015560e083015160078201556101009092015160088301555161169691906123b7565b604051908190038120907f9691da72ef539d5ccf9fea4e7c7f88019a837e693325699785b2c7c9d4cfb2de90600090a25050505050505050505050565b336000908152600a60205260409020805460ff1661170457604051632674890960e11b815260040160405180910390fd5b600061170e610f31565b90508160050154811061172457610c4933611d23565b816004015481111561173857610c49611e78565b610c4961206d565b600060038211156117a1575080600061175a600283612382565b611765906001612352565b90505b8181101561179b579050806002816117808186612382565b61178a9190612352565b6117949190612382565b9050611768565b50919050565b8115610fbe57506001919050565b6001600160a01b0381166000908152600b60205260409020805460ff166117e9576040516331868fb760e11b815260040160405180910390fd5b60006117f3610f31565b9050816005015481111561181a57604051636ef5bcdd60e11b815260040160405180910390fd5b81600301546004600082825461183091906123a4565b909155505060078201546008805460009061184c9084906123a4565b9091555050600182015460058054600090611868908490612352565b909155505060405161187b9083906123b7565b604051908190038120907f8eb3d2a79022846e3fddc6310504c9b46b10aad565da7a6804d8c00b1177391490600090a250506001600160a01b03166000908152600b60205260408120805460ff191681556001810182905560028101829055600381018290556004810182905560058101829055600681018290556007810182905560080155565b336000908152600b60205260409020805460ff16611934576040516331868fb760e11b815260040160405180910390fd5b600061193e610f31565b905081600401548111806119555750816005015481105b15611973576040516345f1258960e11b815260040160405180910390fd5b60008260050154836004015461198991906123a4565b670de0b6b3a76400008385600401546119a291906123a4565b6119ac919061236b565b6119b69190612382565b90506000670de0b6b3a76400008285600101546119d3919061236b565b6119dd9190612382565b90508084600101546119ef91906123a4565b3360009081526009602052604081208054909190611a0e908490612352565b925050819055508060056000828254611a279190612352565b9091555050600384015460048054600090611a439084906123a4565b9091555050600784015460088054600090611a5f9084906123a4565b9091555050604051611a729085906123b7565b604051908190038120907f74519ba61d83a6887bc3b1fdcc037de9631ed59951d7c085dfacfde456bd92b290600090a25050336000908152600b60205260408120805460ff1916815560018101829055600281018290556003810182905560048101829055600581018290556006810182905560078101829055600801555050565b336000908152600b60205260409020805460ff16611b25576040516331868fb760e11b815260040160405180910390fd5b6000611b2f610f31565b90508160040154811015611b565760405163ce63d92760e01b815260040160405180910390fd5b600082600601548210611b89576008546006548460070154611b78919061236b565b611b829190612382565b9050611c0f565b600083600401548460060154611b9f91906123a4565b670de0b6b3a7640000856004015485611bb891906123a4565b611bc2919061236b565b611bcc9190612382565b9050670de0b6b3a7640000600854611be4919061236b565b816006548660070154611bf7919061236b565b611c01919061236b565b611c0b9190612382565b9150505b808360010154611c1f9190612352565b3360009081526009602052604081208054909190611c3e908490612352565b925050819055508060066000828254611c5791906123a4565b9091555050600383015460048054600090611c739084906123a4565b9091555050600783015460088054600090611c8f9084906123a4565b9091555050604051611ca29084906123b7565b604051908190038120907f0ca9a03881277f933ba6a55db5dba3cd4cfa9416f4891d4edeefee0cc6dc07fc90600090a25050336000908152600b60205260408120805460ff19168155600181018290556002810182905560038101829055600481018290556005810182905560068101829055600781018290556008015550565b6001600160a01b0381166000908152600a60205260409020805460ff16611d5d57604051632674890960e11b815260040160405180910390fd5b6000611d67610f31565b90508160050154811015611d8e57604051636ef5bcdd60e11b815260040160405180910390fd5b816003015460036000828254611da491906123a4565b92505081905550816007015460076000828254611dc191906123a4565b9091555050600182015460068054600090611ddd908490612352565b9091555050604051611df09083906123b7565b604051908190038120907ffffccc3ab08400d9793d9b23671b6bdfe653a6ac7684efb4168afc36111dad2d90600090a250506001600160a01b03166000908152600a60205260408120805460ff191681556001810182905560028101829055600381018290556004810182905560058101829055600681018290556007810182905560080155565b336000908152600a60205260409020805460ff16611ea957604051632674890960e11b815260040160405180910390fd5b6000611eb3610f31565b9050816004015481111580611ecc575081600501548110155b15611eea576040516345f1258960e11b815260040160405180910390fd5b600082600401548360050154611f0091906123a4565b670de0b6b3a7640000846004015484611f1991906123a4565b611f23919061236b565b611f2d9190612382565b90506000670de0b6b3a7640000828560010154611f4a919061236b565b611f549190612382565b9050808460010154611f6691906123a4565b3360009081526009602052604081208054909190611f85908490612352565b925050819055508060066000828254611f9e9190612352565b92505081905550836003015460036000828254611fbb91906123a4565b92505081905550836007015460076000828254611fd891906123a4565b9091555050604051611feb9085906123b7565b604051908190038120907f41ef72e31f6bde81fcb48207dec1465c6b7755288cd2969e03cd4b38764f257b90600090a25050336000908152600a60205260408120805460ff1916815560018101829055600281018290556003810182905560048101829055600581018290556006810182905560078101829055600801555050565b336000908152600a60205260409020805460ff1661209e57604051632674890960e11b815260040160405180910390fd5b60006120a8610f31565b905081600401548111156120cf5760405163ce63d92760e01b815260040160405180910390fd5b6000826006015482116121025760075460055484600701546120f1919061236b565b6120fb9190612382565b9050612188565b60008360060154846004015461211891906123a4565b670de0b6b3a764000085600601548561213191906123a4565b61213b919061236b565b6121459190612382565b9050670de0b6b3a764000060075461215d919061236b565b816005548660070154612170919061236b565b61217a919061236b565b6121849190612382565b9150505b8083600101546121989190612352565b33600090815260096020526040812080549091906121b7908490612352565b9250508190555080600560008282546121d091906123a4565b925050819055508260030154600360008282546121ed91906123a4565b9250508190555082600701546007600082825461220a91906123a4565b909155505060405161221d9084906123b7565b604051908190038120907f70d5cff2ecd2eebd75b486b11e72fbbb9eaa9fa4f0674c1870d95aa61bb68fe690600090a25050336000908152600a60205260408120805460ff19168155600181018290556002810182905560038101829055600481018290556005810182905560068101829055600781018290556008015550565b80356001600160a01b0381168114610fbe57600080fd5b6000602082840312156122c757600080fd5b6122d08261229e565b9392505050565b600080604083850312156122ea57600080fd5b50508035926020909101359150565b6000806040838503121561230c57600080fd5b6123158361229e565b946020939093013593505050565b60006020828403121561233557600080fd5b5035919050565b634e487b7160e01b600052601160045260246000fd5b808201808211156123655761236561233c565b92915050565b80820281158282048414176123655761236561233c565b60008261239f57634e487b7160e01b600052601260045260246000fd5b500490565b818103818111156123655761236561233c565b815460ff161515815260018201546020820152600282015460408201526003820154606082015260048201546080820152600582015460a0820152600682015460c0820152600782015460e08201526008909101546101008201526101200190565b60006020828403121561242b57600080fd5b815180151581146122d057600080fd5b805169ffffffffffffffffffff81168114610fbe57600080fd5b600080600080600060a0868803121561246d57600080fd5b6124768661243b565b94506020860151935060408601519250606086015191506124996080870161243b565b9050929550929590935056fea26469706673582212203fda485781b281e7f80714730ee2ea6966338098f535bbd70e8703dee4fd6ad664736f6c63430008140033","linkReferences":{}},"methodIdentifiers":{"FUNDING_INTERVAL()":"55efb287","FUNDING_PERIODS()":"359002f8","MAX_LEVERAGE()":"9b45ec97","MIN_LEVERAGE()":"34c1557d","MIN_MARGIN()":"eee8a168","PRECISION()":"aaf5eb68","addMarginLong(address,uint256)":"2143f4d4","addMarginShort(address,uint256)":"5a56c4b8","admin()":"f851a440","balance(address)":"e3d670d7","closeLong()":"24f82526","closeShort()":"f8432a1b","currentPrice()":"9d1b464a","deposit(uint256)":"b6b55f25","fundingRateLong(address)":"adc8f5a4","fundingRateShort(address)":"1239921a","longProfits()":"374c8b40","longShares()":"f3d490f4","longTokens()":"6e4c3df3","longs(address)":"891de083","openLong(uint256,uint256)":"c181d418","openShort(uint256,uint256)":"1266a619","priceOracle()":"2630c12f","settlementToken()":"7b9e618d","shortProfits()":"4e088863","shortShares()":"a10e58aa","shortTokens()":"0f416ad4","shorts(address)":"7b05811e","withdraw(uint256)":"2e1a7d4d"},"id":29}