{"abi":[{"type":"constructor","inputs":[{"name":"_priceOracle","type":"address","internalType":"address"},{"name":"_settlementToken","type":"address","internalType":"address"}],"stateMutability":"nonpayable"},{"type":"function","name":"FUNDING_INTERVAL","inputs":[],"outputs":[{"name":"","type":"uint256","internalType":"uint256"}],"stateMutability":"view"},{"type":"function","name":"FUNDING_PERIODS","inputs":[],"outputs":[{"name":"","type":"uint256","internalType":"uint256"}],"stateMutability":"view"},{"type":"function","name":"MAX_LEVERAGE","inputs":[],"outputs":[{"name":"","type":"uint256","internalType":"uint256"}],"stateMutability":"view"},{"type":"function","name":"MIN_LEVERAGE","inputs":[],"outputs":[{"name":"","type":"uint256","internalType":"uint256"}],"stateMutability":"view"},{"type":"function","name":"MIN_MARGIN","inputs":[],"outputs":[{"name":"","type":"uint256","internalType":"uint256"}],"stateMutability":"view"},{"type":"function","name":"PRECISION","inputs":[],"outputs":[{"name":"","type":"uint256","internalType":"uint256"}],"stateMutability":"view"},{"type":"function","name":"addMargin","inputs":[{"name":"user","type":"address","internalType":"address"},{"name":"amount","type":"uint256","internalType":"uint256"},{"name":"direction","type":"uint8","internalType":"enum Parimutuel.Direction"}],"outputs":[],"stateMutability":"nonpayable"},{"type":"function","name":"admin","inputs":[],"outputs":[{"name":"","type":"address","internalType":"address"}],"stateMutability":"view"},{"type":"function","name":"balance","inputs":[{"name":"","type":"address","internalType":"address"}],"outputs":[{"name":"","type":"uint256","internalType":"uint256"}],"stateMutability":"view"},{"type":"function","name":"closePosition","inputs":[{"name":"direction","type":"uint8","internalType":"enum Parimutuel.Direction"}],"outputs":[],"stateMutability":"nonpayable"},{"type":"function","name":"currentPrice","inputs":[],"outputs":[{"name":"","type":"uint256","internalType":"uint256"}],"stateMutability":"view"},{"type":"function","name":"deposit","inputs":[{"name":"amount","type":"uint256","internalType":"uint256"}],"outputs":[],"stateMutability":"nonpayable"},{"type":"function","name":"fundingRate","inputs":[{"name":"user","type":"address","internalType":"address"},{"name":"direction","type":"uint8","internalType":"enum Parimutuel.Direction"}],"outputs":[],"stateMutability":"nonpayable"},{"type":"function","name":"liquidatePosition","inputs":[{"name":"user","type":"address","internalType":"address"},{"name":"direction","type":"uint8","internalType":"enum Parimutuel.Direction"}],"outputs":[],"stateMutability":"nonpayable"},{"type":"function","name":"longProfits","inputs":[],"outputs":[{"name":"","type":"uint256","internalType":"uint256"}],"stateMutability":"view"},{"type":"function","name":"longShares","inputs":[],"outputs":[{"name":"","type":"uint256","internalType":"uint256"}],"stateMutability":"view"},{"type":"function","name":"longTokens","inputs":[],"outputs":[{"name":"","type":"uint256","internalType":"uint256"}],"stateMutability":"view"},{"type":"function","name":"longs","inputs":[{"name":"","type":"address","internalType":"address"}],"outputs":[{"name":"active","type":"bool","internalType":"bool"},{"name":"margin","type":"uint256","internalType":"uint256"},{"name":"leverage","type":"uint256","internalType":"uint256"},{"name":"tokens","type":"uint256","internalType":"uint256"},{"name":"entry","type":"uint256","internalType":"uint256"},{"name":"liquidation","type":"uint256","internalType":"uint256"},{"name":"profit","type":"uint256","internalType":"uint256"},{"name":"shares","type":"uint256","internalType":"uint256"},{"name":"funding","type":"uint256","internalType":"uint256"}],"stateMutability":"view"},{"type":"function","name":"openPosition","inputs":[{"name":"margin","type":"uint256","internalType":"uint256"},{"name":"leverage","type":"uint256","internalType":"uint256"},{"name":"direction","type":"uint8","internalType":"enum Parimutuel.Direction"}],"outputs":[],"stateMutability":"nonpayable"},{"type":"function","name":"priceOracle","inputs":[],"outputs":[{"name":"","type":"address","internalType":"contract AggregatorV3Interface"}],"stateMutability":"view"},{"type":"function","name":"settlementToken","inputs":[],"outputs":[{"name":"","type":"address","internalType":"contract IERC20"}],"stateMutability":"view"},{"type":"function","name":"shortProfits","inputs":[],"outputs":[{"name":"","type":"uint256","internalType":"uint256"}],"stateMutability":"view"},{"type":"function","name":"shortShares","inputs":[],"outputs":[{"name":"","type":"uint256","internalType":"uint256"}],"stateMutability":"view"},{"type":"function","name":"shortTokens","inputs":[],"outputs":[{"name":"","type":"uint256","internalType":"uint256"}],"stateMutability":"view"},{"type":"function","name":"shorts","inputs":[{"name":"","type":"address","internalType":"address"}],"outputs":[{"name":"active","type":"bool","internalType":"bool"},{"name":"margin","type":"uint256","internalType":"uint256"},{"name":"leverage","type":"uint256","internalType":"uint256"},{"name":"tokens","type":"uint256","internalType":"uint256"},{"name":"entry","type":"uint256","internalType":"uint256"},{"name":"liquidation","type":"uint256","internalType":"uint256"},{"name":"profit","type":"uint256","internalType":"uint256"},{"name":"shares","type":"uint256","internalType":"uint256"},{"name":"funding","type":"uint256","internalType":"uint256"}],"stateMutability":"view"},{"type":"function","name":"withdraw","inputs":[{"name":"amount","type":"uint256","internalType":"uint256"}],"outputs":[],"stateMutability":"nonpayable"},{"type":"event","name":"Deposit","inputs":[{"name":"user","type":"address","indexed":true,"internalType":"address"},{"name":"amount","type":"uint256","indexed":false,"internalType":"uint256"}],"anonymous":false},{"type":"event","name":"FundingPaid","inputs":[{"name":"position","type":"tuple","indexed":true,"internalType":"struct Parimutuel.Position","components":[{"name":"active","type":"bool","internalType":"bool"},{"name":"margin","type":"uint256","internalType":"uint256"},{"name":"leverage","type":"uint256","internalType":"uint256"},{"name":"tokens","type":"uint256","internalType":"uint256"},{"name":"entry","type":"uint256","internalType":"uint256"},{"name":"liquidation","type":"uint256","internalType":"uint256"},{"name":"profit","type":"uint256","internalType":"uint256"},{"name":"shares","type":"uint256","internalType":"uint256"},{"name":"funding","type":"uint256","internalType":"uint256"}]},{"name":"direction","type":"uint8","indexed":false,"internalType":"enum Parimutuel.Direction"}],"anonymous":false},{"type":"event","name":"MarginAdded","inputs":[{"name":"position","type":"tuple","indexed":true,"internalType":"struct Parimutuel.Position","components":[{"name":"active","type":"bool","internalType":"bool"},{"name":"margin","type":"uint256","internalType":"uint256"},{"name":"leverage","type":"uint256","internalType":"uint256"},{"name":"tokens","type":"uint256","internalType":"uint256"},{"name":"entry","type":"uint256","internalType":"uint256"},{"name":"liquidation","type":"uint256","internalType":"uint256"},{"name":"profit","type":"uint256","internalType":"uint256"},{"name":"shares","type":"uint256","internalType":"uint256"},{"name":"funding","type":"uint256","internalType":"uint256"}]},{"name":"direction","type":"uint8","indexed":false,"internalType":"enum Parimutuel.Direction"}],"anonymous":false},{"type":"event","name":"OpenPosition","inputs":[{"name":"position","type":"tuple","indexed":true,"internalType":"struct Parimutuel.Position","components":[{"name":"active","type":"bool","internalType":"bool"},{"name":"margin","type":"uint256","internalType":"uint256"},{"name":"leverage","type":"uint256","internalType":"uint256"},{"name":"tokens","type":"uint256","internalType":"uint256"},{"name":"entry","type":"uint256","internalType":"uint256"},{"name":"liquidation","type":"uint256","internalType":"uint256"},{"name":"profit","type":"uint256","internalType":"uint256"},{"name":"shares","type":"uint256","internalType":"uint256"},{"name":"funding","type":"uint256","internalType":"uint256"}]},{"name":"direction","type":"uint8","indexed":false,"internalType":"enum Parimutuel.Direction"}],"anonymous":false},{"type":"event","name":"PositionClosedAtLoss","inputs":[{"name":"position","type":"tuple","indexed":true,"internalType":"struct Parimutuel.Position","components":[{"name":"active","type":"bool","internalType":"bool"},{"name":"margin","type":"uint256","internalType":"uint256"},{"name":"leverage","type":"uint256","internalType":"uint256"},{"name":"tokens","type":"uint256","internalType":"uint256"},{"name":"entry","type":"uint256","internalType":"uint256"},{"name":"liquidation","type":"uint256","internalType":"uint256"},{"name":"profit","type":"uint256","internalType":"uint256"},{"name":"shares","type":"uint256","internalType":"uint256"},{"name":"funding","type":"uint256","internalType":"uint256"}]},{"name":"direction","type":"uint8","indexed":false,"internalType":"enum Parimutuel.Direction"}],"anonymous":false},{"type":"event","name":"PositionClosedAtProfit","inputs":[{"name":"position","type":"tuple","indexed":true,"internalType":"struct Parimutuel.Position","components":[{"name":"active","type":"bool","internalType":"bool"},{"name":"margin","type":"uint256","internalType":"uint256"},{"name":"leverage","type":"uint256","internalType":"uint256"},{"name":"tokens","type":"uint256","internalType":"uint256"},{"name":"entry","type":"uint256","internalType":"uint256"},{"name":"liquidation","type":"uint256","internalType":"uint256"},{"name":"profit","type":"uint256","internalType":"uint256"},{"name":"shares","type":"uint256","internalType":"uint256"},{"name":"funding","type":"uint256","internalType":"uint256"}]},{"name":"direction","type":"uint8","indexed":false,"internalType":"enum Parimutuel.Direction"}],"anonymous":false},{"type":"event","name":"PositionLiquidated","inputs":[{"name":"position","type":"tuple","indexed":true,"internalType":"struct Parimutuel.Position","components":[{"name":"active","type":"bool","internalType":"bool"},{"name":"margin","type":"uint256","internalType":"uint256"},{"name":"leverage","type":"uint256","internalType":"uint256"},{"name":"tokens","type":"uint256","internalType":"uint256"},{"name":"entry","type":"uint256","internalType":"uint256"},{"name":"liquidation","type":"uint256","internalType":"uint256"},{"name":"profit","type":"uint256","internalType":"uint256"},{"name":"shares","type":"uint256","internalType":"uint256"},{"name":"funding","type":"uint256","internalType":"uint256"}]},{"name":"direction","type":"uint8","indexed":false,"internalType":"enum Parimutuel.Direction"}],"anonymous":false},{"type":"event","name":"Withdraw","inputs":[{"name":"user","type":"address","indexed":true,"internalType":"address"},{"name":"amount","type":"uint256","indexed":false,"internalType":"uint256"}],"anonymous":false},{"type":"error","name":"AmountMustBeGreaterThanZero","inputs":[]},{"type":"error","name":"FundingRateNotDue","inputs":[]},{"type":"error","name":"InsufficientBalance","inputs":[]},{"type":"error","name":"InsufficientMargin","inputs":[]},{"type":"error","name":"InvalidLeverage","inputs":[]},{"type":"error","name":"NoActivePosition","inputs":[{"name":"direction","type":"uint8","internalType":"enum Parimutuel.Direction"}]},{"type":"error","name":"NotCloseableAtLoss","inputs":[]},{"type":"error","name":"NotCloseableAtProfit","inputs":[]},{"type":"error","name":"NotLiquidatable","inputs":[]},{"type":"error","name":"TransferFailed","inputs":[]}],"bytecode":{"object":"0x60806040523480156200001157600080fd5b506040516200218a3803806200218a833981016040819052620000349162000093565b600180546001600160a01b039384166001600160a01b0319918216179091556002805492909316918116919091179091556000805490911633179055620000cb565b80516001600160a01b03811681146200008e57600080fd5b919050565b60008060408385031215620000a757600080fd5b620000b28362000076565b9150620000c26020840162000076565b90509250929050565b6120af80620000db6000396000f3fe608060405234801561001057600080fd5b506004361061018e5760003560e01c8063891de083116100de578063b6b55f2511610097578063e3d670d711610071578063e3d670d7146103d1578063eee8a16814610389578063f3d490f4146103f1578063f851a440146103fa57600080fd5b8063b6b55f2514610398578063c731e2ca146103ab578063da5b7980146103be57600080fd5b8063891de083146103005780639b45ec971461035d5780639d1b464a14610365578063a10e58aa1461036d578063a6b527fe14610376578063aaf5eb681461038957600080fd5b80634e0888631161014b5780635fbf81cc116101255780635fbf81cc1461022e5780636e4c3df3146102415780637b05811e1461024a5780637b9e618d146102ed57600080fd5b80634e0888631461020957806355efb287146102125780635e0c7f6f1461021b57600080fd5b80630f416ad4146101935780632630c12f146101af5780632e1a7d4d146101da57806334c1557d146101ef578063359002f8146101f7578063374c8b4014610200575b600080fd5b61019c60035481565b6040519081526020015b60405180910390f35b6001546101c2906001600160a01b031681565b6040516001600160a01b0390911681526020016101a6565b6101ed6101e8366004611dbb565b61040d565b005b61019c600181565b61019c6105b481565b61019c60065481565b61019c60055481565b61019c61546081565b6101ed610229366004611dfa565b610554565b6101ed61023c366004611e2d565b61076f565b61019c60045481565b6102a7610258366004611e62565b600a6020526000908152604090208054600182015460028301546003840154600485015460058601546006870154600788015460089098015460ff909716979596949593949293919290919089565b604080519915158a5260208a0198909852968801959095526060870193909352608086019190915260a085015260c084015260e0830152610100820152610120016101a6565b6002546101c2906001600160a01b031681565b6102a761030e366004611e62565b600b6020526000908152604090208054600182015460028301546003840154600485015460058601546006870154600788015460089098015460ff909716979596949593949293919290919089565b61019c606481565b61019c610c16565b61019c60075481565b6101ed610384366004611e84565b610ca8565b61019c670de0b6b3a764000081565b6101ed6103a6366004611dbb565b610de2565b6101ed6103b9366004611dfa565b610efc565b6101ed6103cc366004611e9f565b6113ea565b61019c6103df366004611e62565b60096020526000908152604090205481565b61019c60085481565b6000546101c2906001600160a01b031681565b33600090815260096020526040902054819081111561043f57604051631e9acf1760e31b815260040160405180910390fd5b8160000361046057604051635e85ae7360e01b815260040160405180910390fd5b336000908152600960205260408120805484929061047f908490611ee8565b909155505060025460405163a9059cbb60e01b8152336004820152602481018490526000916001600160a01b03169063a9059cbb906044016020604051808303816000875af11580156104d6573d6000803e3d6000fd5b505050506040513d601f19601f820116820180604052508101906104fa9190611f01565b90508061051a576040516312171d8360e31b815260040160405180910390fd5b60405183815233907f884edad9ce6fa2440d8a54cc123490eb96d2768479d49ff9c7366125a94243649060200160405180910390a2505050565b60008082600181111561056957610569611f23565b1461058b576001600160a01b0383166000908152600b602052604090206105a4565b6001600160a01b0383166000908152600a602052604090205b805490915060ff166105d4578160405163e7893f4b60e01b81526004016105cb9190611f39565b60405180910390fd5b60006105de610c16565b905060008360018111156105f4576105f4611f23565b1480156106045750816005015481105b8061062e5750600183600181111561061e5761061e611f23565b14801561062e5750816005015481115b1561064c57604051636ef5bcdd60e11b815260040160405180910390fd5b600083600181111561066057610660611f23565b036106bf5781600301546003600082825461067b9190611ee8565b925050819055508160070154600760008282546106989190611ee8565b90915550506001820154600680546000906106b4908490611f61565b909155506107139050565b8160030154600460008282546106d59190611ee8565b90915550506007820154600880546000906106f1908490611ee8565b909155505060018201546005805460009061070d908490611f61565b90915550505b816040516107219190611f74565b60405180910390207f20965486510529d8d33d10365a182b41a308677a602dff52a7926c1dda796a61846040516107589190611f39565b60405180910390a261076982611651565b50505050565b3360009081526009602052604090205483908111156107a157604051631e9acf1760e31b815260040160405180910390fd5b670de0b6b3a76400008410156107ca576040516341c092a960e01b815260040160405180910390fd5b60018310806107d95750606483115b156107f757604051633fe89cb960e11b815260040160405180910390fd5b3360009081526009602052604081208054869290610816908490611ee8565b90915550600090506108288486611fd6565b90506000610834610c16565b905060008085600181111561084b5761084b611f23565b1461087557606461085c8782611ee8565b6108669084611fd6565b6108709190611fed565b610895565b60646108818782611f61565b61088b9084611fd6565b6108959190611fed565b90506000808660018111156108ac576108ac611f23565b146108d65760646108bd8882611f61565b6108c79085611fd6565b6108d19190611fed565b6108f6565b60646108e28882611ee8565b6108ec9085611fd6565b6108f69190611fed565b905060008087600181111561090d5761090d611f23565b03610a4c576000600354116109335761092e670de0b6b3a764000086611fd6565b610952565b600354610948670de0b6b3a764000087611fd6565b6109529190611fed565b905080600760008282546109669190611f61565b92505081905550846003600082825461097f9190611f61565b925050819055506040518061012001604052806001151581526020018a8152602001898152602001868152602001858152602001848152602001838152602001828152602001615460426109d39190611f61565b9052336000908152600a60209081526040918290208351815460ff1916901515178155908301516001820155908201516002820155606082015160038201556080820151600482015560a0820151600582015560c0820151600682015560e0820151600782015561010090910151600890910155610b82565b600060045411610a6d57610a68670de0b6b3a764000086611fd6565b610a8c565b600454610a82670de0b6b3a764000087611fd6565b610a8c9190611fed565b90508060086000828254610aa09190611f61565b925050819055508460046000828254610ab99190611f61565b925050819055506040518061012001604052806001151581526020018a815260200189815260200186815260200185815260200184815260200183815260200182815260200161546042610b0d9190611f61565b9052336000908152600b60209081526040918290208351815460ff1916901515178155908301516001820155908201516002820155606082015160038201556080820151600482015560a0820151600582015560c0820151600682015560e08201516007820155610100909101516008909101555b6000876001811115610b9657610b96611f23565b14610baf57336000908152600b60205260409020610bbf565b336000908152600a602052604090205b604051610bcc9190611f74565b60405180910390207f8046b77d9c9d0db20a426631639fdcab9dd37fbca9c3146e20e25ab11103dae288604051610c039190611f39565b60405180910390a2505050505050505050565b600080600160009054906101000a90046001600160a01b03166001600160a01b031663feaf968c6040518163ffffffff1660e01b815260040160a060405180830381865afa158015610c6c573d6000803e3d6000fd5b505050506040513d601f19601f82011682018060405250810190610c909190612029565b5050509150506000811215610ca3575060005b919050565b600080826001811115610cbd57610cbd611f23565b14610cd657336000908152600b60205260409020610ce6565b336000908152600a602052604090205b805490915060ff16610d0d578160405163e7893f4b60e01b81526004016105cb9190611f39565b6000610d17610c16565b90506000836001811115610d2d57610d2d611f23565b148015610d3e575081600501548110155b80610d6957506001836001811115610d5857610d58611f23565b148015610d69575081600501548111155b15610d7d57610d783384610554565b505050565b6000836001811115610d9157610d91611f23565b148015610da15750816004015481115b80610dcb57506001836001811115610dbb57610dbb611f23565b148015610dcb5750816004015481105b15610dd957610d7883611694565b610d78836119ab565b80600003610e0357604051635e85ae7360e01b815260040160405180910390fd5b6002546040516323b872dd60e01b8152336004820152306024820152604481018390526000916001600160a01b0316906323b872dd906064016020604051808303816000875af1158015610e5b573d6000803e3d6000fd5b505050506040513d601f19601f82011682018060405250810190610e7f9190611f01565b905080610e9f576040516312171d8360e31b815260040160405180910390fd5b3360009081526009602052604081208054849290610ebe908490611f61565b909155505060405182815233907fe1fffcc4923d04b559f4d29a8bfc6cda04eb5b0d3c460751c2402c5c5cc9109c9060200160405180910390a25050565b600080826001811115610f1157610f11611f23565b14610f33576001600160a01b0383166000908152600b60205260409020610f4c565b6001600160a01b0383166000908152600a602052604090205b805490915060ff16610f73578160405163e7893f4b60e01b81526004016105cb9190611f39565b4281600801541115610f9857604051632df6a3e960e11b815260040160405180910390fd5b6000826001811115610fac57610fac611f23565b148015610fbd575060045460035411155b80610fe857506001826001811115610fd757610fd7611f23565b148015610fe8575060035460045411155b1561100d576154608160080160008282546110039190611f61565b9091555050505050565b600060045460035461101f9190611f61565b905060008160035460646110339190611fd6565b61103d9190611fed565b9050600061104c826064611ee8565b905060008086600181111561106357611063611f23565b14611084576105b46110758484611ee8565b61107f9190611fed565b61109b565b6105b46110918385611ee8565b61109b9190611fed565b9050600060648287600101546110b19190611fd6565b6110bb9190611fed565b9050856001015481106111ea5760008760018111156110dc576110dc611f23565b0361113b578560030154600360008282546110f79190611ee8565b925050819055508560070154600760008282546111149190611ee8565b9091555050600186015460068054600090611130908490611f61565b9091555061118f9050565b8560030154600460008282546111519190611ee8565b909155505060078601546008805460009061116d908490611ee8565b9091555050600186015460058054600090611189908490611f61565b90915550505b8560405161119d9190611f74565b60405180910390207f20965486510529d8d33d10365a182b41a308677a602dff52a7926c1dda796a61886040516111d49190611f39565b60405180910390a26111e586611651565b6113e0565b808660010160008282546111fe9190611ee8565b909155506000905087600181111561121857611218611f23565b0361123a57806006600082825461122f9190611f61565b909155506112529050565b806005600082825461124c9190611f61565b90915550505b8560010154670de0b6b3a7640000876003015461126f9190611fd6565b6112799190611fed565b6002870155600087600181111561129257611292611f23565b146112c8576064866002015460646112aa9190611ee8565b87600401546112b99190611fd6565b6112c39190611fed565b6112f4565b6064866002015460646112db9190611f61565b87600401546112ea9190611fd6565b6112f49190611fed565b6005870155600087600181111561130d5761130d611f23565b14611343576064866002015460646113259190611f61565b87600401546113349190611fd6565b61133e9190611fed565b61136f565b6064866002015460646113569190611ee8565b87600401546113659190611fd6565b61136f9190611fed565b866006018190555061546086600801600082825461138d9190611f61565b90915550506040516113a0908790611f74565b60405180910390207f7756baf00bdffc1bccffd9a90a9f64352e6606e03dc385ebefbb10f7aab69acd886040516113d79190611f39565b60405180910390a25b5050505050505050565b33600090815260096020526040902054829081111561141c57604051631e9acf1760e31b815260040160405180910390fd5b60008083600181111561143157611431611f23565b14611453576001600160a01b0385166000908152600b6020526040902061146c565b6001600160a01b0385166000908152600a602052604090205b805490915060ff16611493578260405163e7893f4b60e01b81526004016105cb9190611f39565b6001600160a01b038516600090815260096020526040812080548692906114bb908490611ee8565b92505081905550838160010160008282546114d69190611f61565b9091555050600181015460038201546114f890670de0b6b3a764000090611fd6565b6115029190611fed565b6002820155600083600181111561151b5761151b611f23565b14611551576064816002015460646115339190611f61565b82600401546115429190611fd6565b61154c9190611fed565b61157d565b6064816002015460646115649190611ee8565b82600401546115739190611fd6565b61157d9190611fed565b6006820155600083600181111561159657611596611f23565b146115cc576064816002015460646115ae9190611ee8565b82600401546115bd9190611fd6565b6115c79190611fed565b6115f8565b6064816002015460646115df9190611f61565b82600401546115ee9190611fd6565b6115f89190611fed565b600582015560405161160b908290611f74565b60405180910390207f33b3dca41d83b6d4691a7b1646689cfc431c8fa5ff5dc0a1bce0a7b27984d1ba846040516116429190611f39565b60405180910390a25050505050565b805460ff19168155600060018201819055600282018190556003820181905560048201819055600582018190556006820181905560078201819055600890910155565b6000808260018111156116a9576116a9611f23565b146116c257336000908152600b602052604090206116d2565b336000908152600a602052604090205b805490915060ff166116f9578160405163e7893f4b60e01b81526004016105cb9190611f39565b6000611703610c16565b9050600083600181111561171957611719611f23565b1480156117385750816004015481111580611738575081600501548110155b806117715750600183600181111561175257611752611f23565b1480156117715750816004015481101580611771575081600501548111155b1561178f576040516345f1258960e11b815260040160405180910390fd5b6000808460018111156117a4576117a4611f23565b146117ef57826005015483600401546117bd9190611ee8565b670de0b6b3a76400008385600401546117d69190611ee8565b6117e09190611fd6565b6117ea9190611fed565b611830565b826004015483600501546118039190611ee8565b670de0b6b3a764000084600401548461181c9190611ee8565b6118269190611fd6565b6118309190611fed565b90506000670de0b6b3a764000082856001015461184d9190611fd6565b6118579190611fed565b90508084600101546118699190611ee8565b3360009081526009602052604081208054909190611888908490611f61565b90915550600090508560018111156118a2576118a2611f23565b036118fe5780600660008282546118b99190611f61565b925050819055508360030154600360008282546118d69190611ee8565b925050819055508360070154600760008282546118f39190611ee8565b9091555061194e9050565b80600560008282546119109190611f61565b909155505060038401546004805460009061192c908490611ee8565b9091555050600784015460088054600090611948908490611ee8565b90915550505b8360405161195c9190611f74565b60405180910390207fe84a97c2c3b7891232df6d5950aae9f24d77380b07fbb63cec607e7eef783b20866040516119939190611f39565b60405180910390a26119a484611651565b5050505050565b6000808260018111156119c0576119c0611f23565b146119d957336000908152600b602052604090206119e9565b336000908152600a602052604090205b805490915060ff16611a10578160405163e7893f4b60e01b81526004016105cb9190611f39565b6000611a1a610c16565b90506000836001811115611a3057611a30611f23565b148015611a405750816004015481115b80611a6a57506001836001811115611a5a57611a5a611f23565b148015611a6a5750816004015481105b15611a885760405163ce63d92760e01b815260040160405180910390fd5b600080846001811115611a9d57611a9d611f23565b148015611aae575082600601548211155b80611ad957506001846001811115611ac857611ac8611f23565b148015611ad9575082600601548210155b15611b48576000846001811115611af257611af2611f23565b14611aff57600854611b03565b6007545b6000856001811115611b1757611b17611f23565b14611b2457600654611b28565b6005545b8460070154611b379190611fd6565b611b419190611fed565b9050611c70565b600080856001811115611b5d57611b5d611f23565b14611ba85783600401548460060154611b769190611ee8565b670de0b6b3a7640000856004015485611b8f9190611ee8565b611b999190611fd6565b611ba39190611fed565b611be9565b83600601548460040154611bbc9190611ee8565b670de0b6b3a7640000856006015485611bd59190611ee8565b611bdf9190611fd6565b611be99190611fed565b9050670de0b6b3a76400006000866001811115611c0857611c08611f23565b14611c1557600854611c19565b6007545b611c239190611fd6565b816000876001811115611c3857611c38611f23565b14611c4557600654611c49565b6005545b8660070154611c589190611fd6565b611c629190611fd6565b611c6c9190611fed565b9150505b808360010154611c809190611f61565b3360009081526009602052604081208054909190611c9f908490611f61565b9091555060009050846001811115611cb957611cb9611f23565b03611d15578060056000828254611cd09190611ee8565b92505081905550826003015460036000828254611ced9190611ee8565b92505081905550826007015460076000828254611d0a9190611ee8565b90915550611d659050565b8060066000828254611d279190611ee8565b9091555050600383015460048054600090611d43908490611ee8565b9091555050600783015460088054600090611d5f908490611ee8565b90915550505b82604051611d739190611f74565b60405180910390207f151310d65a6e661e37328da157dd7b99c21ec4f5d014e8348a1a0e93b967d39885604051611daa9190611f39565b60405180910390a261076983611651565b600060208284031215611dcd57600080fd5b5035919050565b80356001600160a01b0381168114610ca357600080fd5b803560028110610ca357600080fd5b60008060408385031215611e0d57600080fd5b611e1683611dd4565b9150611e2460208401611deb565b90509250929050565b600080600060608486031215611e4257600080fd5b8335925060208401359150611e5960408501611deb565b90509250925092565b600060208284031215611e7457600080fd5b611e7d82611dd4565b9392505050565b600060208284031215611e9657600080fd5b611e7d82611deb565b600080600060608486031215611eb457600080fd5b611ebd84611dd4565b925060208401359150611e5960408501611deb565b634e487b7160e01b600052601160045260246000fd5b81810381811115611efb57611efb611ed2565b92915050565b600060208284031215611f1357600080fd5b81518015158114611e7d57600080fd5b634e487b7160e01b600052602160045260246000fd5b6020810160028310611f5b57634e487b7160e01b600052602160045260246000fd5b91905290565b80820180821115611efb57611efb611ed2565b815460ff161515815260018201546020820152600282015460408201526003820154606082015260048201546080820152600582015460a0820152600682015460c0820152600782015460e08201526008909101546101008201526101200190565b8082028115828204841417611efb57611efb611ed2565b60008261200a57634e487b7160e01b600052601260045260246000fd5b500490565b805169ffffffffffffffffffff81168114610ca357600080fd5b600080600080600060a0868803121561204157600080fd5b61204a8661200f565b945060208601519350604086015192506060860151915061206d6080870161200f565b9050929550929590935056fea264697066735822122047482e59be4cbac1fdec1861448482ba999e46df0176520cc4767e543a4758eb64736f6c63430008140033","linkReferences":{}},"methodIdentifiers":{"FUNDING_INTERVAL()":"55efb287","FUNDING_PERIODS()":"359002f8","MAX_LEVERAGE()":"9b45ec97","MIN_LEVERAGE()":"34c1557d","MIN_MARGIN()":"eee8a168","PRECISION()":"aaf5eb68","addMargin(address,uint256,uint8)":"da5b7980","admin()":"f851a440","balance(address)":"e3d670d7","closePosition(uint8)":"a6b527fe","currentPrice()":"9d1b464a","deposit(uint256)":"b6b55f25","fundingRate(address,uint8)":"c731e2ca","liquidatePosition(address,uint8)":"5e0c7f6f","longProfits()":"374c8b40","longShares()":"f3d490f4","longTokens()":"6e4c3df3","longs(address)":"891de083","openPosition(uint256,uint256,uint8)":"5fbf81cc","priceOracle()":"2630c12f","settlementToken()":"7b9e618d","shortProfits()":"4e088863","shortShares()":"a10e58aa","shortTokens()":"0f416ad4","shorts(address)":"7b05811e","withdraw(uint256)":"2e1a7d4d"},"id":29}