{"abi":[{"type":"constructor","inputs":[{"name":"_priceOracle","type":"address","internalType":"address"},{"name":"_settlementToken","type":"address","internalType":"address"}],"stateMutability":"nonpayable"},{"type":"function","name":"FUNDING_INTERVAL","inputs":[],"outputs":[{"name":"","type":"uint256","internalType":"uint256"}],"stateMutability":"view"},{"type":"function","name":"FUNDING_PERIODS","inputs":[],"outputs":[{"name":"","type":"uint256","internalType":"uint256"}],"stateMutability":"view"},{"type":"function","name":"MAX_LEVERAGE","inputs":[],"outputs":[{"name":"","type":"uint256","internalType":"uint256"}],"stateMutability":"view"},{"type":"function","name":"MIN_LEVERAGE","inputs":[],"outputs":[{"name":"","type":"uint256","internalType":"uint256"}],"stateMutability":"view"},{"type":"function","name":"MIN_MARGIN","inputs":[],"outputs":[{"name":"","type":"uint256","internalType":"uint256"}],"stateMutability":"view"},{"type":"function","name":"PRECISION","inputs":[],"outputs":[{"name":"","type":"uint256","internalType":"uint256"}],"stateMutability":"view"},{"type":"function","name":"addMargin","inputs":[{"name":"amount","type":"uint256","internalType":"uint256"}],"outputs":[{"name":"","type":"tuple","internalType":"struct Parimutuel.Position","components":[{"name":"active","type":"bool","internalType":"bool"},{"name":"margin","type":"uint256","internalType":"uint256"},{"name":"leverage","type":"uint256","internalType":"uint256"},{"name":"tokens","type":"uint256","internalType":"uint256"},{"name":"entry","type":"uint256","internalType":"uint256"},{"name":"liquidation","type":"uint256","internalType":"uint256"},{"name":"profit","type":"uint256","internalType":"uint256"},{"name":"shares","type":"uint256","internalType":"uint256"},{"name":"funding","type":"uint256","internalType":"uint256"}]}],"stateMutability":"nonpayable"},{"type":"function","name":"balance","inputs":[{"name":"","type":"address","internalType":"address"}],"outputs":[{"name":"","type":"uint256","internalType":"uint256"}],"stateMutability":"view"},{"type":"function","name":"closeLong","inputs":[],"outputs":[],"stateMutability":"nonpayable"},{"type":"function","name":"closeShort","inputs":[],"outputs":[],"stateMutability":"nonpayable"},{"type":"function","name":"currentPrice","inputs":[],"outputs":[{"name":"","type":"uint256","internalType":"uint256"}],"stateMutability":"view"},{"type":"function","name":"faucet","inputs":[],"outputs":[],"stateMutability":"nonpayable"},{"type":"function","name":"fundingRate","inputs":[{"name":"account","type":"address","internalType":"address"}],"outputs":[],"stateMutability":"nonpayable"},{"type":"function","name":"liquidatePosition","inputs":[{"name":"account","type":"address","internalType":"address"}],"outputs":[{"name":"","type":"tuple","internalType":"struct Parimutuel.Position","components":[{"name":"active","type":"bool","internalType":"bool"},{"name":"margin","type":"uint256","internalType":"uint256"},{"name":"leverage","type":"uint256","internalType":"uint256"},{"name":"tokens","type":"uint256","internalType":"uint256"},{"name":"entry","type":"uint256","internalType":"uint256"},{"name":"liquidation","type":"uint256","internalType":"uint256"},{"name":"profit","type":"uint256","internalType":"uint256"},{"name":"shares","type":"uint256","internalType":"uint256"},{"name":"funding","type":"uint256","internalType":"uint256"}]}],"stateMutability":"nonpayable"},{"type":"function","name":"longProfits","inputs":[],"outputs":[{"name":"","type":"uint256","internalType":"uint256"}],"stateMutability":"view"},{"type":"function","name":"longShares","inputs":[],"outputs":[{"name":"","type":"uint256","internalType":"uint256"}],"stateMutability":"view"},{"type":"function","name":"longTokens","inputs":[],"outputs":[{"name":"","type":"uint256","internalType":"uint256"}],"stateMutability":"view"},{"type":"function","name":"longs","inputs":[{"name":"","type":"address","internalType":"address"}],"outputs":[{"name":"active","type":"bool","internalType":"bool"},{"name":"margin","type":"uint256","internalType":"uint256"},{"name":"leverage","type":"uint256","internalType":"uint256"},{"name":"tokens","type":"uint256","internalType":"uint256"},{"name":"entry","type":"uint256","internalType":"uint256"},{"name":"liquidation","type":"uint256","internalType":"uint256"},{"name":"profit","type":"uint256","internalType":"uint256"},{"name":"shares","type":"uint256","internalType":"uint256"},{"name":"funding","type":"uint256","internalType":"uint256"}],"stateMutability":"view"},{"type":"function","name":"openLong","inputs":[{"name":"_margin","type":"uint256","internalType":"uint256"},{"name":"_leverage","type":"uint256","internalType":"uint256"}],"outputs":[{"name":"","type":"tuple","internalType":"struct Parimutuel.Position","components":[{"name":"active","type":"bool","internalType":"bool"},{"name":"margin","type":"uint256","internalType":"uint256"},{"name":"leverage","type":"uint256","internalType":"uint256"},{"name":"tokens","type":"uint256","internalType":"uint256"},{"name":"entry","type":"uint256","internalType":"uint256"},{"name":"liquidation","type":"uint256","internalType":"uint256"},{"name":"profit","type":"uint256","internalType":"uint256"},{"name":"shares","type":"uint256","internalType":"uint256"},{"name":"funding","type":"uint256","internalType":"uint256"}]}],"stateMutability":"nonpayable"},{"type":"function","name":"openShort","inputs":[{"name":"_margin","type":"uint256","internalType":"uint256"},{"name":"_leverage","type":"uint256","internalType":"uint256"}],"outputs":[{"name":"","type":"tuple","internalType":"struct Parimutuel.Position","components":[{"name":"active","type":"bool","internalType":"bool"},{"name":"margin","type":"uint256","internalType":"uint256"},{"name":"leverage","type":"uint256","internalType":"uint256"},{"name":"tokens","type":"uint256","internalType":"uint256"},{"name":"entry","type":"uint256","internalType":"uint256"},{"name":"liquidation","type":"uint256","internalType":"uint256"},{"name":"profit","type":"uint256","internalType":"uint256"},{"name":"shares","type":"uint256","internalType":"uint256"},{"name":"funding","type":"uint256","internalType":"uint256"}]}],"stateMutability":"nonpayable"},{"type":"function","name":"shortProfits","inputs":[],"outputs":[{"name":"","type":"uint256","internalType":"uint256"}],"stateMutability":"view"},{"type":"function","name":"shortShares","inputs":[],"outputs":[{"name":"","type":"uint256","internalType":"uint256"}],"stateMutability":"view"},{"type":"function","name":"shortTokens","inputs":[],"outputs":[{"name":"","type":"uint256","internalType":"uint256"}],"stateMutability":"view"},{"type":"function","name":"shorts","inputs":[{"name":"","type":"address","internalType":"address"}],"outputs":[{"name":"active","type":"bool","internalType":"bool"},{"name":"margin","type":"uint256","internalType":"uint256"},{"name":"leverage","type":"uint256","internalType":"uint256"},{"name":"tokens","type":"uint256","internalType":"uint256"},{"name":"entry","type":"uint256","internalType":"uint256"},{"name":"liquidation","type":"uint256","internalType":"uint256"},{"name":"profit","type":"uint256","internalType":"uint256"},{"name":"shares","type":"uint256","internalType":"uint256"},{"name":"funding","type":"uint256","internalType":"uint256"}],"stateMutability":"view"},{"type":"event","name":"ClosedLoss","inputs":[{"name":"position","type":"tuple","indexed":true,"internalType":"struct Parimutuel.Position","components":[{"name":"active","type":"bool","internalType":"bool"},{"name":"margin","type":"uint256","internalType":"uint256"},{"name":"leverage","type":"uint256","internalType":"uint256"},{"name":"tokens","type":"uint256","internalType":"uint256"},{"name":"entry","type":"uint256","internalType":"uint256"},{"name":"liquidation","type":"uint256","internalType":"uint256"},{"name":"profit","type":"uint256","internalType":"uint256"},{"name":"shares","type":"uint256","internalType":"uint256"},{"name":"funding","type":"uint256","internalType":"uint256"}]}],"anonymous":false},{"type":"event","name":"ClosedProfit","inputs":[{"name":"position","type":"tuple","indexed":true,"internalType":"struct Parimutuel.Position","components":[{"name":"active","type":"bool","internalType":"bool"},{"name":"margin","type":"uint256","internalType":"uint256"},{"name":"leverage","type":"uint256","internalType":"uint256"},{"name":"tokens","type":"uint256","internalType":"uint256"},{"name":"entry","type":"uint256","internalType":"uint256"},{"name":"liquidation","type":"uint256","internalType":"uint256"},{"name":"profit","type":"uint256","internalType":"uint256"},{"name":"shares","type":"uint256","internalType":"uint256"},{"name":"funding","type":"uint256","internalType":"uint256"}]}],"anonymous":false},{"type":"event","name":"FundingPaid","inputs":[{"name":"position","type":"tuple","indexed":true,"internalType":"struct Parimutuel.Position","components":[{"name":"active","type":"bool","internalType":"bool"},{"name":"margin","type":"uint256","internalType":"uint256"},{"name":"leverage","type":"uint256","internalType":"uint256"},{"name":"tokens","type":"uint256","internalType":"uint256"},{"name":"entry","type":"uint256","internalType":"uint256"},{"name":"liquidation","type":"uint256","internalType":"uint256"},{"name":"profit","type":"uint256","internalType":"uint256"},{"name":"shares","type":"uint256","internalType":"uint256"},{"name":"funding","type":"uint256","internalType":"uint256"}]}],"anonymous":false},{"type":"event","name":"Liquidated","inputs":[{"name":"position","type":"tuple","indexed":true,"internalType":"struct Parimutuel.Position","components":[{"name":"active","type":"bool","internalType":"bool"},{"name":"margin","type":"uint256","internalType":"uint256"},{"name":"leverage","type":"uint256","internalType":"uint256"},{"name":"tokens","type":"uint256","internalType":"uint256"},{"name":"entry","type":"uint256","internalType":"uint256"},{"name":"liquidation","type":"uint256","internalType":"uint256"},{"name":"profit","type":"uint256","internalType":"uint256"},{"name":"shares","type":"uint256","internalType":"uint256"},{"name":"funding","type":"uint256","internalType":"uint256"}]}],"anonymous":false},{"type":"event","name":"MarginAdded","inputs":[{"name":"position","type":"tuple","indexed":true,"internalType":"struct Parimutuel.Position","components":[{"name":"active","type":"bool","internalType":"bool"},{"name":"margin","type":"uint256","internalType":"uint256"},{"name":"leverage","type":"uint256","internalType":"uint256"},{"name":"tokens","type":"uint256","internalType":"uint256"},{"name":"entry","type":"uint256","internalType":"uint256"},{"name":"liquidation","type":"uint256","internalType":"uint256"},{"name":"profit","type":"uint256","internalType":"uint256"},{"name":"shares","type":"uint256","internalType":"uint256"},{"name":"funding","type":"uint256","internalType":"uint256"}]}],"anonymous":false},{"type":"event","name":"Opened","inputs":[{"name":"position","type":"tuple","indexed":true,"internalType":"struct Parimutuel.Position","components":[{"name":"active","type":"bool","internalType":"bool"},{"name":"margin","type":"uint256","internalType":"uint256"},{"name":"leverage","type":"uint256","internalType":"uint256"},{"name":"tokens","type":"uint256","internalType":"uint256"},{"name":"entry","type":"uint256","internalType":"uint256"},{"name":"liquidation","type":"uint256","internalType":"uint256"},{"name":"profit","type":"uint256","internalType":"uint256"},{"name":"shares","type":"uint256","internalType":"uint256"},{"name":"funding","type":"uint256","internalType":"uint256"}]}],"anonymous":false},{"type":"error","name":"DepositFailed","inputs":[]},{"type":"error","name":"FundingNotDue","inputs":[]},{"type":"error","name":"LeverageNotAllowed","inputs":[]},{"type":"error","name":"LongAlreadyOpen","inputs":[]},{"type":"error","name":"NoOpenPosition","inputs":[]},{"type":"error","name":"NotEnoughFunds","inputs":[]},{"type":"error","name":"NotLiquidatable","inputs":[]},{"type":"error","name":"ShortAlreadyOpen","inputs":[]},{"type":"error","name":"WithdrawalFailed","inputs":[]}],"bytecode":{"object":"0x60806040523480156200001157600080fd5b50604051620033463803806200334683398101604081905262000034916200008e565b600080546001600160a01b03199081163317909155600180546001600160a01b0394851690831617905560028054929093169116179055620000c6565b80516001600160a01b03811681146200008957600080fd5b919050565b60008060408385031215620000a257600080fd5b620000ad8362000071565b9150620000bd6020840162000071565b90509250929050565b61327080620000d66000396000f3fe608060405234801561001057600080fd5b50600436106101585760003560e01c8063891de083116100c3578063c181d4181161007c578063c181d4181461039b578063de5f72fd146103ae578063e3d670d7146103b6578063eee8a1681461038c578063f3d490f4146103d6578063f8432a1b146103df57600080fd5b8063891de083146103035780639b45ec97146103605780639d1b464a14610368578063a10e58aa14610370578063a43be94814610379578063aaf5eb681461038c57600080fd5b80634e088863116101155780634e0888631461021f57806355efb287146102285780635cfdcc0d146102315780636e4c3df3146102445780637498a0f01461024d5780637b05811e1461026057600080fd5b80630f416ad41461015d5780631266a6191461017957806324f82526146101fb57806334c1557d14610205578063359002f81461020d578063374c8b4014610216575b600080fd5b61016660035481565b6040519081526020015b60405180910390f35b61018c610187366004613028565b6103e7565b60405161017091906000610120820190508251151582526020830151602083015260408301516040830152606083015160608301526080830151608083015260a083015160a083015260c083015160c083015260e083015160e083015261010080840151818401525092915050565b6102036107c8565b005b610166600181565b6101666105b481565b61016660065481565b61016660055481565b61016661546081565b61020361023f36600461304a565b61087c565b61016660045481565b61018c61025b36600461304a565b610901565b6102bd61026e36600461304a565b600a6020526000908152604090208054600182015460028301546003840154600485015460058601546006870154600788015460089098015460ff909716979596949593949293919290919089565b604080519915158a5260208a0198909852968801959095526060870193909352608086019190915260a085015260c084015260e083015261010082015261012001610170565b6102bd61031136600461304a565b600b6020526000908152604090208054600182015460028301546003840154600485015460058601546006870154600788015460089098015460ff909716979596949593949293919290919089565b610166606481565b610166610d2f565b61016660075481565b61018c61038736600461307a565b610dc0565b610166670de0b6b3a764000081565b61018c6103a9366004613028565b611124565b61020361141f565b6101666103c436600461304a565b60096020526000908152604090205481565b61016660085481565b610203611459565b6103ef612fda565b33600090815260096020526040902054839081111561042157604051631036b5ad60e31b815260040160405180910390fd5b670de0b6b3a764000081101561044a57604051631036b5ad60e31b815260040160405180910390fd5b60018310806104595750606483115b156104775760405163e2df714d60e01b815260040160405180910390fd5b336000908152600a602052604090205460ff1615156001036104ac576040516310c525e560e01b815260040160405180910390fd5b60006104b884866130a9565b90506000816003546104ca91906130c6565b90506000816104e1670de0b6b3a7640000856130a9565b6104eb91906130d9565b90506000670de0b6b3a7640000610502838a6130a9565b61050c91906130d9565b9050600061051a828a6130fb565b90506000610526610d2f565b905060006105348a836130d9565b61053e90836130c6565b9050600061054c8b846130d9565b61055690846130fb565b905060006007546105738a60035461056e91906130c6565b611509565b61057d91906130fb565b9050600061058d615460426130c6565b90508d60096000336001600160a01b03166001600160a01b0316815260200190815260200160002060008282546105c491906130fb565b9250508190555089600360008282546105dd91906130c6565b9250508190555081600760008282546105f691906130c6565b925050819055506040518061012001604052806001151581526020018781526020018e81526020018b815260200186815260200185815260200184815260200183815260200182815250600a6000336001600160a01b03166001600160a01b0316815260200190815260200160002060008201518160000160006101000a81548160ff0219169083151502179055506020820151816001015560408201518160020155606082015181600301556080820151816004015560a0820151816005015560c0820151816006015560e082015181600701556101008201518160080155905050600a6000336001600160a01b03166001600160a01b0316815260200190815260200160002060405161070b919061310e565b604051908190038120907f3c000242231ba5bd32dcaf4cff7832aefe9f41741596329379afce47f271cf7990600090a25050336000908152600a6020908152604091829020825161012081018452815460ff16151581526001820154928101929092526002810154928201929092526003820154606082015260048201546080820152600582015460a0820152600682015460c0820152600782015460e08201526008909101546101008201529c9b505050505050505050505050565b336000908152600b602052604081205460ff16151590036107fc5760405163556729af60e01b815260040160405180910390fd5b6000610806610d2f565b336000908152600b6020526040902060050154909150811161082f5761082b33610901565b5050565b336000908152600b602052604090206004015481111561087357336000908152600b6020526040902060060154811061086a5761082b611578565b61082b816117e2565b61082b81611aae565b6001600160a01b0381166000908152600a602052604090205460ff16151560011480156108ac5750600454600354115b156108ba5761082b81611d06565b6001600160a01b0381166000908152600b602052604090205460ff16151560011480156108ea5750600354600454115b156108f85761082b816121a5565b61082b81612648565b610909612fda565b6001600160a01b0382166000908152600a602052604090205460ff161515600103610b0c57336000908152600a6020526040902060050154610949610d2f565b101561096857604051636ef5bcdd60e11b815260040160405180910390fd5b6001600160a01b0382166000908152600a602052604081206001015460068054919290916109979084906130c6565b90915550506001600160a01b0382166000908152600a6020526040812060039081015481549092906109ca9084906130fb565b90915550506001600160a01b0382166000908152600a6020526040812060079081015481549092906109fd9084906130fb565b90915550506001600160a01b0382166000908152600a6020526040808220805460ff1916815560018101839055600281018390556003810183905560048101839055600581018390556006810183905560078101839055600881019290925551610a67919061310e565b6040519081900381209060008051602061321b83398151915290600090a2506001600160a01b03166000908152600a6020908152604091829020825161012081018452815460ff16151581526001820154928101929092526002810154928201929092526003820154606082015260048201546080820152600582015460a0820152600682015460c0820152600782015460e082015260089091015461010082015290565b6001600160a01b0382166000908152600b602052604090205460ff161515600103610d1157336000908152600b6020526040902060050154610b4c610d2f565b1115610b6b57604051636ef5bcdd60e11b815260040160405180910390fd5b6001600160a01b0382166000908152600b60205260408120600101546005805491929091610b9a9084906130c6565b90915550506001600160a01b0382166000908152600b60205260408120600301546004805491929091610bce9084906130fb565b90915550506001600160a01b0382166000908152600b60205260408120600701546008805491929091610c029084906130fb565b90915550506001600160a01b0382166000908152600b6020526040808220805460ff1916815560018101839055600281018390556003810183905560048101839055600581018390556006810183905560078101839055600881019290925551610c6c919061310e565b6040519081900381209060008051602061321b83398151915290600090a2506001600160a01b03166000908152600b6020908152604091829020825161012081018452815460ff16151581526001820154928101929092526002810154928201929092526003820154606082015260048201546080820152600582015460a0820152600682015460c0820152600782015460e082015260089091015461010082015290565b60405163556729af60e01b815260040160405180910390fd5b919050565b600080600160009054906101000a90046001600160a01b03166001600160a01b031663feaf968c6040518163ffffffff1660e01b815260040160a060405180830381865afa158015610d85573d6000803e3d6000fd5b505050506040513d601f19601f82011682018060405250810190610da9919061318a565b5050509150506000811215610d2a57506000919050565b610dc8612fda565b336000908152600a602052604090205460ff161515600103610f7657336000908152600a602052604081206004810154600190910154909190610e0c9085906130c6565b336000908152600a602052604081206003015491925090610e2e9083906130d9565b90506000610e3c82856130d9565b610e4690856130c6565b90506000610e5483866130d9565b610e5e90866130fb565b33600090815260096020526040812080549293508992909190610e829084906130fb565b9091555050336000908152600a602052604090819020600181018690556002810185905560058101849055600681018390559051610ec0919061310e565b604051908190038120907fdd6fc88be520ca6552caa248af17ba2a40ac9ae8e18ed0404d2e00bc47b8bf0c90600090a25050336000908152600a6020908152604091829020825161012081018452815460ff16151581526001820154928101929092526002810154928201929092526003820154606082015260048201546080820152600582015460a0820152600682015460c0820152600782015460e082015260089091015461010082015295945050505050565b336000908152600b602052604090205460ff161515600103610d1157336000908152600b602052604081206004810154600190910154909190610fba9085906130c6565b336000908152600b602052604081206003015491925090610fdc9083906130d9565b90506000610fea82856130d9565b610ff490856130fb565b9050600061100283866130d9565b61100c90866130c6565b336000908152600960205260408120805492935089929091906110309084906130fb565b9091555050336000908152600b60205260409081902060018101869055600281018590556005810184905560068101839055905161106e919061310e565b604051908190038120907fdd6fc88be520ca6552caa248af17ba2a40ac9ae8e18ed0404d2e00bc47b8bf0c90600090a25050336000908152600b6020908152604091829020825161012081018452815460ff16151581526001820154928101929092526002810154928201929092526003820154606082015260048201546080820152600582015460a0820152600682015460c0820152600782015460e082015260089091015461010082015295945050505050565b61112c612fda565b33600090815260096020526040902054839081111561115e57604051631036b5ad60e31b815260040160405180910390fd5b670de0b6b3a764000081101561118757604051631036b5ad60e31b815260040160405180910390fd5b60018310806111965750606483115b156111b45760405163e2df714d60e01b815260040160405180910390fd5b336000908152600b602052604090205460ff1615156001036111e85760405162b0745d60e61b815260040160405180910390fd5b60006111f2610d2f565b9050600061120085836130d9565b61120a90836130fb565b9050600061121886846130d9565b61122290846130c6565b9050600061123087896130a9565b905060006008546112488360045461056e91906130c6565b61125291906130fb565b90506000611262615460426130c6565b33600090815260096020526040812080549293508c929091906112869084906130fb565b92505081905550826004600082825461129f91906130c6565b9250508190555081600860008282546112b891906130c6565b90915550506040805161012081018252600180825260208083018e81528385018e815260608501898152608086018d815260a087018d815260c088018d815260e089018c81526101008a018c8152336000908152600b909952978b902099518a5460ff1916901515178a55955197890197909755925160028801559051600387015551600486015551600585015591516006840155905160078301555160088201559051611366919061310e565b604051908190038120907f3c000242231ba5bd32dcaf4cff7832aefe9f41741596329379afce47f271cf7990600090a25050336000908152600b6020908152604091829020825161012081018452815460ff16151581526001820154928101929092526002810154928201929092526003820154606082015260048201546080820152600582015460a0820152600682015460c0820152600782015460e082015260089091015461010082015298975050505050505050565b611433670de0b6b3a76400006103e86130a9565b33600090815260096020526040812080549091906114529084906130c6565b9091555050565b336000908152600a602052604081205460ff161515900361148d5760405163556729af60e01b815260040160405180910390fd5b6000611497610d2f565b336000908152600a602052604090206005015490915081106114bc5761082b33610901565b336000908152600a602052604090206004015481101561150057336000908152600a602052604090206006015481116114f75761082b612856565b61082b81612abc565b61082b81612d85565b6000600382111561156a57508060006115236002836130d9565b61152e9060016130c6565b90505b818110156115645790508060028161154981866130d9565b61155391906130c6565b61155d91906130d9565b9050611531565b50919050565b8115610d2a57506001919050565b611580612fda565b600854336000908152600b60205260408120600701549091906115ac90670de0b6b3a7640000906130a9565b6115b691906130d9565b90506000670de0b6b3a7640000826006546115d191906130a9565b6115db91906130d9565b905060006103e86115ee836103e36130a9565b6115f891906130d9565b9050600061160682846130fb565b9050826006600082825461161a91906130fb565b9091555050336000908152600b602052604081206003015460048054919290916116459084906130fb565b9091555050336000908152600b602052604081206007015460088054919290916116709084906130fb565b9091555050336000908152600b60205260409020600101546116939083906130c6565b33600090815260096020526040812080549091906116b29084906130c6565b9091555050600080546001600160a01b0316815260096020526040812080548392906116df9084906130c6565b9091555050336000908152600b6020526040808220805460ff1916815560018101839055600281018390556003810183905560048101839055600581018390556006810183905560078101839055600881019290925551611740919061310e565b604051908190038120906000805160206131db83398151915290600090a25050336000908152600b6020908152604091829020825161012081018452815460ff16151581526001820154928101929092526002810154928201929092526003820154606082015260048201546080820152600582015460a0820152600682015460c0820152600782015460e08201526008909101546101008201529392505050565b6117ea612fda565b336000908152600b60205260408120600401549061180882856130fb565b336000908152600b60205260408120600601549192509061182a9084906130fb565b336000908152600b602052604081206007015491925090829061184e9085906130a9565b61185891906130d9565b90506000600854670de0b6b3a76400008361187391906130a9565b61187d91906130d9565b90506000670de0b6b3a76400008260065461189891906130a9565b6118a291906130d9565b905060006103e86118b5836103e36130a9565b6118bf91906130d9565b905060006118cd82846130fb565b905082600660008282546118e191906130fb565b9091555050336000908152600b6020526040812060030154600480549192909161190c9084906130fb565b9091555050336000908152600b602052604081206007015460088054919290916119379084906130fb565b9091555050336000908152600b602052604090206001015461195a9083906130c6565b33600090815260096020526040812080549091906119799084906130c6565b9091555050600080546001600160a01b0316815260096020526040812080548392906119a69084906130c6565b9091555050336000908152600b6020526040808220805460ff1916815560018101839055600281018390556003810183905560048101839055600581018390556006810183905560078101839055600881019290925551611a07919061310e565b604051908190038120906000805160206131db83398151915290600090a25050336000908152600b6020908152604091829020825161012081018452815460ff16151581526001820154928101929092526002810154928201929092526003820154606082015260048201546080820152600582015460a0820152600682015460c0820152600782015460e082015260089091015461010082015298975050505050505050565b611ab6612fda565b336000908152600b602052604081206005015490611ad482856130fb565b336000908152600b602052604081206004015491925090611af69084906130fb565b336000908152600b6020526040812060010154919250908290611b1a9085906130a9565b611b2491906130d9565b336000908152600b6020526040812060010180549293508392909190611b4b9084906130fb565b90915550503360009081526009602052604081208054839290611b6f9084906130c6565b9091555050336000908152600b60205260408120600101546005805491929091611b9a9084906130c6565b9091555050336000908152600b60205260408120600301546004805491929091611bc59084906130fb565b9091555050336000908152600b60205260408120600701546008805491929091611bf09084906130fb565b9091555050336000908152600b6020526040808220805460ff1916815560018101839055600281018390556003810183905560048101839055600581018390556006810183905560078101839055600881019290925551611c51919061310e565b604051908190038120907f23fd2102c1bbbd0ca1c4ddd98cda3b2449df5305c9339a666881ab6a2edc2bef90600090a25050336000908152600b6020908152604091829020825161012081018452815460ff16151581526001820154928101929092526002810154928201929092526003820154606082015260048201546080820152600582015460a0820152600682015460c0820152600782015460e0820152600890910154610100820152949350505050565b611d0e612fda565b6001600160a01b0382166000908152600a6020526040902060080154421015611d4a57604051630cd5719b60e21b815260040160405180910390fd5b60045460035460009190611d66670de0b6b3a7640000826130a9565b611d7091906130d9565b611d7a91906130c6565b600354600454919250600091611d98670de0b6b3a7640000826130a9565b611da291906130d9565b611dac91906130c6565b905060006105b4611dc5670de0b6b3a7640000846130a9565b611dcf91906130d9565b611dd990846130fb565b600380546001600160a01b0388166000908152600a60205260408120909201549293509091611e099084906130a9565b611e1391906130d9565b6001600160a01b0387166000908152600a60205260409020600101549091508110611fe3576001600160a01b0386166000908152600a60205260408120600101546006805491929091611e679084906130c6565b90915550506001600160a01b0386166000908152600a602052604081206003908101548154909290611e9a9084906130fb565b90915550506001600160a01b0386166000908152600a602052604081206007908101548154909290611ecd9084906130fb565b90915550506001600160a01b0386166000908152600a6020526040808220805460ff1916815560018101839055600281018390556003810183905560048101839055600581018390556006810183905560078101839055600881019290925551611f37919061310e565b6040519081900381209060008051602061321b83398151915290600090a25050506001600160a01b039092166000908152600a6020908152604091829020825161012081018452815460ff16151581526001820154928101929092526002810154928201929092526003820154606082015260048201546080820152600582015460a0820152600682015460c0820152600782015460e082015260089091015461010082015292915050565b6001600160a01b0386166000908152600a6020526040812060048101546001909101549091906120149084906130fb565b6001600160a01b0389166000908152600a60205260408120600301549192509061203f9083906130d9565b9050600061204d82856130d9565b61205790856130c6565b9050600061206583866130d9565b61206f90866130fb565b9050856006600082825461208391906130c6565b90915550506001600160a01b038b166000908152600a602052604090206001810185905560028101849055600581018390556006018190556120c7615460426130c6565b6001600160a01b038c166000908152600a6020526040908190206008810192909255516120f4919061310e565b604051908190038120906000805160206131fb83398151915290600090a25050506001600160a01b039097166000908152600a6020908152604091829020825161012081018452815460ff16151581526001820154928101929092526002810154928201929092526003820154606082015260048201546080820152600582015460a0820152600682015460c0820152600782015460e0820152600890910154610100820152979650505050505050565b6121ad612fda565b6001600160a01b0382166000908152600b60205260409020600801544210156121e957604051630cd5719b60e21b815260040160405180910390fd5b60035460045460009190612205670de0b6b3a7640000826130a9565b61220f91906130d9565b61221991906130c6565b600454600354919250600091612237670de0b6b3a7640000826130a9565b61224191906130d9565b61224b91906130c6565b905060006105b4612264670de0b6b3a7640000846130a9565b61226e91906130d9565b61227890846130fb565b6004546001600160a01b0387166000908152600b6020526040812060030154929350916122a69084906130a9565b6122b091906130d9565b6001600160a01b0387166000908152600b60205260409020600101549091508110612482576001600160a01b0386166000908152600b602052604081206001015460058054919290916123049084906130c6565b90915550506001600160a01b0386166000908152600b602052604081206003015460048054919290916123389084906130fb565b90915550506001600160a01b0386166000908152600b6020526040812060070154600880549192909161236c9084906130fb565b90915550506001600160a01b0386166000908152600b6020526040808220805460ff19168155600181018390556002810183905560038101839055600481018390556005810183905560068101839055600781018390556008810192909255516123d6919061310e565b6040519081900381209060008051602061321b83398151915290600090a25050506001600160a01b039092166000908152600b6020908152604091829020825161012081018452815460ff16151581526001820154928101929092526002810154928201929092526003820154606082015260048201546080820152600582015460a0820152600682015460c0820152600782015460e082015260089091015461010082015292915050565b6001600160a01b0386166000908152600b602052604080822060040154338352908220600101549091906124b79084906130fb565b6001600160a01b0389166000908152600b6020526040812060030154919250906124e29083906130d9565b905060006124f082856130d9565b6124fa90856130fb565b9050600061250883866130d9565b61251290866130c6565b9050856005600082825461252691906130c6565b90915550506001600160a01b038b166000908152600b6020526040902060018101859055600281018490556005810183905560060181905561256a615460426130c6565b6001600160a01b038c166000908152600b602052604090819020600881019290925551612597919061310e565b604051908190038120906000805160206131fb83398151915290600090a25050506001600160a01b039097166000908152600b6020908152604091829020825161012081018452815460ff16151581526001820154928101929092526002810154928201929092526003820154606082015260048201546080820152600582015460a0820152600682015460c0820152600782015460e0820152600890910154610100820152979650505050505050565b612650612fda565b6001600160a01b0382166000908152600a602052604090205460ff16151560010361275357612681615460426130c6565b6001600160a01b0383166000908152600a6020526040908190206008810192909255516126ae919061310e565b604051908190038120906000805160206131fb83398151915290600090a2506001600160a01b03166000908152600a6020908152604091829020825161012081018452815460ff16151581526001820154928101929092526002810154928201929092526003820154606082015260048201546080820152600582015460a0820152600682015460c0820152600782015460e082015260089091015461010082015290565b6001600160a01b0382166000908152600b602052604090205460ff161515600103610d1157612784615460426130c6565b6001600160a01b0383166000908152600b6020526040908190206008810192909255516127b1919061310e565b604051908190038120906000805160206131fb83398151915290600090a2506001600160a01b03166000908152600b6020908152604091829020825161012081018452815460ff16151581526001820154928101929092526002810154928201929092526003820154606082015260048201546080820152600582015460a0820152600682015460c0820152600782015460e082015260089091015461010082015290565b61285e612fda565b60078054336000908152600a602052604081209092015461288890670de0b6b3a7640000906130a9565b61289291906130d9565b90506000670de0b6b3a7640000826005546128ad91906130a9565b6128b791906130d9565b905060006103e86128ca836103e36130a9565b6128d491906130d9565b905060006128e282846130fb565b905082600560008282546128f691906130fb565b9091555050336000908152600a6020526040812060039081015481549092906129209084906130fb565b9091555050336000908152600a60205260408120600790810154815490929061294a9084906130fb565b9091555050336000908152600a602052604090206001015461296d9083906130c6565b336000908152600960205260408120805490919061298c9084906130c6565b9091555050600080546001600160a01b0316815260096020526040812080548392906129b99084906130c6565b9091555050336000908152600a6020526040808220805460ff1916815560018101839055600281018390556003810183905560048101839055600581018390556006810183905560078101839055600881019290925551612a1a919061310e565b604051908190038120906000805160206131db83398151915290600090a25050336000908152600a6020908152604091829020825161012081018452815460ff16151581526001820154928101929092526002810154928201929092526003820154606082015260048201546080820152600582015460a0820152600682015460c0820152600782015460e08201526008909101546101008201529392505050565b612ac4612fda565b336000908152600a602052604081206004015490612ae284836130fb565b336000908152600a602052604081206006015491925090612b0390846130fb565b336000908152600a6020526040812060070154919250908290612b279085906130a9565b612b3191906130d9565b90506000600754670de0b6b3a764000083612b4c91906130a9565b612b5691906130d9565b90506000670de0b6b3a764000082600554612b7191906130a9565b612b7b91906130d9565b905060006103e8612b8e836103e36130a9565b612b9891906130d9565b90506000612ba682846130fb565b90508260056000828254612bba91906130fb565b9091555050336000908152600a602052604081206003908101548154909290612be49084906130fb565b9091555050336000908152600a602052604081206007908101548154909290612c0e9084906130fb565b9091555050336000908152600a6020526040902060010154612c319083906130c6565b3360009081526009602052604081208054909190612c509084906130c6565b9091555050600080546001600160a01b031681526009602052604081208054839290612c7d9084906130c6565b9091555050336000908152600a6020526040808220805460ff1916815560018101839055600281018390556003810183905560048101839055600581018390556006810183905560078101839055600881019290925551612cde919061310e565b604051908190038120906000805160206131db83398151915290600090a25050336000908152600a6020908152604091829020825161012081018452815460ff16151581526001820154928101929092526002810154928201929092526003820154606082015260048201546080820152600582015460a0820152600682015460c0820152600782015460e082015260089091015461010082015298975050505050505050565b612d8d612fda565b336000908152600a602052604081206005015490612dab84836130fb565b336000908152600a602052604081206004015491925090612dcc90846130fb565b336000908152600a6020526040812060010154919250908290612df09085906130a9565b612dfa91906130d9565b336000908152600a6020526040812060010180549293508392909190612e219084906130fb565b90915550503360009081526009602052604081208054839290612e459084906130c6565b9091555050336000908152600a60205260408120600101546006805491929091612e709084906130c6565b9091555050336000908152600a602052604081206003908101548154909290612e9a9084906130fb565b9091555050336000908152600a602052604081206007908101548154909290612ec49084906130fb565b9091555050336000908152600a6020526040808220805460ff1916815560018101839055600281018390556003810183905560048101839055600581018390556006810183905560078101839055600881019290925551612f25919061310e565b604051908190038120907f23fd2102c1bbbd0ca1c4ddd98cda3b2449df5305c9339a666881ab6a2edc2bef90600090a25050336000908152600a6020908152604091829020825161012081018452815460ff16151581526001820154928101929092526002810154928201929092526003820154606082015260048201546080820152600582015460a0820152600682015460c0820152600782015460e0820152600890910154610100820152949350505050565b60405180610120016040528060001515815260200160008152602001600081526020016000815260200160008152602001600081526020016000815260200160008152602001600081525090565b6000806040838503121561303b57600080fd5b50508035926020909101359150565b60006020828403121561305c57600080fd5b81356001600160a01b038116811461307357600080fd5b9392505050565b60006020828403121561308c57600080fd5b5035919050565b634e487b7160e01b600052601160045260246000fd5b80820281158282048414176130c0576130c0613093565b92915050565b808201808211156130c0576130c0613093565b6000826130f657634e487b7160e01b600052601260045260246000fd5b500490565b818103818111156130c0576130c0613093565b815460ff161515815260018201546020820152600282015460408201526003820154606082015260048201546080820152600582015460a0820152600682015460c0820152600782015460e08201526008909101546101008201526101200190565b805169ffffffffffffffffffff81168114610d2a57600080fd5b600080600080600060a086880312156131a257600080fd5b6131ab86613170565b94506020860151935060408601519250606086015191506131ce60808701613170565b9050929550929590935056fe2a7da4d1d4ed89894834b635afde77412d87d71ec6bc558fbfdc3b06f150bc5d18b4b3411678ad49608137af800c238268a01375afaec2894672364e464d86fa8574b4cd5a89ae8aa28cd16eaf4f321e5ba1b6ee363df53c07805186172fa2aba264697066735822122071261fe053ff30e62c3b04d7d5b570efd3c04152310451ae07da5096e4cd14bd64736f6c63430008140033","linkReferences":{}},"methodIdentifiers":{"FUNDING_INTERVAL()":"55efb287","FUNDING_PERIODS()":"359002f8","MAX_LEVERAGE()":"9b45ec97","MIN_LEVERAGE()":"34c1557d","MIN_MARGIN()":"eee8a168","PRECISION()":"aaf5eb68","addMargin(uint256)":"a43be948","balance(address)":"e3d670d7","closeLong()":"24f82526","closeShort()":"f8432a1b","currentPrice()":"9d1b464a","faucet()":"de5f72fd","fundingRate(address)":"5cfdcc0d","liquidatePosition(address)":"7498a0f0","longProfits()":"374c8b40","longShares()":"f3d490f4","longTokens()":"6e4c3df3","longs(address)":"891de083","openLong(uint256,uint256)":"c181d418","openShort(uint256,uint256)":"1266a619","shortProfits()":"4e088863","shortShares()":"a10e58aa","shortTokens()":"0f416ad4","shorts(address)":"7b05811e"},"id":7}