{"abi":[{"type":"constructor","inputs":[{"name":"_priceOracle","type":"address","internalType":"address"},{"name":"_settlementToken","type":"address","internalType":"address"}],"stateMutability":"nonpayable"},{"type":"function","name":"FUNDING_INTERVAL","inputs":[],"outputs":[{"name":"","type":"uint256","internalType":"uint256"}],"stateMutability":"view"},{"type":"function","name":"FUNDING_PERIODS","inputs":[],"outputs":[{"name":"","type":"uint256","internalType":"uint256"}],"stateMutability":"view"},{"type":"function","name":"MAX_LEVERAGE","inputs":[],"outputs":[{"name":"","type":"uint256","internalType":"uint256"}],"stateMutability":"view"},{"type":"function","name":"MIN_LEVERAGE","inputs":[],"outputs":[{"name":"","type":"uint256","internalType":"uint256"}],"stateMutability":"view"},{"type":"function","name":"MIN_MARGIN","inputs":[],"outputs":[{"name":"","type":"uint256","internalType":"uint256"}],"stateMutability":"view"},{"type":"function","name":"PRECISION","inputs":[],"outputs":[{"name":"","type":"uint256","internalType":"uint256"}],"stateMutability":"view"},{"type":"function","name":"addMarginLong","inputs":[{"name":"user","type":"address","internalType":"address"},{"name":"amount","type":"uint256","internalType":"uint256"}],"outputs":[{"name":"","type":"tuple","internalType":"struct Parimutuel.Position","components":[{"name":"active","type":"bool","internalType":"bool"},{"name":"margin","type":"uint256","internalType":"uint256"},{"name":"leverage","type":"uint256","internalType":"uint256"},{"name":"tokens","type":"uint256","internalType":"uint256"},{"name":"entry","type":"uint256","internalType":"uint256"},{"name":"liquidation","type":"uint256","internalType":"uint256"},{"name":"profit","type":"uint256","internalType":"uint256"},{"name":"shares","type":"uint256","internalType":"uint256"},{"name":"funding","type":"uint256","internalType":"uint256"}]}],"stateMutability":"nonpayable"},{"type":"function","name":"addMarginShort","inputs":[{"name":"user","type":"address","internalType":"address"},{"name":"amount","type":"uint256","internalType":"uint256"}],"outputs":[{"name":"","type":"tuple","internalType":"struct Parimutuel.Position","components":[{"name":"active","type":"bool","internalType":"bool"},{"name":"margin","type":"uint256","internalType":"uint256"},{"name":"leverage","type":"uint256","internalType":"uint256"},{"name":"tokens","type":"uint256","internalType":"uint256"},{"name":"entry","type":"uint256","internalType":"uint256"},{"name":"liquidation","type":"uint256","internalType":"uint256"},{"name":"profit","type":"uint256","internalType":"uint256"},{"name":"shares","type":"uint256","internalType":"uint256"},{"name":"funding","type":"uint256","internalType":"uint256"}]}],"stateMutability":"nonpayable"},{"type":"function","name":"admin","inputs":[],"outputs":[{"name":"","type":"address","internalType":"address"}],"stateMutability":"view"},{"type":"function","name":"balance","inputs":[{"name":"","type":"address","internalType":"address"}],"outputs":[{"name":"","type":"uint256","internalType":"uint256"}],"stateMutability":"view"},{"type":"function","name":"closeLong","inputs":[],"outputs":[{"name":"","type":"tuple","internalType":"struct Parimutuel.Position","components":[{"name":"active","type":"bool","internalType":"bool"},{"name":"margin","type":"uint256","internalType":"uint256"},{"name":"leverage","type":"uint256","internalType":"uint256"},{"name":"tokens","type":"uint256","internalType":"uint256"},{"name":"entry","type":"uint256","internalType":"uint256"},{"name":"liquidation","type":"uint256","internalType":"uint256"},{"name":"profit","type":"uint256","internalType":"uint256"},{"name":"shares","type":"uint256","internalType":"uint256"},{"name":"funding","type":"uint256","internalType":"uint256"}]}],"stateMutability":"nonpayable"},{"type":"function","name":"closeLongLoss","inputs":[],"outputs":[{"name":"","type":"tuple","internalType":"struct Parimutuel.Position","components":[{"name":"active","type":"bool","internalType":"bool"},{"name":"margin","type":"uint256","internalType":"uint256"},{"name":"leverage","type":"uint256","internalType":"uint256"},{"name":"tokens","type":"uint256","internalType":"uint256"},{"name":"entry","type":"uint256","internalType":"uint256"},{"name":"liquidation","type":"uint256","internalType":"uint256"},{"name":"profit","type":"uint256","internalType":"uint256"},{"name":"shares","type":"uint256","internalType":"uint256"},{"name":"funding","type":"uint256","internalType":"uint256"}]}],"stateMutability":"nonpayable"},{"type":"function","name":"closeLongProfit","inputs":[],"outputs":[{"name":"","type":"tuple","internalType":"struct Parimutuel.Position","components":[{"name":"active","type":"bool","internalType":"bool"},{"name":"margin","type":"uint256","internalType":"uint256"},{"name":"leverage","type":"uint256","internalType":"uint256"},{"name":"tokens","type":"uint256","internalType":"uint256"},{"name":"entry","type":"uint256","internalType":"uint256"},{"name":"liquidation","type":"uint256","internalType":"uint256"},{"name":"profit","type":"uint256","internalType":"uint256"},{"name":"shares","type":"uint256","internalType":"uint256"},{"name":"funding","type":"uint256","internalType":"uint256"}]}],"stateMutability":"nonpayable"},{"type":"function","name":"closeShort","inputs":[],"outputs":[{"name":"","type":"tuple","internalType":"struct Parimutuel.Position","components":[{"name":"active","type":"bool","internalType":"bool"},{"name":"margin","type":"uint256","internalType":"uint256"},{"name":"leverage","type":"uint256","internalType":"uint256"},{"name":"tokens","type":"uint256","internalType":"uint256"},{"name":"entry","type":"uint256","internalType":"uint256"},{"name":"liquidation","type":"uint256","internalType":"uint256"},{"name":"profit","type":"uint256","internalType":"uint256"},{"name":"shares","type":"uint256","internalType":"uint256"},{"name":"funding","type":"uint256","internalType":"uint256"}]}],"stateMutability":"nonpayable"},{"type":"function","name":"closeShortLoss","inputs":[],"outputs":[{"name":"","type":"tuple","internalType":"struct Parimutuel.Position","components":[{"name":"active","type":"bool","internalType":"bool"},{"name":"margin","type":"uint256","internalType":"uint256"},{"name":"leverage","type":"uint256","internalType":"uint256"},{"name":"tokens","type":"uint256","internalType":"uint256"},{"name":"entry","type":"uint256","internalType":"uint256"},{"name":"liquidation","type":"uint256","internalType":"uint256"},{"name":"profit","type":"uint256","internalType":"uint256"},{"name":"shares","type":"uint256","internalType":"uint256"},{"name":"funding","type":"uint256","internalType":"uint256"}]}],"stateMutability":"nonpayable"},{"type":"function","name":"closeShortProfit","inputs":[],"outputs":[{"name":"","type":"tuple","internalType":"struct Parimutuel.Position","components":[{"name":"active","type":"bool","internalType":"bool"},{"name":"margin","type":"uint256","internalType":"uint256"},{"name":"leverage","type":"uint256","internalType":"uint256"},{"name":"tokens","type":"uint256","internalType":"uint256"},{"name":"entry","type":"uint256","internalType":"uint256"},{"name":"liquidation","type":"uint256","internalType":"uint256"},{"name":"profit","type":"uint256","internalType":"uint256"},{"name":"shares","type":"uint256","internalType":"uint256"},{"name":"funding","type":"uint256","internalType":"uint256"}]}],"stateMutability":"nonpayable"},{"type":"function","name":"currentPrice","inputs":[],"outputs":[{"name":"","type":"uint256","internalType":"uint256"}],"stateMutability":"view"},{"type":"function","name":"deposit","inputs":[{"name":"amount","type":"uint256","internalType":"uint256"}],"outputs":[],"stateMutability":"nonpayable"},{"type":"function","name":"fundingRateLong","inputs":[{"name":"user","type":"address","internalType":"address"}],"outputs":[{"name":"","type":"tuple","internalType":"struct Parimutuel.Position","components":[{"name":"active","type":"bool","internalType":"bool"},{"name":"margin","type":"uint256","internalType":"uint256"},{"name":"leverage","type":"uint256","internalType":"uint256"},{"name":"tokens","type":"uint256","internalType":"uint256"},{"name":"entry","type":"uint256","internalType":"uint256"},{"name":"liquidation","type":"uint256","internalType":"uint256"},{"name":"profit","type":"uint256","internalType":"uint256"},{"name":"shares","type":"uint256","internalType":"uint256"},{"name":"funding","type":"uint256","internalType":"uint256"}]}],"stateMutability":"nonpayable"},{"type":"function","name":"fundingRateShort","inputs":[{"name":"user","type":"address","internalType":"address"}],"outputs":[{"name":"","type":"tuple","internalType":"struct Parimutuel.Position","components":[{"name":"active","type":"bool","internalType":"bool"},{"name":"margin","type":"uint256","internalType":"uint256"},{"name":"leverage","type":"uint256","internalType":"uint256"},{"name":"tokens","type":"uint256","internalType":"uint256"},{"name":"entry","type":"uint256","internalType":"uint256"},{"name":"liquidation","type":"uint256","internalType":"uint256"},{"name":"profit","type":"uint256","internalType":"uint256"},{"name":"shares","type":"uint256","internalType":"uint256"},{"name":"funding","type":"uint256","internalType":"uint256"}]}],"stateMutability":"nonpayable"},{"type":"function","name":"liquidateLong","inputs":[{"name":"user","type":"address","internalType":"address"}],"outputs":[{"name":"","type":"tuple","internalType":"struct Parimutuel.Position","components":[{"name":"active","type":"bool","internalType":"bool"},{"name":"margin","type":"uint256","internalType":"uint256"},{"name":"leverage","type":"uint256","internalType":"uint256"},{"name":"tokens","type":"uint256","internalType":"uint256"},{"name":"entry","type":"uint256","internalType":"uint256"},{"name":"liquidation","type":"uint256","internalType":"uint256"},{"name":"profit","type":"uint256","internalType":"uint256"},{"name":"shares","type":"uint256","internalType":"uint256"},{"name":"funding","type":"uint256","internalType":"uint256"}]}],"stateMutability":"nonpayable"},{"type":"function","name":"liquidateShort","inputs":[{"name":"user","type":"address","internalType":"address"}],"outputs":[{"name":"","type":"tuple","internalType":"struct Parimutuel.Position","components":[{"name":"active","type":"bool","internalType":"bool"},{"name":"margin","type":"uint256","internalType":"uint256"},{"name":"leverage","type":"uint256","internalType":"uint256"},{"name":"tokens","type":"uint256","internalType":"uint256"},{"name":"entry","type":"uint256","internalType":"uint256"},{"name":"liquidation","type":"uint256","internalType":"uint256"},{"name":"profit","type":"uint256","internalType":"uint256"},{"name":"shares","type":"uint256","internalType":"uint256"},{"name":"funding","type":"uint256","internalType":"uint256"}]}],"stateMutability":"nonpayable"},{"type":"function","name":"longProfits","inputs":[],"outputs":[{"name":"","type":"uint256","internalType":"uint256"}],"stateMutability":"view"},{"type":"function","name":"longShares","inputs":[],"outputs":[{"name":"","type":"uint256","internalType":"uint256"}],"stateMutability":"view"},{"type":"function","name":"longTokens","inputs":[],"outputs":[{"name":"","type":"uint256","internalType":"uint256"}],"stateMutability":"view"},{"type":"function","name":"longs","inputs":[{"name":"","type":"address","internalType":"address"}],"outputs":[{"name":"active","type":"bool","internalType":"bool"},{"name":"margin","type":"uint256","internalType":"uint256"},{"name":"leverage","type":"uint256","internalType":"uint256"},{"name":"tokens","type":"uint256","internalType":"uint256"},{"name":"entry","type":"uint256","internalType":"uint256"},{"name":"liquidation","type":"uint256","internalType":"uint256"},{"name":"profit","type":"uint256","internalType":"uint256"},{"name":"shares","type":"uint256","internalType":"uint256"},{"name":"funding","type":"uint256","internalType":"uint256"}],"stateMutability":"view"},{"type":"function","name":"openLong","inputs":[{"name":"margin","type":"uint256","internalType":"uint256"},{"name":"leverage","type":"uint256","internalType":"uint256"}],"outputs":[{"name":"","type":"tuple","internalType":"struct Parimutuel.Position","components":[{"name":"active","type":"bool","internalType":"bool"},{"name":"margin","type":"uint256","internalType":"uint256"},{"name":"leverage","type":"uint256","internalType":"uint256"},{"name":"tokens","type":"uint256","internalType":"uint256"},{"name":"entry","type":"uint256","internalType":"uint256"},{"name":"liquidation","type":"uint256","internalType":"uint256"},{"name":"profit","type":"uint256","internalType":"uint256"},{"name":"shares","type":"uint256","internalType":"uint256"},{"name":"funding","type":"uint256","internalType":"uint256"}]}],"stateMutability":"nonpayable"},{"type":"function","name":"openShort","inputs":[{"name":"margin","type":"uint256","internalType":"uint256"},{"name":"leverage","type":"uint256","internalType":"uint256"}],"outputs":[{"name":"","type":"tuple","internalType":"struct Parimutuel.Position","components":[{"name":"active","type":"bool","internalType":"bool"},{"name":"margin","type":"uint256","internalType":"uint256"},{"name":"leverage","type":"uint256","internalType":"uint256"},{"name":"tokens","type":"uint256","internalType":"uint256"},{"name":"entry","type":"uint256","internalType":"uint256"},{"name":"liquidation","type":"uint256","internalType":"uint256"},{"name":"profit","type":"uint256","internalType":"uint256"},{"name":"shares","type":"uint256","internalType":"uint256"},{"name":"funding","type":"uint256","internalType":"uint256"}]}],"stateMutability":"nonpayable"},{"type":"function","name":"priceOracle","inputs":[],"outputs":[{"name":"","type":"address","internalType":"contract AggregatorV3Interface"}],"stateMutability":"view"},{"type":"function","name":"settlementToken","inputs":[],"outputs":[{"name":"","type":"address","internalType":"contract IERC20"}],"stateMutability":"view"},{"type":"function","name":"shortProfits","inputs":[],"outputs":[{"name":"","type":"uint256","internalType":"uint256"}],"stateMutability":"view"},{"type":"function","name":"shortShares","inputs":[],"outputs":[{"name":"","type":"uint256","internalType":"uint256"}],"stateMutability":"view"},{"type":"function","name":"shortTokens","inputs":[],"outputs":[{"name":"","type":"uint256","internalType":"uint256"}],"stateMutability":"view"},{"type":"function","name":"shorts","inputs":[{"name":"","type":"address","internalType":"address"}],"outputs":[{"name":"active","type":"bool","internalType":"bool"},{"name":"margin","type":"uint256","internalType":"uint256"},{"name":"leverage","type":"uint256","internalType":"uint256"},{"name":"tokens","type":"uint256","internalType":"uint256"},{"name":"entry","type":"uint256","internalType":"uint256"},{"name":"liquidation","type":"uint256","internalType":"uint256"},{"name":"profit","type":"uint256","internalType":"uint256"},{"name":"shares","type":"uint256","internalType":"uint256"},{"name":"funding","type":"uint256","internalType":"uint256"}],"stateMutability":"view"},{"type":"function","name":"withdraw","inputs":[{"name":"amount","type":"uint256","internalType":"uint256"}],"outputs":[],"stateMutability":"nonpayable"},{"type":"event","name":"Deposit","inputs":[{"name":"user","type":"address","indexed":true,"internalType":"address"},{"name":"amount","type":"uint256","indexed":false,"internalType":"uint256"}],"anonymous":false},{"type":"event","name":"LongClosedAtLoss","inputs":[{"name":"short","type":"tuple","indexed":true,"internalType":"struct Parimutuel.Position","components":[{"name":"active","type":"bool","internalType":"bool"},{"name":"margin","type":"uint256","internalType":"uint256"},{"name":"leverage","type":"uint256","internalType":"uint256"},{"name":"tokens","type":"uint256","internalType":"uint256"},{"name":"entry","type":"uint256","internalType":"uint256"},{"name":"liquidation","type":"uint256","internalType":"uint256"},{"name":"profit","type":"uint256","internalType":"uint256"},{"name":"shares","type":"uint256","internalType":"uint256"},{"name":"funding","type":"uint256","internalType":"uint256"}]}],"anonymous":false},{"type":"event","name":"LongClosedAtProfit","inputs":[{"name":"short","type":"tuple","indexed":true,"internalType":"struct Parimutuel.Position","components":[{"name":"active","type":"bool","internalType":"bool"},{"name":"margin","type":"uint256","internalType":"uint256"},{"name":"leverage","type":"uint256","internalType":"uint256"},{"name":"tokens","type":"uint256","internalType":"uint256"},{"name":"entry","type":"uint256","internalType":"uint256"},{"name":"liquidation","type":"uint256","internalType":"uint256"},{"name":"profit","type":"uint256","internalType":"uint256"},{"name":"shares","type":"uint256","internalType":"uint256"},{"name":"funding","type":"uint256","internalType":"uint256"}]}],"anonymous":false},{"type":"event","name":"LongFundingPaid","inputs":[{"name":"long","type":"tuple","indexed":true,"internalType":"struct Parimutuel.Position","components":[{"name":"active","type":"bool","internalType":"bool"},{"name":"margin","type":"uint256","internalType":"uint256"},{"name":"leverage","type":"uint256","internalType":"uint256"},{"name":"tokens","type":"uint256","internalType":"uint256"},{"name":"entry","type":"uint256","internalType":"uint256"},{"name":"liquidation","type":"uint256","internalType":"uint256"},{"name":"profit","type":"uint256","internalType":"uint256"},{"name":"shares","type":"uint256","internalType":"uint256"},{"name":"funding","type":"uint256","internalType":"uint256"}]}],"anonymous":false},{"type":"event","name":"LongLiquidated","inputs":[{"name":"short","type":"tuple","indexed":true,"internalType":"struct Parimutuel.Position","components":[{"name":"active","type":"bool","internalType":"bool"},{"name":"margin","type":"uint256","internalType":"uint256"},{"name":"leverage","type":"uint256","internalType":"uint256"},{"name":"tokens","type":"uint256","internalType":"uint256"},{"name":"entry","type":"uint256","internalType":"uint256"},{"name":"liquidation","type":"uint256","internalType":"uint256"},{"name":"profit","type":"uint256","internalType":"uint256"},{"name":"shares","type":"uint256","internalType":"uint256"},{"name":"funding","type":"uint256","internalType":"uint256"}]}],"anonymous":false},{"type":"event","name":"MarginAddedLong","inputs":[{"name":"short","type":"tuple","indexed":true,"internalType":"struct Parimutuel.Position","components":[{"name":"active","type":"bool","internalType":"bool"},{"name":"margin","type":"uint256","internalType":"uint256"},{"name":"leverage","type":"uint256","internalType":"uint256"},{"name":"tokens","type":"uint256","internalType":"uint256"},{"name":"entry","type":"uint256","internalType":"uint256"},{"name":"liquidation","type":"uint256","internalType":"uint256"},{"name":"profit","type":"uint256","internalType":"uint256"},{"name":"shares","type":"uint256","internalType":"uint256"},{"name":"funding","type":"uint256","internalType":"uint256"}]}],"anonymous":false},{"type":"event","name":"MarginAddedShort","inputs":[{"name":"short","type":"tuple","indexed":true,"internalType":"struct Parimutuel.Position","components":[{"name":"active","type":"bool","internalType":"bool"},{"name":"margin","type":"uint256","internalType":"uint256"},{"name":"leverage","type":"uint256","internalType":"uint256"},{"name":"tokens","type":"uint256","internalType":"uint256"},{"name":"entry","type":"uint256","internalType":"uint256"},{"name":"liquidation","type":"uint256","internalType":"uint256"},{"name":"profit","type":"uint256","internalType":"uint256"},{"name":"shares","type":"uint256","internalType":"uint256"},{"name":"funding","type":"uint256","internalType":"uint256"}]}],"anonymous":false},{"type":"event","name":"OpenLong","inputs":[{"name":"short","type":"tuple","indexed":true,"internalType":"struct Parimutuel.Position","components":[{"name":"active","type":"bool","internalType":"bool"},{"name":"margin","type":"uint256","internalType":"uint256"},{"name":"leverage","type":"uint256","internalType":"uint256"},{"name":"tokens","type":"uint256","internalType":"uint256"},{"name":"entry","type":"uint256","internalType":"uint256"},{"name":"liquidation","type":"uint256","internalType":"uint256"},{"name":"profit","type":"uint256","internalType":"uint256"},{"name":"shares","type":"uint256","internalType":"uint256"},{"name":"funding","type":"uint256","internalType":"uint256"}]}],"anonymous":false},{"type":"event","name":"OpenShort","inputs":[{"name":"short","type":"tuple","indexed":true,"internalType":"struct Parimutuel.Position","components":[{"name":"active","type":"bool","internalType":"bool"},{"name":"margin","type":"uint256","internalType":"uint256"},{"name":"leverage","type":"uint256","internalType":"uint256"},{"name":"tokens","type":"uint256","internalType":"uint256"},{"name":"entry","type":"uint256","internalType":"uint256"},{"name":"liquidation","type":"uint256","internalType":"uint256"},{"name":"profit","type":"uint256","internalType":"uint256"},{"name":"shares","type":"uint256","internalType":"uint256"},{"name":"funding","type":"uint256","internalType":"uint256"}]}],"anonymous":false},{"type":"event","name":"ShortClosedAtLoss","inputs":[{"name":"short","type":"tuple","indexed":true,"internalType":"struct Parimutuel.Position","components":[{"name":"active","type":"bool","internalType":"bool"},{"name":"margin","type":"uint256","internalType":"uint256"},{"name":"leverage","type":"uint256","internalType":"uint256"},{"name":"tokens","type":"uint256","internalType":"uint256"},{"name":"entry","type":"uint256","internalType":"uint256"},{"name":"liquidation","type":"uint256","internalType":"uint256"},{"name":"profit","type":"uint256","internalType":"uint256"},{"name":"shares","type":"uint256","internalType":"uint256"},{"name":"funding","type":"uint256","internalType":"uint256"}]}],"anonymous":false},{"type":"event","name":"ShortClosedAtProfit","inputs":[{"name":"short","type":"tuple","indexed":true,"internalType":"struct Parimutuel.Position","components":[{"name":"active","type":"bool","internalType":"bool"},{"name":"margin","type":"uint256","internalType":"uint256"},{"name":"leverage","type":"uint256","internalType":"uint256"},{"name":"tokens","type":"uint256","internalType":"uint256"},{"name":"entry","type":"uint256","internalType":"uint256"},{"name":"liquidation","type":"uint256","internalType":"uint256"},{"name":"profit","type":"uint256","internalType":"uint256"},{"name":"shares","type":"uint256","internalType":"uint256"},{"name":"funding","type":"uint256","internalType":"uint256"}]}],"anonymous":false},{"type":"event","name":"ShortFundingPaid","inputs":[{"name":"short","type":"tuple","indexed":true,"internalType":"struct Parimutuel.Position","components":[{"name":"active","type":"bool","internalType":"bool"},{"name":"margin","type":"uint256","internalType":"uint256"},{"name":"leverage","type":"uint256","internalType":"uint256"},{"name":"tokens","type":"uint256","internalType":"uint256"},{"name":"entry","type":"uint256","internalType":"uint256"},{"name":"liquidation","type":"uint256","internalType":"uint256"},{"name":"profit","type":"uint256","internalType":"uint256"},{"name":"shares","type":"uint256","internalType":"uint256"},{"name":"funding","type":"uint256","internalType":"uint256"}]}],"anonymous":false},{"type":"event","name":"ShortLiquidated","inputs":[{"name":"short","type":"tuple","indexed":true,"internalType":"struct Parimutuel.Position","components":[{"name":"active","type":"bool","internalType":"bool"},{"name":"margin","type":"uint256","internalType":"uint256"},{"name":"leverage","type":"uint256","internalType":"uint256"},{"name":"tokens","type":"uint256","internalType":"uint256"},{"name":"entry","type":"uint256","internalType":"uint256"},{"name":"liquidation","type":"uint256","internalType":"uint256"},{"name":"profit","type":"uint256","internalType":"uint256"},{"name":"shares","type":"uint256","internalType":"uint256"},{"name":"funding","type":"uint256","internalType":"uint256"}]}],"anonymous":false},{"type":"event","name":"Withdraw","inputs":[{"name":"user","type":"address","indexed":true,"internalType":"address"},{"name":"amount","type":"uint256","indexed":false,"internalType":"uint256"}],"anonymous":false},{"type":"error","name":"AmountMustBeGreaterThanZero","inputs":[]},{"type":"error","name":"FundingRateNotDue","inputs":[]},{"type":"error","name":"InsufficientBalance","inputs":[]},{"type":"error","name":"InsufficientMargin","inputs":[]},{"type":"error","name":"InvalidLeverage","inputs":[]},{"type":"error","name":"NoActiveLong","inputs":[]},{"type":"error","name":"NoActiveShort","inputs":[]},{"type":"error","name":"NotCloseableAtLoss","inputs":[]},{"type":"error","name":"NotCloseableAtProfit","inputs":[]},{"type":"error","name":"NotLiquidatable","inputs":[]},{"type":"error","name":"TransferFailed","inputs":[]}],"bytecode":{"object":"0x60806040523480156200001157600080fd5b5060405162002f0738038062002f07833981016040819052620000349162000093565b600180546001600160a01b039384166001600160a01b0319918216179091556002805492909316918116919091179091556000805490911633179055620000cb565b80516001600160a01b03811681146200008e57600080fd5b919050565b60008060408385031215620000a757600080fd5b620000b28362000076565b9150620000c26020840162000076565b90509250929050565b612e2c80620000db6000396000f3fe608060405234801561001057600080fd5b50600436106102115760003560e01c80637b05811e11610125578063adc8f5a4116100ad578063e3d670d71161007c578063e3d670d714610524578063eee8a168146104d4578063f3d490f414610544578063f8432a1b1461054d578063f851a4401461055557600080fd5b8063adc8f5a4146104e3578063b6b55f25146104f6578063c181d41814610509578063da2262f51461051c57600080fd5b80639b45ec97116100f45780639b45ec97146104a85780639d0f8240146104b05780639d1b464a146104c3578063a10e58aa146104cb578063aaf5eb68146104d457600080fd5b80637b05811e1461038d5780637b9e618d14610430578063891de083146104435780638f42e3ac146104a057600080fd5b806334c1557d116101a85780634e088863116101775780634e0888631461035757806355efb287146103605780635a56c4b81461036957806360cee4e51461037c5780636e4c3df31461038457600080fd5b806334c1557d1461032a578063359002f814610332578063374c8b401461033b5780633c7d0aa71461034457600080fd5b806324f82526116101e457806324f82526146102da5780632630c12f146102e25780632e1a7d4d1461030d57806330fe512a1461032257600080fd5b80630f416ad4146102165780631239921a146102325780631266a619146102b45780632143f4d4146102c7575b600080fd5b61021f60035481565b6040519081526020015b60405180910390f35b610245610240366004612c06565b610568565b60405161022991906000610120820190508251151582526020830151602083015260408301516040830152606083015160608301526080830151608083015260a083015160a083015260c083015160c083015260e083015160e083015261010080840151818401525092915050565b6102456102c2366004612c28565b6109be565b6102456102d5366004612c4a565b610d66565b610245610f7e565b6001546102f5906001600160a01b031681565b6040516001600160a01b039091168152602001610229565b61032061031b366004612c74565b610ffa565b005b610245611141565b61021f611387565b61021f6105b481565b61021f60065481565b610245610352366004612c06565b61139d565b61021f60055481565b61021f61546081565b610245610377366004612c4a565b611544565b61024561175c565b61021f60045481565b6103ea61039b366004612c06565b600a6020526000908152604090208054600182015460028301546003840154600485015460058601546006870154600788015460089098015460ff909716979596949593949293919290919089565b604080519915158a5260208a0198909852968801959095526060870193909352608086019190915260a085015260c084015260e083015261010082015261012001610229565b6002546102f5906001600160a01b031681565b6103ea610451366004612c06565b600b6020526000908152604090208054600182015460028301546003840154600485015460058601546006870154600788015460089098015460ff909716979596949593949293919290919089565b610245611a3b565b61021f611d18565b6102456104be366004612c06565b611d2b565b61021f611ed1565b61021f60075481565b61021f670de0b6b3a764000081565b6102456104f1366004612c06565b611f63565b610320610504366004612c74565b6123b8565b610245610517366004612c28565b6124d2565b610245612875565b61021f610532366004612c06565b60096020526000908152604090205481565b61021f60085481565b610245612abd565b6000546102f5906001600160a01b031681565b610570612ba1565b6001600160a01b0382166000908152600a60205260409020805460ff166105aa57604051632674890960e11b815260040160405180910390fd5b42816008015411156105cf57604051632df6a3e960e11b815260040160405180910390fd5b6004546003541161067d576154608160080160008282546105f09190612ca3565b909155505050506001600160a01b03166000908152600a6020908152604091829020825161012081018452815460ff16151581526001820154928101929092526002810154928201929092526003820154606082015260048201546080820152600582015460a0820152600682015460c0820152600782015460e082015260089091015461010082015290565b600060045460035461068f9190612ca3565b905060006004546003546106a39190612cbc565b90506000828285600101546106b89190612ccf565b6106c29190612ce6565b905083600101548110610808578360030154600360008282546106e59190612cbc565b925050819055508360070154600760008282546107029190612cbc565b909155505060018401546006805460009061071e908490612ca3565b9091555050604051610731908590612d08565b604051908190038120907ffffccc3ab08400d9793d9b23671b6bdfe653a6ac7684efb4168afc36111dad2d90600090a25050506001600160a01b039092166000908152600a60209081526040808320805460ff19168155600181018490556002810184905560038101849055600481018490556005810184905560068101849055600781018490556008018390558051610120810182528381529182018390528101829052606081018290526080810182905260a0810182905260c0810182905260e0810182905261010081019190915292915050565b8084600101600082825461081c9190612cbc565b9250508190555080600660008282546108359190612ca3565b90915550506001840154600385015461084e9190612ce6565b6002850181905560649061086a670de0b6b3a764000083612ccf565b6108749190612ca3565b85600401546108839190612ccf565b61088d9190612ce6565b600585015560028401546064906108ac670de0b6b3a764000083612ccf565b6108b69190612cbc565b85600401546108c59190612ccf565b6108cf9190612ce6565b84600601819055506154608460080160008282546108ed9190612ca3565b9091555050604051610900908590612d08565b604051908190038120907f58bf49e3bdcc4db1215b27adb74b70cfa7ec1bfdfa44a781ae1206bef62ae02290600090a25050506001600160a01b039092166000908152600a6020908152604091829020825161012081018452815460ff16151581526001820154928101929092526002810154928201929092526003820154606082015260048201546080820152600582015460a0820152600682015460c0820152600782015460e082015260089091015461010082015292915050565b6109c6612ba1565b3360009081526009602052604090205483908111156109f857604051631e9acf1760e31b815260040160405180910390fd5b670de0b6b3a7640000841015610a21576040516341c092a960e01b815260040160405180910390fd5b610a34670de0b6b3a76400006001612ccf565b831080610a525750610a4f670de0b6b3a76400006064612ccf565b83115b15610a7057604051633fe89cb960e11b815260040160405180910390fd5b3360009081526009602052604081208054869290610a8f908490612cbc565b9091555060009050610aa18486612ccf565b90506000610aad611ed1565b90506000610abb8683612ce6565b610ac59083612ca3565b90506000610ad38784612ce6565b610add9084612cbc565b90506000600754610afa86600354610af59190612ca3565b612b32565b610b049190612cbc565b6003549091506000908a9015610b7557600087600354610b249190612ca3565b9050600081610b3b670de0b6b3a76400008b612ccf565b610b459190612ce6565b9050670de0b6b3a7640000610b5a8e83612ccf565b610b649190612ce6565b9350610b70848e612cbc565b925050505b80600003610b96576040516341c092a960e01b815260040160405180910390fd5b8160056000828254610ba89190612ca3565b925050819055508660036000828254610bc19190612ca3565b925050819055508260076000828254610bda9190612ca3565b925050819055506040518061012001604052806001151581526020018281526020018b815260200188815260200187815260200186815260200185815260200184815260200161546042610c2e9190612ca3565b9052336000908152600a60209081526040918290208351815460ff1916901515178155908301516001820155828201516002820155606083015160038201556080830151600482015560a0830151600582015560c0830151600682015560e0830151600782015561010090920151600883015551610cac9190612d08565b604051908190038120907f573a25a3312dce3b34fa314d28ff79a1714844441a2f7e5f244d674eb80b15c290600090a25050336000908152600a6020908152604091829020825161012081018452815460ff16151581526001820154928101929092526002810154928201929092526003820154606082015260048201546080820152600582015460a0820152600682015460c0820152600782015460e08201526008909101546101008201529998505050505050505050565b610d6e612ba1565b336000908152600960205260409020548290811115610da057604051631e9acf1760e31b815260040160405180910390fd5b6001600160a01b0384166000908152600b60205260409020805460ff16610dda576040516331868fb760e11b815260040160405180910390fd5b6001600160a01b03851660009081526009602052604081208054869290610e02908490612cbc565b9250508190555083816001016000828254610e1d9190612ca3565b909155505060018101546003820154610e369190612ce6565b60028201819055606490610e52670de0b6b3a764000083612ccf565b610e5c9190612ca3565b8260040154610e6b9190612ccf565b610e759190612ce6565b60068201556002810154606490610e94670de0b6b3a764000083612ccf565b610e9e9190612cbc565b8260040154610ead9190612ccf565b610eb79190612ce6565b6005820155604051610eca908290612d08565b604051908190038120907f73ea3adbe3baee0e0e7808d6da6025ed3756bc885f5a8b50e42daa2c7f55080c90600090a25050336000908152600b6020908152604091829020825161012081018452815460ff16151581526001820154928101929092526002810154928201929092526003820154606082015260048201546080820152600582015460a0820152600682015460c0820152600782015460e08201526008909101546101008201529392505050565b610f86612ba1565b336000908152600b60205260409020805460ff16610fb7576040516331868fb760e11b815260040160405180910390fd5b6000610fc1611ed1565b905081600501548111610fde57610fd733611d2b565b9250505090565b8160040154811015610ff257610fd7611141565b610fd7611a3b565b33600090815260096020526040902054819081111561102c57604051631e9acf1760e31b815260040160405180910390fd5b8160000361104d57604051635e85ae7360e01b815260040160405180910390fd5b336000908152600960205260408120805484929061106c908490612cbc565b909155505060025460405163a9059cbb60e01b8152336004820152602481018490526000916001600160a01b03169063a9059cbb906044016020604051808303816000875af11580156110c3573d6000803e3d6000fd5b505050506040513d601f19601f820116820180604052508101906110e79190612d6a565b905080611107576040516312171d8360e31b815260040160405180910390fd5b60405183815233907f884edad9ce6fa2440d8a54cc123490eb96d2768479d49ff9c7366125a94243649060200160405180910390a2505050565b611149612ba1565b336000908152600b60205260409020805460ff1661117a576040516331868fb760e11b815260040160405180910390fd5b6000611184611ed1565b905081600401548110158061119d575081600501548111155b156111bb576040516345f1258960e11b815260040160405180910390fd5b6000826005015483600401546111d19190612cbc565b670de0b6b3a76400008385600401546111ea9190612cbc565b6111f49190612ccf565b6111fe9190612ce6565b90506000670de0b6b3a764000082856001015461121b9190612ccf565b6112259190612ce6565b90508084600101546112379190612cbc565b3360009081526009602052604081208054909190611256908490612ca3565b92505081905550806005600082825461126f9190612ca3565b909155505060038401546004805460009061128b908490612cbc565b90915550506007840154600880546000906112a7908490612cbc565b90915550506040516112ba908590612d08565b604051908190038120907f74519ba61d83a6887bc3b1fdcc037de9631ed59951d7c085dfacfde456bd92b290600090a25050336000908152600b60209081526040808320805460ff19168155600181018490556002810184905560038101849055600481018490556005810184905560068101849055600781018490556008018390558051610120810182528381529182018390528101829052606081018290526080810182905260a0810182905260c0810182905260e081018290526101008101919091529392505050565b61139a670de0b6b3a76400006001612ccf565b81565b6113a5612ba1565b6001600160a01b0382166000908152600a60205260409020805460ff166113df57604051632674890960e11b815260040160405180910390fd5b60006113e9611ed1565b9050816005015481101561141057604051636ef5bcdd60e11b815260040160405180910390fd5b8160030154600360008282546114269190612cbc565b925050819055508160070154600760008282546114439190612cbc565b909155505060018201546006805460009061145f908490612ca3565b9091555050604051611472908390612d08565b604051908190038120907ffffccc3ab08400d9793d9b23671b6bdfe653a6ac7684efb4168afc36111dad2d90600090a25050506001600160a01b03166000908152600a60209081526040808320805460ff19168155600181018490556002810184905560038101849055600481018490556005810184905560068101849055600781018490556008018390558051610120810182528381529182018390528101829052606081018290526080810182905260a0810182905260c0810182905260e0810182905261010081019190915290565b61154c612ba1565b33600090815260096020526040902054829081111561157e57604051631e9acf1760e31b815260040160405180910390fd5b6001600160a01b0384166000908152600a60205260409020805460ff166115b857604051632674890960e11b815260040160405180910390fd5b6001600160a01b038516600090815260096020526040812080548692906115e0908490612cbc565b92505081905550838160010160008282546115fb9190612ca3565b9091555050600181015460038201546116149190612ce6565b60028201819055606490611630670de0b6b3a764000083612ccf565b61163a9190612cbc565b82600401546116499190612ccf565b6116539190612ce6565b60068201556002810154606490611672670de0b6b3a764000083612ccf565b61167c9190612ca3565b826004015461168b9190612ccf565b6116959190612ce6565b60058201556040516116a8908290612d08565b604051908190038120907f5d4ff44de1b0d8f4b7181ed76af9913dec97aed99ee9d1d7c9095ba6d5a0f45a90600090a25050336000908152600a6020908152604091829020825161012081018452815460ff16151581526001820154928101929092526002810154928201929092526003820154606082015260048201546080820152600582015460a0820152600682015460c0820152600782015460e08201526008909101546101008201529392505050565b611764612ba1565b336000908152600a60205260409020805460ff1661179557604051632674890960e11b815260040160405180910390fd5b600061179f611ed1565b905081600401548111156117c65760405163ce63d92760e01b815260040160405180910390fd5b6000826006015482116117f95760075460055484600701546117e89190612ccf565b6117f29190612ce6565b905061187f565b60008360060154846004015461180f9190612cbc565b670de0b6b3a76400008560060154856118289190612cbc565b6118329190612ccf565b61183c9190612ce6565b9050670de0b6b3a76400006007546118549190612ccf565b8160055486600701546118679190612ccf565b6118719190612ccf565b61187b9190612ce6565b9150505b6000606461188e836063612ccf565b6118989190612ce6565b905060006118a68284612cbc565b600080546001600160a01b03168152600960205260408120805492935083929091906118d3908490612ca3565b909155505060018501546118e8908390612ca3565b3360009081526009602052604081208054909190611907908490612ca3565b9250508190555082600560008282546119209190612cbc565b9250508190555084600301546003600082825461193d9190612cbc565b9250508190555084600701546007600082825461195a9190612cbc565b909155505060405161196d908690612d08565b604051908190038120907f70d5cff2ecd2eebd75b486b11e72fbbb9eaa9fa4f0674c1870d95aa61bb68fe690600090a25050336000908152600a60209081526040808320805460ff19168155600181018490556002810184905560038101849055600481018490556005810184905560068101849055600781018490556008018390558051610120810182528381529182018390528101829052606081018290526080810182905260a0810182905260c0810182905260e08101829052610100810191909152949350505050565b611a43612ba1565b336000908152600b60205260409020805460ff16611a74576040516331868fb760e11b815260040160405180910390fd5b6000611a7e611ed1565b90508160040154811015611aa55760405163ce63d92760e01b815260040160405180910390fd5b600082600601548210611ad8576008546006548460070154611ac79190612ccf565b611ad19190612ce6565b9050611b5e565b600083600401548460060154611aee9190612cbc565b670de0b6b3a7640000856004015485611b079190612cbc565b611b119190612ccf565b611b1b9190612ce6565b9050670de0b6b3a7640000600854611b339190612ccf565b816006548660070154611b469190612ccf565b611b509190612ccf565b611b5a9190612ce6565b9150505b60006064611b6d836063612ccf565b611b779190612ce6565b90506000611b858284612cbc565b600080546001600160a01b0316815260096020526040812080549293508392909190611bb2908490612ca3565b90915550506001850154611bc7908390612ca3565b3360009081526009602052604081208054909190611be6908490612ca3565b925050819055508260066000828254611bff9190612cbc565b9091555050600385015460048054600090611c1b908490612cbc565b9091555050600785015460088054600090611c37908490612cbc565b9091555050604051611c4a908690612d08565b604051908190038120907f0ca9a03881277f933ba6a55db5dba3cd4cfa9416f4891d4edeefee0cc6dc07fc90600090a25050336000908152600b60209081526040808320805460ff19168155600181018490556002810184905560038101849055600481018490556005810184905560068101849055600781018490556008018390558051610120810182528381529182018390528101829052606081018290526080810182905260a0810182905260c0810182905260e08101829052610100810191909152949350505050565b61139a670de0b6b3a76400006064612ccf565b611d33612ba1565b6001600160a01b0382166000908152600b60205260409020805460ff16611d6d576040516331868fb760e11b815260040160405180910390fd5b6000611d77611ed1565b90508160050154811115611d9e57604051636ef5bcdd60e11b815260040160405180910390fd5b816003015460046000828254611db49190612cbc565b9091555050600782015460088054600090611dd0908490612cbc565b9091555050600182015460058054600090611dec908490612ca3565b9091555050604051611dff908390612d08565b604051908190038120907f8eb3d2a79022846e3fddc6310504c9b46b10aad565da7a6804d8c00b1177391490600090a25050506001600160a01b03166000908152600b60209081526040808320805460ff19168155600181018490556002810184905560038101849055600481018490556005810184905560068101849055600781018490556008018390558051610120810182528381529182018390528101829052606081018290526080810182905260a0810182905260c0810182905260e0810182905261010081019190915290565b600080600160009054906101000a90046001600160a01b03166001600160a01b031663feaf968c6040518163ffffffff1660e01b815260040160a060405180830381865afa158015611f27573d6000803e3d6000fd5b505050506040513d601f19601f82011682018060405250810190611f4b9190612da6565b5050509150506000811215611f5e575060005b919050565b611f6b612ba1565b6001600160a01b0382166000908152600b60205260409020805460ff16611fa5576040516331868fb760e11b815260040160405180910390fd5b4281600801541115611fca57604051632df6a3e960e11b815260040160405180910390fd5b6003546004541161207857615460816008016000828254611feb9190612ca3565b909155505050506001600160a01b03166000908152600b6020908152604091829020825161012081018452815460ff16151581526001820154928101929092526002810154928201929092526003820154606082015260048201546080820152600582015460a0820152600682015460c0820152600782015460e082015260089091015461010082015290565b600060045460035461208a9190612ca3565b9050600060035460045461209e9190612cbc565b90506000828285600101546120b39190612ccf565b6120bd9190612ce6565b905083600101548110612202578360030154600460008282546120e09190612cbc565b90915550506007840154600880546000906120fc908490612cbc565b9091555050600184015460058054600090612118908490612ca3565b909155505060405161212b908590612d08565b604051908190038120907f8eb3d2a79022846e3fddc6310504c9b46b10aad565da7a6804d8c00b1177391490600090a25050506001600160a01b039092166000908152600b60209081526040808320805460ff19168155600181018490556002810184905560038101849055600481018490556005810184905560068101849055600781018490556008018390558051610120810182528381529182018390528101829052606081018290526080810182905260a0810182905260c0810182905260e0810182905261010081019190915292915050565b808460010160008282546122169190612cbc565b92505081905550806005600082825461222f9190612ca3565b9091555050600184015460038501546122489190612ce6565b60028501819055606490612264670de0b6b3a764000083612ccf565b61226e9190612cbc565b856004015461227d9190612ccf565b6122879190612ce6565b600585015560028401546064906122a6670de0b6b3a764000083612ccf565b6122b09190612ca3565b85600401546122bf9190612ccf565b6122c99190612ce6565b84600601819055506154608460080160008282546122e79190612ca3565b90915550506040516122fa908590612d08565b604051908190038120907f68231237047f831001bde6adc5118a30ce889227f735daf9cf4b3c3e16f7eec990600090a25050506001600160a01b039092166000908152600b6020908152604091829020825161012081018452815460ff16151581526001820154928101929092526002810154928201929092526003820154606082015260048201546080820152600582015460a0820152600682015460c0820152600782015460e082015260089091015461010082015292915050565b806000036123d957604051635e85ae7360e01b815260040160405180910390fd5b6002546040516323b872dd60e01b8152336004820152306024820152604481018390526000916001600160a01b0316906323b872dd906064016020604051808303816000875af1158015612431573d6000803e3d6000fd5b505050506040513d601f19601f820116820180604052508101906124559190612d6a565b905080612475576040516312171d8360e31b815260040160405180910390fd5b3360009081526009602052604081208054849290612494908490612ca3565b909155505060405182815233907fe1fffcc4923d04b559f4d29a8bfc6cda04eb5b0d3c460751c2402c5c5cc9109c9060200160405180910390a25050565b6124da612ba1565b33600090815260096020526040902054839081111561250c57604051631e9acf1760e31b815260040160405180910390fd5b670de0b6b3a7640000841015612535576040516341c092a960e01b815260040160405180910390fd5b612548670de0b6b3a76400006001612ccf565b8310806125665750612563670de0b6b3a76400006064612ccf565b83115b1561258457604051633fe89cb960e11b815260040160405180910390fd5b33600090815260096020526040812080548692906125a3908490612cbc565b90915550600090506125b58486612ccf565b905060006125c1611ed1565b905060006125cf8683612ce6565b6125d99083612cbc565b905060006125e78784612ce6565b6125f19084612ca3565b9050600060085461260986600454610af59190612ca3565b6126139190612cbc565b6004549091506000908a9015612684576000876004546126339190612ca3565b905060008161264a670de0b6b3a76400008b612ccf565b6126549190612ce6565b9050670de0b6b3a76400006126698e83612ccf565b6126739190612ce6565b935061267f848e612cbc565b925050505b806000036126a5576040516341c092a960e01b815260040160405180910390fd5b81600660008282546126b79190612ca3565b9250508190555086600460008282546126d09190612ca3565b9250508190555082600860008282546126e99190612ca3565b925050819055506040518061012001604052806001151581526020018281526020018b81526020018881526020018781526020018681526020018581526020018481526020016154604261273d9190612ca3565b9052336000908152600b60209081526040918290208351815460ff1916901515178155908301516001820155828201516002820155606083015160038201556080830151600482015560a0830151600582015560c0830151600682015560e08301516007820155610100909201516008830155516127bb9190612d08565b604051908190038120907f9691da72ef539d5ccf9fea4e7c7f88019a837e693325699785b2c7c9d4cfb2de90600090a25050336000908152600b6020908152604091829020825161012081018452815460ff16151581526001820154928101929092526002810154928201929092526003820154606082015260048201546080820152600582015460a0820152600682015460c0820152600782015460e08201526008909101546101008201529998505050505050505050565b61287d612ba1565b336000908152600a60205260409020805460ff166128ae57604051632674890960e11b815260040160405180910390fd5b60006128b8611ed1565b90508160040154811115806128d1575081600501548110155b156128ef576040516345f1258960e11b815260040160405180910390fd5b6000826004015483600501546129059190612cbc565b670de0b6b3a764000084600401548461291e9190612cbc565b6129289190612ccf565b6129329190612ce6565b90506000670de0b6b3a764000082856001015461294f9190612ccf565b6129599190612ce6565b905080846001015461296b9190612cbc565b336000908152600960205260408120805490919061298a908490612ca3565b9250508190555080600660008282546129a39190612ca3565b925050819055508360030154600360008282546129c09190612cbc565b925050819055508360070154600760008282546129dd9190612cbc565b90915550506040516129f0908590612d08565b604051908190038120907f41ef72e31f6bde81fcb48207dec1465c6b7755288cd2969e03cd4b38764f257b90600090a25050336000908152600a60209081526040808320805460ff19168155600181018490556002810184905560038101849055600481018490556005810184905560068101849055600781018490556008018390558051610120810182528381529182018390528101829052606081018290526080810182905260a0810182905260c0810182905260e081018290526101008101919091529392505050565b612ac5612ba1565b336000908152600a60205260409020805460ff16612af657604051632674890960e11b815260040160405180910390fd5b6000612b00611ed1565b905081600501548110612b1657610fd73361139d565b8160040154811115612b2a57610fd7612875565b610fd761175c565b60006003821115612b935750806000612b4c600283612ce6565b612b57906001612ca3565b90505b81811015612b8d57905080600281612b728186612ce6565b612b7c9190612ca3565b612b869190612ce6565b9050612b5a565b50919050565b8115611f5e57506001919050565b60405180610120016040528060001515815260200160008152602001600081526020016000815260200160008152602001600081526020016000815260200160008152602001600081525090565b80356001600160a01b0381168114611f5e57600080fd5b600060208284031215612c1857600080fd5b612c2182612bef565b9392505050565b60008060408385031215612c3b57600080fd5b50508035926020909101359150565b60008060408385031215612c5d57600080fd5b612c6683612bef565b946020939093013593505050565b600060208284031215612c8657600080fd5b5035919050565b634e487b7160e01b600052601160045260246000fd5b80820180821115612cb657612cb6612c8d565b92915050565b81810381811115612cb657612cb6612c8d565b8082028115828204841417612cb657612cb6612c8d565b600082612d0357634e487b7160e01b600052601260045260246000fd5b500490565b815460ff161515815260018201546020820152600282015460408201526003820154606082015260048201546080820152600582015460a0820152600682015460c0820152600782015460e08201526008909101546101008201526101200190565b600060208284031215612d7c57600080fd5b81518015158114612c2157600080fd5b805169ffffffffffffffffffff81168114611f5e57600080fd5b600080600080600060a08688031215612dbe57600080fd5b612dc786612d8c565b9450602086015193506040860151925060608601519150612dea60808701612d8c565b9050929550929590935056fea2646970667358221220efca0b25405e247aad01a608a1f89daef01739dcf329e7b8fd54387927924c7d64736f6c63430008140033","linkReferences":{}},"methodIdentifiers":{"FUNDING_INTERVAL()":"55efb287","FUNDING_PERIODS()":"359002f8","MAX_LEVERAGE()":"9b45ec97","MIN_LEVERAGE()":"34c1557d","MIN_MARGIN()":"eee8a168","PRECISION()":"aaf5eb68","addMarginLong(address,uint256)":"2143f4d4","addMarginShort(address,uint256)":"5a56c4b8","admin()":"f851a440","balance(address)":"e3d670d7","closeLong()":"24f82526","closeLongLoss()":"30fe512a","closeLongProfit()":"8f42e3ac","closeShort()":"f8432a1b","closeShortLoss()":"da2262f5","closeShortProfit()":"60cee4e5","currentPrice()":"9d1b464a","deposit(uint256)":"b6b55f25","fundingRateLong(address)":"adc8f5a4","fundingRateShort(address)":"1239921a","liquidateLong(address)":"9d0f8240","liquidateShort(address)":"3c7d0aa7","longProfits()":"374c8b40","longShares()":"f3d490f4","longTokens()":"6e4c3df3","longs(address)":"891de083","openLong(uint256,uint256)":"c181d418","openShort(uint256,uint256)":"1266a619","priceOracle()":"2630c12f","settlementToken()":"7b9e618d","shortProfits()":"4e088863","shortShares()":"a10e58aa","shortTokens()":"0f416ad4","shorts(address)":"7b05811e","withdraw(uint256)":"2e1a7d4d"},"id":29}