{"abi":[{"type":"constructor","inputs":[{"name":"_priceOracle","type":"address","internalType":"address"},{"name":"_settlementToken","type":"address","internalType":"address"}],"stateMutability":"nonpayable"},{"type":"function","name":"FUNDING_INTERVAL","inputs":[],"outputs":[{"name":"","type":"uint256","internalType":"uint256"}],"stateMutability":"view"},{"type":"function","name":"FUNDING_PERIODS","inputs":[],"outputs":[{"name":"","type":"uint256","internalType":"uint256"}],"stateMutability":"view"},{"type":"function","name":"MAX_LEVERAGE","inputs":[],"outputs":[{"name":"","type":"uint256","internalType":"uint256"}],"stateMutability":"view"},{"type":"function","name":"MIN_LEVERAGE","inputs":[],"outputs":[{"name":"","type":"uint256","internalType":"uint256"}],"stateMutability":"view"},{"type":"function","name":"MIN_MARGIN","inputs":[],"outputs":[{"name":"","type":"uint256","internalType":"uint256"}],"stateMutability":"view"},{"type":"function","name":"PRECISION","inputs":[],"outputs":[{"name":"","type":"uint256","internalType":"uint256"}],"stateMutability":"view"},{"type":"function","name":"addMarginLong","inputs":[{"name":"user","type":"address","internalType":"address"},{"name":"amount","type":"uint256","internalType":"uint256"}],"outputs":[],"stateMutability":"nonpayable"},{"type":"function","name":"addMarginShort","inputs":[{"name":"user","type":"address","internalType":"address"},{"name":"amount","type":"uint256","internalType":"uint256"}],"outputs":[],"stateMutability":"nonpayable"},{"type":"function","name":"balance","inputs":[{"name":"","type":"address","internalType":"address"}],"outputs":[{"name":"","type":"uint256","internalType":"uint256"}],"stateMutability":"view"},{"type":"function","name":"closeLong","inputs":[],"outputs":[],"stateMutability":"nonpayable"},{"type":"function","name":"closeShort","inputs":[],"outputs":[],"stateMutability":"nonpayable"},{"type":"function","name":"currentPrice","inputs":[],"outputs":[{"name":"","type":"uint256","internalType":"uint256"}],"stateMutability":"view"},{"type":"function","name":"deposit","inputs":[{"name":"amount","type":"uint256","internalType":"uint256"}],"outputs":[],"stateMutability":"nonpayable"},{"type":"function","name":"fundingRateLong","inputs":[{"name":"user","type":"address","internalType":"address"}],"outputs":[],"stateMutability":"nonpayable"},{"type":"function","name":"fundingRateShort","inputs":[{"name":"user","type":"address","internalType":"address"}],"outputs":[],"stateMutability":"nonpayable"},{"type":"function","name":"longProfits","inputs":[],"outputs":[{"name":"","type":"uint256","internalType":"uint256"}],"stateMutability":"view"},{"type":"function","name":"longShares","inputs":[],"outputs":[{"name":"","type":"uint256","internalType":"uint256"}],"stateMutability":"view"},{"type":"function","name":"longTokens","inputs":[],"outputs":[{"name":"","type":"uint256","internalType":"uint256"}],"stateMutability":"view"},{"type":"function","name":"longs","inputs":[{"name":"","type":"address","internalType":"address"}],"outputs":[{"name":"active","type":"bool","internalType":"bool"},{"name":"margin","type":"uint256","internalType":"uint256"},{"name":"leverage","type":"uint256","internalType":"uint256"},{"name":"tokens","type":"uint256","internalType":"uint256"},{"name":"entry","type":"uint256","internalType":"uint256"},{"name":"liquidation","type":"uint256","internalType":"uint256"},{"name":"profit","type":"uint256","internalType":"uint256"},{"name":"shares","type":"uint256","internalType":"uint256"},{"name":"funding","type":"uint256","internalType":"uint256"}],"stateMutability":"view"},{"type":"function","name":"openLong","inputs":[{"name":"margin","type":"uint256","internalType":"uint256"},{"name":"leverage","type":"uint256","internalType":"uint256"}],"outputs":[],"stateMutability":"nonpayable"},{"type":"function","name":"openShort","inputs":[{"name":"margin","type":"uint256","internalType":"uint256"},{"name":"leverage","type":"uint256","internalType":"uint256"}],"outputs":[],"stateMutability":"nonpayable"},{"type":"function","name":"shortProfits","inputs":[],"outputs":[{"name":"","type":"uint256","internalType":"uint256"}],"stateMutability":"view"},{"type":"function","name":"shortShares","inputs":[],"outputs":[{"name":"","type":"uint256","internalType":"uint256"}],"stateMutability":"view"},{"type":"function","name":"shortTokens","inputs":[],"outputs":[{"name":"","type":"uint256","internalType":"uint256"}],"stateMutability":"view"},{"type":"function","name":"shorts","inputs":[{"name":"","type":"address","internalType":"address"}],"outputs":[{"name":"active","type":"bool","internalType":"bool"},{"name":"margin","type":"uint256","internalType":"uint256"},{"name":"leverage","type":"uint256","internalType":"uint256"},{"name":"tokens","type":"uint256","internalType":"uint256"},{"name":"entry","type":"uint256","internalType":"uint256"},{"name":"liquidation","type":"uint256","internalType":"uint256"},{"name":"profit","type":"uint256","internalType":"uint256"},{"name":"shares","type":"uint256","internalType":"uint256"},{"name":"funding","type":"uint256","internalType":"uint256"}],"stateMutability":"view"},{"type":"function","name":"withdraw","inputs":[{"name":"amount","type":"uint256","internalType":"uint256"}],"outputs":[],"stateMutability":"nonpayable"},{"type":"event","name":"Deposit","inputs":[{"name":"user","type":"address","indexed":true,"internalType":"address"},{"name":"amount","type":"uint256","indexed":false,"internalType":"uint256"}],"anonymous":false},{"type":"event","name":"LongClosedAtLoss","inputs":[{"name":"short","type":"tuple","indexed":true,"internalType":"struct Parimutuel.Position","components":[{"name":"active","type":"bool","internalType":"bool"},{"name":"margin","type":"uint256","internalType":"uint256"},{"name":"leverage","type":"uint256","internalType":"uint256"},{"name":"tokens","type":"uint256","internalType":"uint256"},{"name":"entry","type":"uint256","internalType":"uint256"},{"name":"liquidation","type":"uint256","internalType":"uint256"},{"name":"profit","type":"uint256","internalType":"uint256"},{"name":"shares","type":"uint256","internalType":"uint256"},{"name":"funding","type":"uint256","internalType":"uint256"}]}],"anonymous":false},{"type":"event","name":"LongClosedAtProfit","inputs":[{"name":"short","type":"tuple","indexed":true,"internalType":"struct Parimutuel.Position","components":[{"name":"active","type":"bool","internalType":"bool"},{"name":"margin","type":"uint256","internalType":"uint256"},{"name":"leverage","type":"uint256","internalType":"uint256"},{"name":"tokens","type":"uint256","internalType":"uint256"},{"name":"entry","type":"uint256","internalType":"uint256"},{"name":"liquidation","type":"uint256","internalType":"uint256"},{"name":"profit","type":"uint256","internalType":"uint256"},{"name":"shares","type":"uint256","internalType":"uint256"},{"name":"funding","type":"uint256","internalType":"uint256"}]}],"anonymous":false},{"type":"event","name":"LongFundingPaid","inputs":[{"name":"long","type":"tuple","indexed":true,"internalType":"struct Parimutuel.Position","components":[{"name":"active","type":"bool","internalType":"bool"},{"name":"margin","type":"uint256","internalType":"uint256"},{"name":"leverage","type":"uint256","internalType":"uint256"},{"name":"tokens","type":"uint256","internalType":"uint256"},{"name":"entry","type":"uint256","internalType":"uint256"},{"name":"liquidation","type":"uint256","internalType":"uint256"},{"name":"profit","type":"uint256","internalType":"uint256"},{"name":"shares","type":"uint256","internalType":"uint256"},{"name":"funding","type":"uint256","internalType":"uint256"}]}],"anonymous":false},{"type":"event","name":"LongLiquidated","inputs":[{"name":"short","type":"tuple","indexed":true,"internalType":"struct Parimutuel.Position","components":[{"name":"active","type":"bool","internalType":"bool"},{"name":"margin","type":"uint256","internalType":"uint256"},{"name":"leverage","type":"uint256","internalType":"uint256"},{"name":"tokens","type":"uint256","internalType":"uint256"},{"name":"entry","type":"uint256","internalType":"uint256"},{"name":"liquidation","type":"uint256","internalType":"uint256"},{"name":"profit","type":"uint256","internalType":"uint256"},{"name":"shares","type":"uint256","internalType":"uint256"},{"name":"funding","type":"uint256","internalType":"uint256"}]}],"anonymous":false},{"type":"event","name":"MarginAddedLong","inputs":[{"name":"short","type":"tuple","indexed":true,"internalType":"struct Parimutuel.Position","components":[{"name":"active","type":"bool","internalType":"bool"},{"name":"margin","type":"uint256","internalType":"uint256"},{"name":"leverage","type":"uint256","internalType":"uint256"},{"name":"tokens","type":"uint256","internalType":"uint256"},{"name":"entry","type":"uint256","internalType":"uint256"},{"name":"liquidation","type":"uint256","internalType":"uint256"},{"name":"profit","type":"uint256","internalType":"uint256"},{"name":"shares","type":"uint256","internalType":"uint256"},{"name":"funding","type":"uint256","internalType":"uint256"}]}],"anonymous":false},{"type":"event","name":"MarginAddedShort","inputs":[{"name":"short","type":"tuple","indexed":true,"internalType":"struct Parimutuel.Position","components":[{"name":"active","type":"bool","internalType":"bool"},{"name":"margin","type":"uint256","internalType":"uint256"},{"name":"leverage","type":"uint256","internalType":"uint256"},{"name":"tokens","type":"uint256","internalType":"uint256"},{"name":"entry","type":"uint256","internalType":"uint256"},{"name":"liquidation","type":"uint256","internalType":"uint256"},{"name":"profit","type":"uint256","internalType":"uint256"},{"name":"shares","type":"uint256","internalType":"uint256"},{"name":"funding","type":"uint256","internalType":"uint256"}]}],"anonymous":false},{"type":"event","name":"OpenLong","inputs":[{"name":"short","type":"tuple","indexed":true,"internalType":"struct Parimutuel.Position","components":[{"name":"active","type":"bool","internalType":"bool"},{"name":"margin","type":"uint256","internalType":"uint256"},{"name":"leverage","type":"uint256","internalType":"uint256"},{"name":"tokens","type":"uint256","internalType":"uint256"},{"name":"entry","type":"uint256","internalType":"uint256"},{"name":"liquidation","type":"uint256","internalType":"uint256"},{"name":"profit","type":"uint256","internalType":"uint256"},{"name":"shares","type":"uint256","internalType":"uint256"},{"name":"funding","type":"uint256","internalType":"uint256"}]}],"anonymous":false},{"type":"event","name":"OpenShort","inputs":[{"name":"short","type":"tuple","indexed":true,"internalType":"struct Parimutuel.Position","components":[{"name":"active","type":"bool","internalType":"bool"},{"name":"margin","type":"uint256","internalType":"uint256"},{"name":"leverage","type":"uint256","internalType":"uint256"},{"name":"tokens","type":"uint256","internalType":"uint256"},{"name":"entry","type":"uint256","internalType":"uint256"},{"name":"liquidation","type":"uint256","internalType":"uint256"},{"name":"profit","type":"uint256","internalType":"uint256"},{"name":"shares","type":"uint256","internalType":"uint256"},{"name":"funding","type":"uint256","internalType":"uint256"}]}],"anonymous":false},{"type":"event","name":"ShortClosedAtLoss","inputs":[{"name":"short","type":"tuple","indexed":true,"internalType":"struct Parimutuel.Position","components":[{"name":"active","type":"bool","internalType":"bool"},{"name":"margin","type":"uint256","internalType":"uint256"},{"name":"leverage","type":"uint256","internalType":"uint256"},{"name":"tokens","type":"uint256","internalType":"uint256"},{"name":"entry","type":"uint256","internalType":"uint256"},{"name":"liquidation","type":"uint256","internalType":"uint256"},{"name":"profit","type":"uint256","internalType":"uint256"},{"name":"shares","type":"uint256","internalType":"uint256"},{"name":"funding","type":"uint256","internalType":"uint256"}]}],"anonymous":false},{"type":"event","name":"ShortClosedAtProfit","inputs":[{"name":"short","type":"tuple","indexed":true,"internalType":"struct Parimutuel.Position","components":[{"name":"active","type":"bool","internalType":"bool"},{"name":"margin","type":"uint256","internalType":"uint256"},{"name":"leverage","type":"uint256","internalType":"uint256"},{"name":"tokens","type":"uint256","internalType":"uint256"},{"name":"entry","type":"uint256","internalType":"uint256"},{"name":"liquidation","type":"uint256","internalType":"uint256"},{"name":"profit","type":"uint256","internalType":"uint256"},{"name":"shares","type":"uint256","internalType":"uint256"},{"name":"funding","type":"uint256","internalType":"uint256"}]}],"anonymous":false},{"type":"event","name":"ShortFundingPaid","inputs":[{"name":"short","type":"tuple","indexed":true,"internalType":"struct Parimutuel.Position","components":[{"name":"active","type":"bool","internalType":"bool"},{"name":"margin","type":"uint256","internalType":"uint256"},{"name":"leverage","type":"uint256","internalType":"uint256"},{"name":"tokens","type":"uint256","internalType":"uint256"},{"name":"entry","type":"uint256","internalType":"uint256"},{"name":"liquidation","type":"uint256","internalType":"uint256"},{"name":"profit","type":"uint256","internalType":"uint256"},{"name":"shares","type":"uint256","internalType":"uint256"},{"name":"funding","type":"uint256","internalType":"uint256"}]}],"anonymous":false},{"type":"event","name":"ShortLiquidated","inputs":[{"name":"short","type":"tuple","indexed":true,"internalType":"struct Parimutuel.Position","components":[{"name":"active","type":"bool","internalType":"bool"},{"name":"margin","type":"uint256","internalType":"uint256"},{"name":"leverage","type":"uint256","internalType":"uint256"},{"name":"tokens","type":"uint256","internalType":"uint256"},{"name":"entry","type":"uint256","internalType":"uint256"},{"name":"liquidation","type":"uint256","internalType":"uint256"},{"name":"profit","type":"uint256","internalType":"uint256"},{"name":"shares","type":"uint256","internalType":"uint256"},{"name":"funding","type":"uint256","internalType":"uint256"}]}],"anonymous":false},{"type":"event","name":"Withdraw","inputs":[{"name":"user","type":"address","indexed":true,"internalType":"address"},{"name":"amount","type":"uint256","indexed":false,"internalType":"uint256"}],"anonymous":false},{"type":"error","name":"AmountMustBeGreaterThanZero","inputs":[]},{"type":"error","name":"FundingRateNotDue","inputs":[]},{"type":"error","name":"InsufficientBalance","inputs":[]},{"type":"error","name":"InsufficientMargin","inputs":[]},{"type":"error","name":"InvalidLeverage","inputs":[]},{"type":"error","name":"NoActiveLong","inputs":[]},{"type":"error","name":"NoActiveShort","inputs":[]},{"type":"error","name":"NotCloseableAtLoss","inputs":[]},{"type":"error","name":"NotCloseableAtProfit","inputs":[]},{"type":"error","name":"NotLiquidatable","inputs":[]},{"type":"error","name":"TransferFailed","inputs":[]}],"bytecode":{"object":"0x60806040523480156200001157600080fd5b506040516200252438038062002524833981016040819052620000349162000093565b600180546001600160a01b039384166001600160a01b0319918216179091556002805492909316918116919091179091556000805490911633179055620000cb565b80516001600160a01b03811681146200008e57600080fd5b919050565b60008060408385031215620000a757600080fd5b620000b28362000076565b9150620000c26020840162000076565b90509250929050565b61244980620000db6000396000f3fe608060405234801561001057600080fd5b506004361061018e5760003560e01c80637b05811e116100de578063adc8f5a411610097578063e3d670d711610071578063e3d670d7146103ae578063eee8a16814610366578063f3d490f4146103ce578063f8432a1b146103d757600080fd5b8063adc8f5a414610375578063b6b55f2514610388578063c181d4181461039b57600080fd5b80637b05811e1461024d578063891de083146102f05780639b45ec971461034d5780639d1b464a14610355578063a10e58aa1461035d578063aaf5eb681461036657600080fd5b806334c1557d1161014b5780634e088863116101255780634e0888631461021f57806355efb287146102285780635a56c4b8146102315780636e4c3df31461024457600080fd5b806334c1557d14610205578063359002f81461020d578063374c8b401461021657600080fd5b80630f416ad4146101935780631239921a146101af5780631266a619146101c45780632143f4d4146101d757806324f82526146101ea5780632e1a7d4d146101f2575b600080fd5b61019c60035481565b6040519081526020015b60405180910390f35b6101c26101bd366004612223565b6103df565b005b6101c26101d2366004612245565b6106fc565b6101c26101e5366004612267565b6109e5565b6101c2610b66565b6101c2610200366004612291565b610bd7565b61019c600181565b61019c6105b481565b61019c60065481565b61019c60055481565b61019c61546081565b6101c261023f366004612267565b610d1e565b61019c60045481565b6102aa61025b366004612223565b600a6020526000908152604090208054600182015460028301546003840154600485015460058601546006870154600788015460089098015460ff909716979596949593949293919290919089565b604080519915158a5260208a0198909852968801959095526060870193909352608086019190915260a085015260c084015260e0830152610100820152610120016101a6565b6102aa6102fe366004612223565b600b6020526000908152604090208054600182015460028301546003840154600485015460058601546006870154600788015460089098015460ff909716979596949593949293919290919089565b61019c606481565b61019c610e9f565b61019c60075481565b61019c670de0b6b3a764000081565b6101c2610383366004612223565b610f31565b6101c2610396366004612291565b611243565b6101c26103a9366004612245565b61135d565b61019c6103bc366004612223565b60096020526000908152604090205481565b61019c60085481565b6101c2611641565b6001600160a01b0381166000908152600a60205260409020805460ff1661041957604051632674890960e11b815260040160405180910390fd5b428160080154111561043e57604051632df6a3e960e11b815260040160405180910390fd5b600454600354116104685761546081600801600082825461045f91906122c0565b90915550505050565b600060045460035461047a91906122c0565b9050600081600354606461048e91906122d9565b61049891906122f0565b905060006104a7826064612312565b905060006105b46104b88385612312565b6104c291906122f0565b9050600060648287600101546104d891906122d9565b6104e291906122f0565b9050856001015481106105db578560030154600360008282546105059190612312565b925050819055508560070154600760008282546105229190612312565b909155505060018601546006805460009061053e9084906122c0565b9091555050604051610551908790612325565b604051908190038120907ffffccc3ab08400d9793d9b23671b6bdfe653a6ac7684efb4168afc36111dad2d90600090a26001600160a01b0387166000908152600a60205260408120805460ff1916815560018101829055600281018290556003810182905560048101829055600581018290556006810182905560078101829055600801556106f3565b808660010160008282546105ef9190612312565b92505081905550806006600082825461060891906122c0565b90915550506001860154600387015461062a90670de0b6b3a7640000906122d9565b61063491906122f0565b6002870181905560649061064890826122c0565b876004015461065791906122d9565b61066191906122f0565b600587015560028601546064906106789082612312565b876004015461068791906122d9565b61069191906122f0565b86600601819055506154608660080160008282546106af91906122c0565b90915550506040516106c2908790612325565b604051908190038120907f58bf49e3bdcc4db1215b27adb74b70cfa7ec1bfdfa44a781ae1206bef62ae02290600090a25b50505050505050565b33600090815260096020526040902054829081111561072e57604051631e9acf1760e31b815260040160405180910390fd5b670de0b6b3a7640000831015610757576040516341c092a960e01b815260040160405180910390fd5b60018210806107665750606482115b1561078457604051633fe89cb960e11b815260040160405180910390fd5b33600090815260096020526040812080548592906107a3908490612312565b90915550600090506107b583856122d9565b905060006107c1610e9f565b9050600060646107d186826122c0565b6107db90846122d9565b6107e591906122f0565b9050600060646107f58782612312565b6107ff90856122d9565b61080991906122f0565b905060006007546108268660035461082191906122c0565b6116ae565b6108309190612312565b905060008560035461084291906122c0565b9050600081610859670de0b6b3a7640000896122d9565b61086391906122f0565b90506000670de0b6b3a764000061087a8c846122d9565b61088491906122f0565b9050610890818c612312565b9a5080600560008282546108a491906122c0565b9250508190555087600360008282546108bd91906122c0565b9250508190555083600760008282546108d691906122c0565b925050819055506040518061012001604052806001151581526020018c81526020018b81526020018981526020018881526020018781526020018681526020018581526020016154604261092a91906122c0565b9052336000908152600a60209081526040918290208351815460ff1916901515178155908301516001820155828201516002820155606083015160038201556080830151600482015560a0830151600582015560c0830151600682015560e08301516007820155610100909201516008830155516109a89190612325565b604051908190038120907f573a25a3312dce3b34fa314d28ff79a1714844441a2f7e5f244d674eb80b15c290600090a25050505050505050505050565b336000908152600960205260409020548190811115610a1757604051631e9acf1760e31b815260040160405180910390fd5b6001600160a01b0383166000908152600b60205260409020805460ff16610a51576040516331868fb760e11b815260040160405180910390fd5b6001600160a01b03841660009081526009602052604081208054859290610a79908490612312565b9250508190555082816001016000828254610a9491906122c0565b909155505060018101546003820154610ab690670de0b6b3a7640000906122d9565b610ac091906122f0565b60028201819055606490610ad490826122c0565b8260040154610ae391906122d9565b610aed91906122f0565b60068201556002810154606490610b049082612312565b8260040154610b1391906122d9565b610b1d91906122f0565b6005820155604051610b30908290612325565b604051908190038120907f73ea3adbe3baee0e0e7808d6da6025ed3756bc885f5a8b50e42daa2c7f55080c90600090a250505050565b336000908152600b60205260409020805460ff16610b97576040516331868fb760e11b815260040160405180910390fd5b6000610ba1610e9f565b905081600501548111610bbb57610bb73361171d565b5050565b8160040154811015610bcf57610bb7611871565b610bb7611a62565b336000908152600960205260409020548190811115610c0957604051631e9acf1760e31b815260040160405180910390fd5b81600003610c2a57604051635e85ae7360e01b815260040160405180910390fd5b3360009081526009602052604081208054849290610c49908490612312565b909155505060025460405163a9059cbb60e01b8152336004820152602481018490526000916001600160a01b03169063a9059cbb906044016020604051808303816000875af1158015610ca0573d6000803e3d6000fd5b505050506040513d601f19601f82011682018060405250810190610cc49190612387565b905080610ce4576040516312171d8360e31b815260040160405180910390fd5b60405183815233907f884edad9ce6fa2440d8a54cc123490eb96d2768479d49ff9c7366125a94243649060200160405180910390a2505050565b336000908152600960205260409020548190811115610d5057604051631e9acf1760e31b815260040160405180910390fd5b6001600160a01b0383166000908152600a60205260409020805460ff16610d8a57604051632674890960e11b815260040160405180910390fd5b6001600160a01b03841660009081526009602052604081208054859290610db2908490612312565b9250508190555082816001016000828254610dcd91906122c0565b909155505060018101546003820154610def90670de0b6b3a7640000906122d9565b610df991906122f0565b60028201819055606490610e0d9082612312565b8260040154610e1c91906122d9565b610e2691906122f0565b60068201556002810154606490610e3d90826122c0565b8260040154610e4c91906122d9565b610e5691906122f0565b6005820155604051610e69908290612325565b604051908190038120907f5d4ff44de1b0d8f4b7181ed76af9913dec97aed99ee9d1d7c9095ba6d5a0f45a90600090a250505050565b600080600160009054906101000a90046001600160a01b03166001600160a01b031663feaf968c6040518163ffffffff1660e01b815260040160a060405180830381865afa158015610ef5573d6000803e3d6000fd5b505050506040513d601f19601f82011682018060405250810190610f1991906123c3565b5050509150506000811215610f2c575060005b919050565b6001600160a01b0381166000908152600b60205260409020805460ff16610f6b576040516331868fb760e11b815260040160405180910390fd5b4281600801541115610f9057604051632df6a3e960e11b815260040160405180910390fd5b60035460045411610fb15761546081600801600082825461045f91906122c0565b6000600454600354610fc391906122c0565b90506000816004546064610fd791906122d9565b610fe191906122f0565b90506000610ff0826064612312565b905060006105b46110018385612312565b61100b91906122f0565b90506000606482876001015461102191906122d9565b61102b91906122f0565b9050856001015481106111235785600301546004600082825461104e9190612312565b909155505060078601546008805460009061106a908490612312565b90915550506001860154600580546000906110869084906122c0565b9091555050604051611099908790612325565b604051908190038120907f8eb3d2a79022846e3fddc6310504c9b46b10aad565da7a6804d8c00b1177391490600090a26001600160a01b0387166000908152600b60205260408120805460ff1916815560018101829055600281018290556003810182905560048101829055600581018290556006810182905560078101829055600801556106f3565b808660010160008282546111379190612312565b92505081905550806005600082825461115091906122c0565b90915550506001860154600387015461117290670de0b6b3a7640000906122d9565b61117c91906122f0565b600287018190556064906111909082612312565b876004015461119f91906122d9565b6111a991906122f0565b600587015560028601546064906111c090826122c0565b87600401546111cf91906122d9565b6111d991906122f0565b86600601819055506154608660080160008282546111f791906122c0565b909155505060405161120a908790612325565b604051908190038120907f68231237047f831001bde6adc5118a30ce889227f735daf9cf4b3c3e16f7eec990600090a250505050505050565b8060000361126457604051635e85ae7360e01b815260040160405180910390fd5b6002546040516323b872dd60e01b8152336004820152306024820152604481018390526000916001600160a01b0316906323b872dd906064016020604051808303816000875af11580156112bc573d6000803e3d6000fd5b505050506040513d601f19601f820116820180604052508101906112e09190612387565b905080611300576040516312171d8360e31b815260040160405180910390fd5b336000908152600960205260408120805484929061131f9084906122c0565b909155505060405182815233907fe1fffcc4923d04b559f4d29a8bfc6cda04eb5b0d3c460751c2402c5c5cc9109c9060200160405180910390a25050565b33600090815260096020526040902054829081111561138f57604051631e9acf1760e31b815260040160405180910390fd5b670de0b6b3a76400008310156113b8576040516341c092a960e01b815260040160405180910390fd5b60018210806113c75750606482115b156113e557604051633fe89cb960e11b815260040160405180910390fd5b3360009081526009602052604081208054859290611404908490612312565b909155506000905061141683856122d9565b90506000611422610e9f565b9050600060646114328682612312565b61143c90846122d9565b61144691906122f0565b90506000606461145687826122c0565b61146090856122d9565b61146a91906122f0565b905060006008546114828660045461082191906122c0565b61148c9190612312565b905060008560045461149e91906122c0565b90506000816114b5670de0b6b3a7640000896122d9565b6114bf91906122f0565b90506000670de0b6b3a76400006114d68c846122d9565b6114e091906122f0565b90506114ec818c612312565b9a50806006600082825461150091906122c0565b92505081905550876004600082825461151991906122c0565b92505081905550836008600082825461153291906122c0565b925050819055506040518061012001604052806001151581526020018c81526020018b81526020018981526020018881526020018781526020018681526020018581526020016154604261158691906122c0565b9052336000908152600b60209081526040918290208351815460ff1916901515178155908301516001820155828201516002820155606083015160038201556080830151600482015560a0830151600582015560c0830151600682015560e08301516007820155610100909201516008830155516116049190612325565b604051908190038120907f9691da72ef539d5ccf9fea4e7c7f88019a837e693325699785b2c7c9d4cfb2de90600090a25050505050505050505050565b336000908152600a60205260409020805460ff1661167257604051632674890960e11b815260040160405180910390fd5b600061167c610e9f565b90508160050154811061169257610bb733611c91565b81600401548111156116a657610bb7611de6565b610bb7611fdb565b6000600382111561170f57508060006116c86002836122f0565b6116d39060016122c0565b90505b81811015611709579050806002816116ee81866122f0565b6116f891906122c0565b61170291906122f0565b90506116d6565b50919050565b8115610f2c57506001919050565b6001600160a01b0381166000908152600b60205260409020805460ff16611757576040516331868fb760e11b815260040160405180910390fd5b6000611761610e9f565b9050816005015481111561178857604051636ef5bcdd60e11b815260040160405180910390fd5b81600301546004600082825461179e9190612312565b90915550506007820154600880546000906117ba908490612312565b90915550506001820154600580546000906117d69084906122c0565b90915550506040516117e9908390612325565b604051908190038120907f8eb3d2a79022846e3fddc6310504c9b46b10aad565da7a6804d8c00b1177391490600090a250506001600160a01b03166000908152600b60205260408120805460ff191681556001810182905560028101829055600381018290556004810182905560058101829055600681018290556007810182905560080155565b336000908152600b60205260409020805460ff166118a2576040516331868fb760e11b815260040160405180910390fd5b60006118ac610e9f565b905081600401548111806118c35750816005015481105b156118e1576040516345f1258960e11b815260040160405180910390fd5b6000826005015483600401546118f79190612312565b670de0b6b3a76400008385600401546119109190612312565b61191a91906122d9565b61192491906122f0565b90506000670de0b6b3a764000082856001015461194191906122d9565b61194b91906122f0565b905080846001015461195d9190612312565b336000908152600960205260408120805490919061197c9084906122c0565b92505081905550806005600082825461199591906122c0565b90915550506003840154600480546000906119b1908490612312565b90915550506007840154600880546000906119cd908490612312565b90915550506040516119e0908590612325565b604051908190038120907f74519ba61d83a6887bc3b1fdcc037de9631ed59951d7c085dfacfde456bd92b290600090a25050336000908152600b60205260408120805460ff1916815560018101829055600281018290556003810182905560048101829055600581018290556006810182905560078101829055600801555050565b336000908152600b60205260409020805460ff16611a93576040516331868fb760e11b815260040160405180910390fd5b6000611a9d610e9f565b90508160040154811015611ac45760405163ce63d92760e01b815260040160405180910390fd5b600082600601548210611af7576008546006548460070154611ae691906122d9565b611af091906122f0565b9050611b7d565b600083600401548460060154611b0d9190612312565b670de0b6b3a7640000856004015485611b269190612312565b611b3091906122d9565b611b3a91906122f0565b9050670de0b6b3a7640000600854611b5291906122d9565b816006548660070154611b6591906122d9565b611b6f91906122d9565b611b7991906122f0565b9150505b808360010154611b8d91906122c0565b3360009081526009602052604081208054909190611bac9084906122c0565b925050819055508060066000828254611bc59190612312565b9091555050600383015460048054600090611be1908490612312565b9091555050600783015460088054600090611bfd908490612312565b9091555050604051611c10908490612325565b604051908190038120907f0ca9a03881277f933ba6a55db5dba3cd4cfa9416f4891d4edeefee0cc6dc07fc90600090a25050336000908152600b60205260408120805460ff19168155600181018290556002810182905560038101829055600481018290556005810182905560068101829055600781018290556008015550565b6001600160a01b0381166000908152600a60205260409020805460ff16611ccb57604051632674890960e11b815260040160405180910390fd5b6000611cd5610e9f565b90508160050154811015611cfc57604051636ef5bcdd60e11b815260040160405180910390fd5b816003015460036000828254611d129190612312565b92505081905550816007015460076000828254611d2f9190612312565b9091555050600182015460068054600090611d4b9084906122c0565b9091555050604051611d5e908390612325565b604051908190038120907ffffccc3ab08400d9793d9b23671b6bdfe653a6ac7684efb4168afc36111dad2d90600090a250506001600160a01b03166000908152600a60205260408120805460ff191681556001810182905560028101829055600381018290556004810182905560058101829055600681018290556007810182905560080155565b336000908152600a60205260409020805460ff16611e1757604051632674890960e11b815260040160405180910390fd5b6000611e21610e9f565b9050816004015481111580611e3a575081600501548110155b15611e58576040516345f1258960e11b815260040160405180910390fd5b600082600401548360050154611e6e9190612312565b670de0b6b3a7640000846004015484611e879190612312565b611e9191906122d9565b611e9b91906122f0565b90506000670de0b6b3a7640000828560010154611eb891906122d9565b611ec291906122f0565b9050808460010154611ed49190612312565b3360009081526009602052604081208054909190611ef39084906122c0565b925050819055508060066000828254611f0c91906122c0565b92505081905550836003015460036000828254611f299190612312565b92505081905550836007015460076000828254611f469190612312565b9091555050604051611f59908590612325565b604051908190038120907f41ef72e31f6bde81fcb48207dec1465c6b7755288cd2969e03cd4b38764f257b90600090a25050336000908152600a60205260408120805460ff1916815560018101829055600281018290556003810182905560048101829055600581018290556006810182905560078101829055600801555050565b336000908152600a60205260409020805460ff1661200c57604051632674890960e11b815260040160405180910390fd5b6000612016610e9f565b9050816004015481111561203d5760405163ce63d92760e01b815260040160405180910390fd5b60008260060154821161207057600754600554846007015461205f91906122d9565b61206991906122f0565b90506120f6565b6000836006015484600401546120869190612312565b670de0b6b3a764000085600601548561209f9190612312565b6120a991906122d9565b6120b391906122f0565b9050670de0b6b3a76400006007546120cb91906122d9565b8160055486600701546120de91906122d9565b6120e891906122d9565b6120f291906122f0565b9150505b80836001015461210691906122c0565b33600090815260096020526040812080549091906121259084906122c0565b92505081905550806005600082825461213e9190612312565b9250508190555082600301546003600082825461215b9190612312565b925050819055508260070154600760008282546121789190612312565b909155505060405161218b908490612325565b604051908190038120907f70d5cff2ecd2eebd75b486b11e72fbbb9eaa9fa4f0674c1870d95aa61bb68fe690600090a25050336000908152600a60205260408120805460ff19168155600181018290556002810182905560038101829055600481018290556005810182905560068101829055600781018290556008015550565b80356001600160a01b0381168114610f2c57600080fd5b60006020828403121561223557600080fd5b61223e8261220c565b9392505050565b6000806040838503121561225857600080fd5b50508035926020909101359150565b6000806040838503121561227a57600080fd5b6122838361220c565b946020939093013593505050565b6000602082840312156122a357600080fd5b5035919050565b634e487b7160e01b600052601160045260246000fd5b808201808211156122d3576122d36122aa565b92915050565b80820281158282048414176122d3576122d36122aa565b60008261230d57634e487b7160e01b600052601260045260246000fd5b500490565b818103818111156122d3576122d36122aa565b815460ff161515815260018201546020820152600282015460408201526003820154606082015260048201546080820152600582015460a0820152600682015460c0820152600782015460e08201526008909101546101008201526101200190565b60006020828403121561239957600080fd5b8151801515811461223e57600080fd5b805169ffffffffffffffffffff81168114610f2c57600080fd5b600080600080600060a086880312156123db57600080fd5b6123e4866123a9565b9450602086015193506040860151925060608601519150612407608087016123a9565b9050929550929590935056fea26469706673582212200285a0dce3753e6faa3318101a0f2c9c191060b5dd5ee3b3e34feefde27a1dba64736f6c63430008140033","linkReferences":{}},"methodIdentifiers":{"FUNDING_INTERVAL()":"55efb287","FUNDING_PERIODS()":"359002f8","MAX_LEVERAGE()":"9b45ec97","MIN_LEVERAGE()":"34c1557d","MIN_MARGIN()":"eee8a168","PRECISION()":"aaf5eb68","addMarginLong(address,uint256)":"2143f4d4","addMarginShort(address,uint256)":"5a56c4b8","balance(address)":"e3d670d7","closeLong()":"24f82526","closeShort()":"f8432a1b","currentPrice()":"9d1b464a","deposit(uint256)":"b6b55f25","fundingRateLong(address)":"adc8f5a4","fundingRateShort(address)":"1239921a","longProfits()":"374c8b40","longShares()":"f3d490f4","longTokens()":"6e4c3df3","longs(address)":"891de083","openLong(uint256,uint256)":"c181d418","openShort(uint256,uint256)":"1266a619","shortProfits()":"4e088863","shortShares()":"a10e58aa","shortTokens()":"0f416ad4","shorts(address)":"7b05811e","withdraw(uint256)":"2e1a7d4d"},"id":2}