{"abi":[{"type":"constructor","inputs":[],"stateMutability":"nonpayable"},{"type":"function","name":"FUNDING_INTERVAL","inputs":[],"outputs":[{"name":"","type":"uint256","internalType":"uint256"}],"stateMutability":"view"},{"type":"function","name":"FUNDING_PERIODS","inputs":[],"outputs":[{"name":"","type":"uint256","internalType":"uint256"}],"stateMutability":"view"},{"type":"function","name":"MAX_LEVERAGE","inputs":[],"outputs":[{"name":"","type":"uint256","internalType":"uint256"}],"stateMutability":"view"},{"type":"function","name":"MIN_LEVERAGE","inputs":[],"outputs":[{"name":"","type":"uint256","internalType":"uint256"}],"stateMutability":"view"},{"type":"function","name":"MIN_MARGIN","inputs":[],"outputs":[{"name":"","type":"uint256","internalType":"uint256"}],"stateMutability":"view"},{"type":"function","name":"PRECISION","inputs":[],"outputs":[{"name":"","type":"uint256","internalType":"uint256"}],"stateMutability":"view"},{"type":"function","name":"addMarginLong","inputs":[{"name":"user","type":"address","internalType":"address"},{"name":"amount","type":"uint256","internalType":"uint256"}],"outputs":[{"name":"","type":"tuple","internalType":"struct Parimutuel.Position","components":[{"name":"active","type":"bool","internalType":"bool"},{"name":"margin","type":"uint256","internalType":"uint256"},{"name":"leverage","type":"uint256","internalType":"uint256"},{"name":"tokens","type":"uint256","internalType":"uint256"},{"name":"entry","type":"uint256","internalType":"uint256"},{"name":"liquidation","type":"uint256","internalType":"uint256"},{"name":"profit","type":"uint256","internalType":"uint256"},{"name":"shares","type":"uint256","internalType":"uint256"},{"name":"funding","type":"uint256","internalType":"uint256"}]}],"stateMutability":"nonpayable"},{"type":"function","name":"addMarginShort","inputs":[{"name":"user","type":"address","internalType":"address"},{"name":"amount","type":"uint256","internalType":"uint256"}],"outputs":[{"name":"","type":"tuple","internalType":"struct Parimutuel.Position","components":[{"name":"active","type":"bool","internalType":"bool"},{"name":"margin","type":"uint256","internalType":"uint256"},{"name":"leverage","type":"uint256","internalType":"uint256"},{"name":"tokens","type":"uint256","internalType":"uint256"},{"name":"entry","type":"uint256","internalType":"uint256"},{"name":"liquidation","type":"uint256","internalType":"uint256"},{"name":"profit","type":"uint256","internalType":"uint256"},{"name":"shares","type":"uint256","internalType":"uint256"},{"name":"funding","type":"uint256","internalType":"uint256"}]}],"stateMutability":"nonpayable"},{"type":"function","name":"addSimulatedLong","inputs":[{"name":"user","type":"address","internalType":"address"},{"name":"_margin","type":"uint256","internalType":"uint256"},{"name":"_leverage","type":"uint256","internalType":"uint256"}],"outputs":[],"stateMutability":"nonpayable"},{"type":"function","name":"addSimulatedShort","inputs":[{"name":"user","type":"address","internalType":"address"},{"name":"_margin","type":"uint256","internalType":"uint256"},{"name":"_leverage","type":"uint256","internalType":"uint256"}],"outputs":[],"stateMutability":"nonpayable"},{"type":"function","name":"admin","inputs":[],"outputs":[{"name":"","type":"address","internalType":"address"}],"stateMutability":"view"},{"type":"function","name":"balance","inputs":[{"name":"","type":"address","internalType":"address"}],"outputs":[{"name":"","type":"uint256","internalType":"uint256"}],"stateMutability":"view"},{"type":"function","name":"closeLong","inputs":[],"outputs":[{"name":"","type":"tuple","internalType":"struct Parimutuel.Position","components":[{"name":"active","type":"bool","internalType":"bool"},{"name":"margin","type":"uint256","internalType":"uint256"},{"name":"leverage","type":"uint256","internalType":"uint256"},{"name":"tokens","type":"uint256","internalType":"uint256"},{"name":"entry","type":"uint256","internalType":"uint256"},{"name":"liquidation","type":"uint256","internalType":"uint256"},{"name":"profit","type":"uint256","internalType":"uint256"},{"name":"shares","type":"uint256","internalType":"uint256"},{"name":"funding","type":"uint256","internalType":"uint256"}]}],"stateMutability":"nonpayable"},{"type":"function","name":"closeLongLoss","inputs":[],"outputs":[{"name":"","type":"tuple","internalType":"struct Parimutuel.Position","components":[{"name":"active","type":"bool","internalType":"bool"},{"name":"margin","type":"uint256","internalType":"uint256"},{"name":"leverage","type":"uint256","internalType":"uint256"},{"name":"tokens","type":"uint256","internalType":"uint256"},{"name":"entry","type":"uint256","internalType":"uint256"},{"name":"liquidation","type":"uint256","internalType":"uint256"},{"name":"profit","type":"uint256","internalType":"uint256"},{"name":"shares","type":"uint256","internalType":"uint256"},{"name":"funding","type":"uint256","internalType":"uint256"}]}],"stateMutability":"nonpayable"},{"type":"function","name":"closeLongProfit","inputs":[],"outputs":[{"name":"","type":"tuple","internalType":"struct Parimutuel.Position","components":[{"name":"active","type":"bool","internalType":"bool"},{"name":"margin","type":"uint256","internalType":"uint256"},{"name":"leverage","type":"uint256","internalType":"uint256"},{"name":"tokens","type":"uint256","internalType":"uint256"},{"name":"entry","type":"uint256","internalType":"uint256"},{"name":"liquidation","type":"uint256","internalType":"uint256"},{"name":"profit","type":"uint256","internalType":"uint256"},{"name":"shares","type":"uint256","internalType":"uint256"},{"name":"funding","type":"uint256","internalType":"uint256"}]}],"stateMutability":"nonpayable"},{"type":"function","name":"closeShort","inputs":[],"outputs":[{"name":"","type":"tuple","internalType":"struct Parimutuel.Position","components":[{"name":"active","type":"bool","internalType":"bool"},{"name":"margin","type":"uint256","internalType":"uint256"},{"name":"leverage","type":"uint256","internalType":"uint256"},{"name":"tokens","type":"uint256","internalType":"uint256"},{"name":"entry","type":"uint256","internalType":"uint256"},{"name":"liquidation","type":"uint256","internalType":"uint256"},{"name":"profit","type":"uint256","internalType":"uint256"},{"name":"shares","type":"uint256","internalType":"uint256"},{"name":"funding","type":"uint256","internalType":"uint256"}]}],"stateMutability":"nonpayable"},{"type":"function","name":"closeShortLoss","inputs":[],"outputs":[{"name":"","type":"tuple","internalType":"struct Parimutuel.Position","components":[{"name":"active","type":"bool","internalType":"bool"},{"name":"margin","type":"uint256","internalType":"uint256"},{"name":"leverage","type":"uint256","internalType":"uint256"},{"name":"tokens","type":"uint256","internalType":"uint256"},{"name":"entry","type":"uint256","internalType":"uint256"},{"name":"liquidation","type":"uint256","internalType":"uint256"},{"name":"profit","type":"uint256","internalType":"uint256"},{"name":"shares","type":"uint256","internalType":"uint256"},{"name":"funding","type":"uint256","internalType":"uint256"}]}],"stateMutability":"nonpayable"},{"type":"function","name":"closeShortProfit","inputs":[],"outputs":[{"name":"","type":"tuple","internalType":"struct Parimutuel.Position","components":[{"name":"active","type":"bool","internalType":"bool"},{"name":"margin","type":"uint256","internalType":"uint256"},{"name":"leverage","type":"uint256","internalType":"uint256"},{"name":"tokens","type":"uint256","internalType":"uint256"},{"name":"entry","type":"uint256","internalType":"uint256"},{"name":"liquidation","type":"uint256","internalType":"uint256"},{"name":"profit","type":"uint256","internalType":"uint256"},{"name":"shares","type":"uint256","internalType":"uint256"},{"name":"funding","type":"uint256","internalType":"uint256"}]}],"stateMutability":"nonpayable"},{"type":"function","name":"currentPrice","inputs":[],"outputs":[{"name":"","type":"uint256","internalType":"uint256"}],"stateMutability":"view"},{"type":"function","name":"faucet","inputs":[],"outputs":[],"stateMutability":"nonpayable"},{"type":"function","name":"fundingRateLong","inputs":[{"name":"user","type":"address","internalType":"address"}],"outputs":[{"name":"","type":"tuple","internalType":"struct Parimutuel.Position","components":[{"name":"active","type":"bool","internalType":"bool"},{"name":"margin","type":"uint256","internalType":"uint256"},{"name":"leverage","type":"uint256","internalType":"uint256"},{"name":"tokens","type":"uint256","internalType":"uint256"},{"name":"entry","type":"uint256","internalType":"uint256"},{"name":"liquidation","type":"uint256","internalType":"uint256"},{"name":"profit","type":"uint256","internalType":"uint256"},{"name":"shares","type":"uint256","internalType":"uint256"},{"name":"funding","type":"uint256","internalType":"uint256"}]}],"stateMutability":"nonpayable"},{"type":"function","name":"fundingRateShort","inputs":[{"name":"user","type":"address","internalType":"address"}],"outputs":[{"name":"","type":"tuple","internalType":"struct Parimutuel.Position","components":[{"name":"active","type":"bool","internalType":"bool"},{"name":"margin","type":"uint256","internalType":"uint256"},{"name":"leverage","type":"uint256","internalType":"uint256"},{"name":"tokens","type":"uint256","internalType":"uint256"},{"name":"entry","type":"uint256","internalType":"uint256"},{"name":"liquidation","type":"uint256","internalType":"uint256"},{"name":"profit","type":"uint256","internalType":"uint256"},{"name":"shares","type":"uint256","internalType":"uint256"},{"name":"funding","type":"uint256","internalType":"uint256"}]}],"stateMutability":"nonpayable"},{"type":"function","name":"liquidateLong","inputs":[{"name":"user","type":"address","internalType":"address"}],"outputs":[{"name":"","type":"tuple","internalType":"struct Parimutuel.Position","components":[{"name":"active","type":"bool","internalType":"bool"},{"name":"margin","type":"uint256","internalType":"uint256"},{"name":"leverage","type":"uint256","internalType":"uint256"},{"name":"tokens","type":"uint256","internalType":"uint256"},{"name":"entry","type":"uint256","internalType":"uint256"},{"name":"liquidation","type":"uint256","internalType":"uint256"},{"name":"profit","type":"uint256","internalType":"uint256"},{"name":"shares","type":"uint256","internalType":"uint256"},{"name":"funding","type":"uint256","internalType":"uint256"}]}],"stateMutability":"nonpayable"},{"type":"function","name":"liquidateShort","inputs":[{"name":"user","type":"address","internalType":"address"}],"outputs":[{"name":"","type":"tuple","internalType":"struct Parimutuel.Position","components":[{"name":"active","type":"bool","internalType":"bool"},{"name":"margin","type":"uint256","internalType":"uint256"},{"name":"leverage","type":"uint256","internalType":"uint256"},{"name":"tokens","type":"uint256","internalType":"uint256"},{"name":"entry","type":"uint256","internalType":"uint256"},{"name":"liquidation","type":"uint256","internalType":"uint256"},{"name":"profit","type":"uint256","internalType":"uint256"},{"name":"shares","type":"uint256","internalType":"uint256"},{"name":"funding","type":"uint256","internalType":"uint256"}]}],"stateMutability":"nonpayable"},{"type":"function","name":"longProfits","inputs":[],"outputs":[{"name":"","type":"uint256","internalType":"uint256"}],"stateMutability":"view"},{"type":"function","name":"longShares","inputs":[],"outputs":[{"name":"","type":"uint256","internalType":"uint256"}],"stateMutability":"view"},{"type":"function","name":"longTokens","inputs":[],"outputs":[{"name":"","type":"uint256","internalType":"uint256"}],"stateMutability":"view"},{"type":"function","name":"longs","inputs":[{"name":"","type":"address","internalType":"address"}],"outputs":[{"name":"active","type":"bool","internalType":"bool"},{"name":"margin","type":"uint256","internalType":"uint256"},{"name":"leverage","type":"uint256","internalType":"uint256"},{"name":"tokens","type":"uint256","internalType":"uint256"},{"name":"entry","type":"uint256","internalType":"uint256"},{"name":"liquidation","type":"uint256","internalType":"uint256"},{"name":"profit","type":"uint256","internalType":"uint256"},{"name":"shares","type":"uint256","internalType":"uint256"},{"name":"funding","type":"uint256","internalType":"uint256"}],"stateMutability":"view"},{"type":"function","name":"openLong","inputs":[{"name":"margin","type":"uint256","internalType":"uint256"},{"name":"leverage","type":"uint256","internalType":"uint256"}],"outputs":[{"name":"","type":"tuple","internalType":"struct Parimutuel.Position","components":[{"name":"active","type":"bool","internalType":"bool"},{"name":"margin","type":"uint256","internalType":"uint256"},{"name":"leverage","type":"uint256","internalType":"uint256"},{"name":"tokens","type":"uint256","internalType":"uint256"},{"name":"entry","type":"uint256","internalType":"uint256"},{"name":"liquidation","type":"uint256","internalType":"uint256"},{"name":"profit","type":"uint256","internalType":"uint256"},{"name":"shares","type":"uint256","internalType":"uint256"},{"name":"funding","type":"uint256","internalType":"uint256"}]}],"stateMutability":"nonpayable"},{"type":"function","name":"openShort","inputs":[{"name":"margin","type":"uint256","internalType":"uint256"},{"name":"leverage","type":"uint256","internalType":"uint256"}],"outputs":[{"name":"","type":"tuple","internalType":"struct Parimutuel.Position","components":[{"name":"active","type":"bool","internalType":"bool"},{"name":"margin","type":"uint256","internalType":"uint256"},{"name":"leverage","type":"uint256","internalType":"uint256"},{"name":"tokens","type":"uint256","internalType":"uint256"},{"name":"entry","type":"uint256","internalType":"uint256"},{"name":"liquidation","type":"uint256","internalType":"uint256"},{"name":"profit","type":"uint256","internalType":"uint256"},{"name":"shares","type":"uint256","internalType":"uint256"},{"name":"funding","type":"uint256","internalType":"uint256"}]}],"stateMutability":"nonpayable"},{"type":"function","name":"priceOracle","inputs":[],"outputs":[{"name":"","type":"address","internalType":"address"}],"stateMutability":"view"},{"type":"function","name":"shortProfits","inputs":[],"outputs":[{"name":"","type":"uint256","internalType":"uint256"}],"stateMutability":"view"},{"type":"function","name":"shortShares","inputs":[],"outputs":[{"name":"","type":"uint256","internalType":"uint256"}],"stateMutability":"view"},{"type":"function","name":"shortTokens","inputs":[],"outputs":[{"name":"","type":"uint256","internalType":"uint256"}],"stateMutability":"view"},{"type":"function","name":"shorts","inputs":[{"name":"","type":"address","internalType":"address"}],"outputs":[{"name":"active","type":"bool","internalType":"bool"},{"name":"margin","type":"uint256","internalType":"uint256"},{"name":"leverage","type":"uint256","internalType":"uint256"},{"name":"tokens","type":"uint256","internalType":"uint256"},{"name":"entry","type":"uint256","internalType":"uint256"},{"name":"liquidation","type":"uint256","internalType":"uint256"},{"name":"profit","type":"uint256","internalType":"uint256"},{"name":"shares","type":"uint256","internalType":"uint256"},{"name":"funding","type":"uint256","internalType":"uint256"}],"stateMutability":"view"},{"type":"event","name":"Deposit","inputs":[{"name":"user","type":"address","indexed":true,"internalType":"address"},{"name":"amount","type":"uint256","indexed":false,"internalType":"uint256"}],"anonymous":false},{"type":"event","name":"LongClosedAtLoss","inputs":[{"name":"short","type":"tuple","indexed":true,"internalType":"struct Parimutuel.Position","components":[{"name":"active","type":"bool","internalType":"bool"},{"name":"margin","type":"uint256","internalType":"uint256"},{"name":"leverage","type":"uint256","internalType":"uint256"},{"name":"tokens","type":"uint256","internalType":"uint256"},{"name":"entry","type":"uint256","internalType":"uint256"},{"name":"liquidation","type":"uint256","internalType":"uint256"},{"name":"profit","type":"uint256","internalType":"uint256"},{"name":"shares","type":"uint256","internalType":"uint256"},{"name":"funding","type":"uint256","internalType":"uint256"}]}],"anonymous":false},{"type":"event","name":"LongClosedAtProfit","inputs":[{"name":"short","type":"tuple","indexed":true,"internalType":"struct Parimutuel.Position","components":[{"name":"active","type":"bool","internalType":"bool"},{"name":"margin","type":"uint256","internalType":"uint256"},{"name":"leverage","type":"uint256","internalType":"uint256"},{"name":"tokens","type":"uint256","internalType":"uint256"},{"name":"entry","type":"uint256","internalType":"uint256"},{"name":"liquidation","type":"uint256","internalType":"uint256"},{"name":"profit","type":"uint256","internalType":"uint256"},{"name":"shares","type":"uint256","internalType":"uint256"},{"name":"funding","type":"uint256","internalType":"uint256"}]}],"anonymous":false},{"type":"event","name":"LongFundingPaid","inputs":[{"name":"long","type":"tuple","indexed":true,"internalType":"struct Parimutuel.Position","components":[{"name":"active","type":"bool","internalType":"bool"},{"name":"margin","type":"uint256","internalType":"uint256"},{"name":"leverage","type":"uint256","internalType":"uint256"},{"name":"tokens","type":"uint256","internalType":"uint256"},{"name":"entry","type":"uint256","internalType":"uint256"},{"name":"liquidation","type":"uint256","internalType":"uint256"},{"name":"profit","type":"uint256","internalType":"uint256"},{"name":"shares","type":"uint256","internalType":"uint256"},{"name":"funding","type":"uint256","internalType":"uint256"}]}],"anonymous":false},{"type":"event","name":"LongLiquidated","inputs":[{"name":"short","type":"tuple","indexed":true,"internalType":"struct Parimutuel.Position","components":[{"name":"active","type":"bool","internalType":"bool"},{"name":"margin","type":"uint256","internalType":"uint256"},{"name":"leverage","type":"uint256","internalType":"uint256"},{"name":"tokens","type":"uint256","internalType":"uint256"},{"name":"entry","type":"uint256","internalType":"uint256"},{"name":"liquidation","type":"uint256","internalType":"uint256"},{"name":"profit","type":"uint256","internalType":"uint256"},{"name":"shares","type":"uint256","internalType":"uint256"},{"name":"funding","type":"uint256","internalType":"uint256"}]}],"anonymous":false},{"type":"event","name":"MarginAddedLong","inputs":[{"name":"short","type":"tuple","indexed":true,"internalType":"struct Parimutuel.Position","components":[{"name":"active","type":"bool","internalType":"bool"},{"name":"margin","type":"uint256","internalType":"uint256"},{"name":"leverage","type":"uint256","internalType":"uint256"},{"name":"tokens","type":"uint256","internalType":"uint256"},{"name":"entry","type":"uint256","internalType":"uint256"},{"name":"liquidation","type":"uint256","internalType":"uint256"},{"name":"profit","type":"uint256","internalType":"uint256"},{"name":"shares","type":"uint256","internalType":"uint256"},{"name":"funding","type":"uint256","internalType":"uint256"}]}],"anonymous":false},{"type":"event","name":"MarginAddedShort","inputs":[{"name":"short","type":"tuple","indexed":true,"internalType":"struct Parimutuel.Position","components":[{"name":"active","type":"bool","internalType":"bool"},{"name":"margin","type":"uint256","internalType":"uint256"},{"name":"leverage","type":"uint256","internalType":"uint256"},{"name":"tokens","type":"uint256","internalType":"uint256"},{"name":"entry","type":"uint256","internalType":"uint256"},{"name":"liquidation","type":"uint256","internalType":"uint256"},{"name":"profit","type":"uint256","internalType":"uint256"},{"name":"shares","type":"uint256","internalType":"uint256"},{"name":"funding","type":"uint256","internalType":"uint256"}]}],"anonymous":false},{"type":"event","name":"OpenLong","inputs":[{"name":"short","type":"tuple","indexed":true,"internalType":"struct Parimutuel.Position","components":[{"name":"active","type":"bool","internalType":"bool"},{"name":"margin","type":"uint256","internalType":"uint256"},{"name":"leverage","type":"uint256","internalType":"uint256"},{"name":"tokens","type":"uint256","internalType":"uint256"},{"name":"entry","type":"uint256","internalType":"uint256"},{"name":"liquidation","type":"uint256","internalType":"uint256"},{"name":"profit","type":"uint256","internalType":"uint256"},{"name":"shares","type":"uint256","internalType":"uint256"},{"name":"funding","type":"uint256","internalType":"uint256"}]}],"anonymous":false},{"type":"event","name":"OpenShort","inputs":[{"name":"short","type":"tuple","indexed":true,"internalType":"struct Parimutuel.Position","components":[{"name":"active","type":"bool","internalType":"bool"},{"name":"margin","type":"uint256","internalType":"uint256"},{"name":"leverage","type":"uint256","internalType":"uint256"},{"name":"tokens","type":"uint256","internalType":"uint256"},{"name":"entry","type":"uint256","internalType":"uint256"},{"name":"liquidation","type":"uint256","internalType":"uint256"},{"name":"profit","type":"uint256","internalType":"uint256"},{"name":"shares","type":"uint256","internalType":"uint256"},{"name":"funding","type":"uint256","internalType":"uint256"}]}],"anonymous":false},{"type":"event","name":"ShortClosedAtLoss","inputs":[{"name":"short","type":"tuple","indexed":true,"internalType":"struct Parimutuel.Position","components":[{"name":"active","type":"bool","internalType":"bool"},{"name":"margin","type":"uint256","internalType":"uint256"},{"name":"leverage","type":"uint256","internalType":"uint256"},{"name":"tokens","type":"uint256","internalType":"uint256"},{"name":"entry","type":"uint256","internalType":"uint256"},{"name":"liquidation","type":"uint256","internalType":"uint256"},{"name":"profit","type":"uint256","internalType":"uint256"},{"name":"shares","type":"uint256","internalType":"uint256"},{"name":"funding","type":"uint256","internalType":"uint256"}]}],"anonymous":false},{"type":"event","name":"ShortClosedAtProfit","inputs":[{"name":"short","type":"tuple","indexed":true,"internalType":"struct Parimutuel.Position","components":[{"name":"active","type":"bool","internalType":"bool"},{"name":"margin","type":"uint256","internalType":"uint256"},{"name":"leverage","type":"uint256","internalType":"uint256"},{"name":"tokens","type":"uint256","internalType":"uint256"},{"name":"entry","type":"uint256","internalType":"uint256"},{"name":"liquidation","type":"uint256","internalType":"uint256"},{"name":"profit","type":"uint256","internalType":"uint256"},{"name":"shares","type":"uint256","internalType":"uint256"},{"name":"funding","type":"uint256","internalType":"uint256"}]}],"anonymous":false},{"type":"event","name":"ShortFundingPaid","inputs":[{"name":"short","type":"tuple","indexed":true,"internalType":"struct Parimutuel.Position","components":[{"name":"active","type":"bool","internalType":"bool"},{"name":"margin","type":"uint256","internalType":"uint256"},{"name":"leverage","type":"uint256","internalType":"uint256"},{"name":"tokens","type":"uint256","internalType":"uint256"},{"name":"entry","type":"uint256","internalType":"uint256"},{"name":"liquidation","type":"uint256","internalType":"uint256"},{"name":"profit","type":"uint256","internalType":"uint256"},{"name":"shares","type":"uint256","internalType":"uint256"},{"name":"funding","type":"uint256","internalType":"uint256"}]}],"anonymous":false},{"type":"event","name":"ShortLiquidated","inputs":[{"name":"short","type":"tuple","indexed":true,"internalType":"struct Parimutuel.Position","components":[{"name":"active","type":"bool","internalType":"bool"},{"name":"margin","type":"uint256","internalType":"uint256"},{"name":"leverage","type":"uint256","internalType":"uint256"},{"name":"tokens","type":"uint256","internalType":"uint256"},{"name":"entry","type":"uint256","internalType":"uint256"},{"name":"liquidation","type":"uint256","internalType":"uint256"},{"name":"profit","type":"uint256","internalType":"uint256"},{"name":"shares","type":"uint256","internalType":"uint256"},{"name":"funding","type":"uint256","internalType":"uint256"}]}],"anonymous":false},{"type":"event","name":"Withdraw","inputs":[{"name":"user","type":"address","indexed":true,"internalType":"address"},{"name":"amount","type":"uint256","indexed":false,"internalType":"uint256"}],"anonymous":false},{"type":"error","name":"AmountMustBeGreaterThanZero","inputs":[]},{"type":"error","name":"FundingRateNotDue","inputs":[]},{"type":"error","name":"InsufficientBalance","inputs":[]},{"type":"error","name":"InsufficientMargin","inputs":[]},{"type":"error","name":"InvalidLeverage","inputs":[]},{"type":"error","name":"NoActiveLong","inputs":[]},{"type":"error","name":"NoActiveShort","inputs":[]},{"type":"error","name":"NotCloseableAtLoss","inputs":[]},{"type":"error","name":"NotCloseableAtProfit","inputs":[]},{"type":"error","name":"NotLiquidatable","inputs":[]},{"type":"error","name":"TransferFailed","inputs":[]}],"bytecode":{"object":"0x608060405234801561001057600080fd5b50600180546001600160a01b03199081167389e60b56efd70a1d4fbbae947bc33cae41e37a72179091556000805490911633179055613144806100546000396000f3fe608060405234801561001057600080fd5b50600436106102115760003560e01c80637b05811e11610125578063c181d418116100ad578063e3d670d71161007c578063e3d670d714610519578063eee8a168146104c1578063f3d490f414610539578063f8432a1b14610542578063f851a4401461054a57600080fd5b8063c181d418146104e3578063da2262f5146104f6578063dd583fca146104fe578063de5f72fd1461051157600080fd5b80639d0f8240116100f45780639d0f82401461049d5780639d1b464a146104b0578063a10e58aa146104b8578063aaf5eb68146104c1578063adc8f5a4146104d057600080fd5b80637b05811e1461038d578063891de083146104305780638f42e3ac1461048d5780639b45ec971461049557600080fd5b8063359002f8116101a85780634e088863116101775780634e0888631461035757806355efb287146103605780635a56c4b81461036957806360cee4e51461037c5780636e4c3df31461038457600080fd5b8063359002f81461031d578063374c8b40146103265780633c7d0aa71461032f578063407800711461034257600080fd5b806324f82526116101e457806324f82526146102da5780632630c12f146102e257806330fe512a1461030d57806334c1557d1461031557600080fd5b80630f416ad4146102165780631239921a146102325780631266a619146102b45780632143f4d4146102c7575b600080fd5b61021f60025481565b6040519081526020015b60405180910390f35b610245610240366004612f26565b61055d565b60405161022991906000610120820190508251151582526020830151602083015260408301516040830152606083015160608301526080830151608083015260a083015160a083015260c083015160c083015260e083015160e083015261010080840151818401525092915050565b6102456102c2366004612f48565b6109b2565b6102456102d5366004612f6a565b610d5a565b610245610f72565b6001546102f5906001600160a01b031681565b6040516001600160a01b039091168152602001610229565b610245610fee565b61021f611236565b61021f6105b481565b61021f60055481565b61024561033d366004612f26565b61124c565b610355610350366004612f94565b6113f2565b005b61021f60045481565b61021f61546081565b610245610377366004612f6a565b611677565b61024561188f565b61021f60035481565b6103ea61039b366004612f26565b60096020526000908152604090208054600182015460028301546003840154600485015460058601546006870154600788015460089098015460ff909716979596949593949293919290919089565b604080519915158a5260208a0198909852968801959095526060870193909352608086019190915260a085015260c084015260e083015261010082015261012001610229565b6103ea61043e366004612f26565b600a6020526000908152604090208054600182015460028301546003840154600485015460058601546006870154600788015460089098015460ff909716979596949593949293919290919089565b610245611b6c565b61021f611e4b565b6102456104ab366004612f26565b611e5e565b61021f612005565b61021f60065481565b61021f670de0b6b3a764000081565b6102456104de366004612f26565b612097565b6102456104f1366004612f48565b6124ed565b610245612890565b61035561050c366004612f94565b612ad6565b610355612d5b565b61021f610527366004612f26565b60086020526000908152604090205481565b61021f60075481565b610245612ddd565b6000546102f5906001600160a01b031681565b610565612ec1565b6001600160a01b0382166000908152600960205260409020805460ff1661059f57604051632674890960e11b815260040160405180910390fd5b42816008015411156105c457604051632df6a3e960e11b815260040160405180910390fd5b60035460025411610672576154608160080160008282546105e59190612fdd565b909155505050506001600160a01b0316600090815260096020908152604091829020825161012081018452815460ff16151581526001820154928101929092526002810154928201929092526003820154606082015260048201546080820152600582015460a0820152600682015460c0820152600782015460e082015260089091015461010082015290565b60006003546002546106849190612fdd565b905060006003546002546106989190612ff6565b90506000828285600101546106ad9190613009565b6106b79190613020565b9050836001015481106107fc578360030154600260008282546106da9190612ff6565b90915550506007840154600680546000906106f6908490612ff6565b9091555050600184015460058054600090610712908490612fdd565b9091555050604051610725908590613042565b604051908190038120907ffffccc3ab08400d9793d9b23671b6bdfe653a6ac7684efb4168afc36111dad2d90600090a25050506001600160a01b039092166000908152600960209081526040808320805460ff19168155600181018490556002810184905560038101849055600481018490556005810184905560068101849055600781018490556008018390558051610120810182528381529182018390528101829052606081018290526080810182905260a0810182905260c0810182905260e0810182905261010081019190915292915050565b808460010160008282546108109190612ff6565b9250508190555080600560008282546108299190612fdd565b9091555050600184015460038501546108429190613020565b6002850181905560649061085e670de0b6b3a764000083613009565b6108689190612fdd565b85600401546108779190613009565b6108819190613020565b600585015560028401546064906108a0670de0b6b3a764000083613009565b6108aa9190612ff6565b85600401546108b99190613009565b6108c39190613020565b84600601819055506154608460080160008282546108e19190612fdd565b90915550506040516108f4908590613042565b604051908190038120907f58bf49e3bdcc4db1215b27adb74b70cfa7ec1bfdfa44a781ae1206bef62ae02290600090a25050506001600160a01b03909216600090815260096020908152604091829020825161012081018452815460ff16151581526001820154928101929092526002810154928201929092526003820154606082015260048201546080820152600582015460a0820152600682015460c0820152600782015460e082015260089091015461010082015292915050565b6109ba612ec1565b3360009081526008602052604090205483908111156109ec57604051631e9acf1760e31b815260040160405180910390fd5b670de0b6b3a7640000841015610a15576040516341c092a960e01b815260040160405180910390fd5b610a28670de0b6b3a76400006001613009565b831080610a465750610a43670de0b6b3a76400006064613009565b83115b15610a6457604051633fe89cb960e11b815260040160405180910390fd5b3360009081526008602052604081208054869290610a83908490612ff6565b9091555060009050610a958486613009565b90506000610aa1612005565b90506000610aaf8683613020565b610ab99083612fdd565b90506000610ac78784613020565b610ad19084612ff6565b90506000600654610aee86600254610ae99190612fdd565b612e52565b610af89190612ff6565b6002549091506000908a9015610b6957600087600254610b189190612fdd565b9050600081610b2f670de0b6b3a76400008b613009565b610b399190613020565b9050670de0b6b3a7640000610b4e8e83613009565b610b589190613020565b9350610b64848e612ff6565b925050505b80600003610b8a576040516341c092a960e01b815260040160405180910390fd5b8160046000828254610b9c9190612fdd565b925050819055508660026000828254610bb59190612fdd565b925050819055508260066000828254610bce9190612fdd565b925050819055506040518061012001604052806001151581526020018281526020018b815260200188815260200187815260200186815260200185815260200184815260200161546042610c229190612fdd565b9052336000908152600960209081526040918290208351815460ff1916901515178155908301516001820155828201516002820155606083015160038201556080830151600482015560a0830151600582015560c0830151600682015560e0830151600782015561010090920151600883015551610ca09190613042565b604051908190038120907f573a25a3312dce3b34fa314d28ff79a1714844441a2f7e5f244d674eb80b15c290600090a2505033600090815260096020908152604091829020825161012081018452815460ff16151581526001820154928101929092526002810154928201929092526003820154606082015260048201546080820152600582015460a0820152600682015460c0820152600782015460e08201526008909101546101008201529998505050505050505050565b610d62612ec1565b336000908152600860205260409020548290811115610d9457604051631e9acf1760e31b815260040160405180910390fd5b6001600160a01b0384166000908152600a60205260409020805460ff16610dce576040516331868fb760e11b815260040160405180910390fd5b6001600160a01b03851660009081526008602052604081208054869290610df6908490612ff6565b9250508190555083816001016000828254610e119190612fdd565b909155505060018101546003820154610e2a9190613020565b60028201819055606490610e46670de0b6b3a764000083613009565b610e509190612fdd565b8260040154610e5f9190613009565b610e699190613020565b60068201556002810154606490610e88670de0b6b3a764000083613009565b610e929190612ff6565b8260040154610ea19190613009565b610eab9190613020565b6005820155604051610ebe908290613042565b604051908190038120907f73ea3adbe3baee0e0e7808d6da6025ed3756bc885f5a8b50e42daa2c7f55080c90600090a25050336000908152600a6020908152604091829020825161012081018452815460ff16151581526001820154928101929092526002810154928201929092526003820154606082015260048201546080820152600582015460a0820152600682015460c0820152600782015460e08201526008909101546101008201529392505050565b610f7a612ec1565b336000908152600a60205260409020805460ff16610fab576040516331868fb760e11b815260040160405180910390fd5b6000610fb5612005565b905081600501548111610fd257610fcb33611e5e565b9250505090565b8160040154811015610fe657610fcb610fee565b610fcb611b6c565b610ff6612ec1565b336000908152600a60205260409020805460ff16611027576040516331868fb760e11b815260040160405180910390fd5b6000611031612005565b905081600401548110158061104a575081600501548111155b15611068576040516345f1258960e11b815260040160405180910390fd5b60008260050154836004015461107e9190612ff6565b670de0b6b3a76400008385600401546110979190612ff6565b6110a19190613009565b6110ab9190613020565b90506000670de0b6b3a76400008285600101546110c89190613009565b6110d29190613020565b90508084600101546110e49190612ff6565b3360009081526008602052604081208054909190611103908490612fdd565b92505081905550806004600082825461111c9190612fdd565b925050819055508360030154600360008282546111399190612ff6565b925050819055508360070154600760008282546111569190612ff6565b9091555050604051611169908590613042565b604051908190038120907f74519ba61d83a6887bc3b1fdcc037de9631ed59951d7c085dfacfde456bd92b290600090a25050336000908152600a60209081526040808320805460ff19168155600181018490556002810184905560038101849055600481018490556005810184905560068101849055600781018490556008018390558051610120810182528381529182018390528101829052606081018290526080810182905260a0810182905260c0810182905260e081018290526101008101919091529392505050565b611249670de0b6b3a76400006001613009565b81565b611254612ec1565b6001600160a01b0382166000908152600960205260409020805460ff1661128e57604051632674890960e11b815260040160405180910390fd5b6000611298612005565b905081600501548110156112bf57604051636ef5bcdd60e11b815260040160405180910390fd5b8160030154600260008282546112d59190612ff6565b90915550506007820154600680546000906112f1908490612ff6565b909155505060018201546005805460009061130d908490612fdd565b9091555050604051611320908390613042565b604051908190038120907ffffccc3ab08400d9793d9b23671b6bdfe653a6ac7684efb4168afc36111dad2d90600090a25050506001600160a01b03166000908152600960209081526040808320805460ff19168155600181018490556002810184905560038101849055600481018490556005810184905560068101849055600781018490556008018390558051610120810182528381529182018390528101829052606081018290526080810182905260a0810182905260c0810182905260e0810182905261010081019190915290565b6000611406670de0b6b3a764000084613009565b9050600061141c670de0b6b3a764000084613009565b9050600061142a8284613009565b90506000611436612005565b905060006114448483613020565b61144e9083612ff6565b9050600061145c8584613020565b6114669084612fdd565b9050600060075461147e86600354610ae99190612fdd565b6114889190612ff6565b6003549091506000908890156114f9576000876003546114a89190612fdd565b90506000816114bf670de0b6b3a76400008b613009565b6114c99190613020565b9050670de0b6b3a76400006114de8c83613009565b6114e89190613020565b93506114f4848c612ff6565b925050505b8060000361151a576040516341c092a960e01b815260040160405180910390fd5b816005600082825461152c9190612fdd565b9250508190555086600360008282546115459190612fdd565b92505081905550826007600082825461155e9190612fdd565b92505081905550604051806101200160405280600115158152602001828152602001898152602001888152602001878152602001868152602001858152602001848152602001615460426115b29190612fdd565b90526001600160a01b038d166000908152600a60209081526040918290208351815460ff1916901515178155908301516001820155828201516002820155606083015160038201556080830151600482015560a0830151600582015560c0830151600682015560e08301516007820155610100909201516008830155516116399190613042565b604051908190038120907f9691da72ef539d5ccf9fea4e7c7f88019a837e693325699785b2c7c9d4cfb2de90600090a2505050505050505050505050565b61167f612ec1565b3360009081526008602052604090205482908111156116b157604051631e9acf1760e31b815260040160405180910390fd5b6001600160a01b0384166000908152600960205260409020805460ff166116eb57604051632674890960e11b815260040160405180910390fd5b6001600160a01b03851660009081526008602052604081208054869290611713908490612ff6565b925050819055508381600101600082825461172e9190612fdd565b9091555050600181015460038201546117479190613020565b60028201819055606490611763670de0b6b3a764000083613009565b61176d9190612ff6565b826004015461177c9190613009565b6117869190613020565b600682015560028101546064906117a5670de0b6b3a764000083613009565b6117af9190612fdd565b82600401546117be9190613009565b6117c89190613020565b60058201556040516117db908290613042565b604051908190038120907f5d4ff44de1b0d8f4b7181ed76af9913dec97aed99ee9d1d7c9095ba6d5a0f45a90600090a2505033600090815260096020908152604091829020825161012081018452815460ff16151581526001820154928101929092526002810154928201929092526003820154606082015260048201546080820152600582015460a0820152600682015460c0820152600782015460e08201526008909101546101008201529392505050565b611897612ec1565b336000908152600960205260409020805460ff166118c857604051632674890960e11b815260040160405180910390fd5b60006118d2612005565b905081600401548111156118f95760405163ce63d92760e01b815260040160405180910390fd5b60008260060154821161192c57600654600454846007015461191b9190613009565b6119259190613020565b90506119b2565b6000836006015484600401546119429190612ff6565b670de0b6b3a764000085600601548561195b9190612ff6565b6119659190613009565b61196f9190613020565b9050670de0b6b3a76400006006546119879190613009565b81600454866007015461199a9190613009565b6119a49190613009565b6119ae9190613020565b9150505b600060646119c1836063613009565b6119cb9190613020565b905060006119d98284612ff6565b600080546001600160a01b0316815260086020526040812080549293508392909190611a06908490612fdd565b90915550506001850154611a1b908390612fdd565b3360009081526008602052604081208054909190611a3a908490612fdd565b925050819055508260046000828254611a539190612ff6565b9091555050600385015460028054600090611a6f908490612ff6565b9091555050600785015460068054600090611a8b908490612ff6565b9091555050604051611a9e908690613042565b604051908190038120907f70d5cff2ecd2eebd75b486b11e72fbbb9eaa9fa4f0674c1870d95aa61bb68fe690600090a25050336000908152600960209081526040808320805460ff19168155600181018490556002810184905560038101849055600481018490556005810184905560068101849055600781018490556008018390558051610120810182528381529182018390528101829052606081018290526080810182905260a0810182905260c0810182905260e08101829052610100810191909152949350505050565b611b74612ec1565b336000908152600a60205260409020805460ff16611ba5576040516331868fb760e11b815260040160405180910390fd5b6000611baf612005565b90508160040154811015611bd65760405163ce63d92760e01b815260040160405180910390fd5b600082600601548210611c09576007546005548460070154611bf89190613009565b611c029190613020565b9050611c8f565b600083600401548460060154611c1f9190612ff6565b670de0b6b3a7640000856004015485611c389190612ff6565b611c429190613009565b611c4c9190613020565b9050670de0b6b3a7640000600754611c649190613009565b816005548660070154611c779190613009565b611c819190613009565b611c8b9190613020565b9150505b60006064611c9e836063613009565b611ca89190613020565b90506000611cb68284612ff6565b600080546001600160a01b0316815260086020526040812080549293508392909190611ce3908490612fdd565b90915550506001850154611cf8908390612fdd565b3360009081526008602052604081208054909190611d17908490612fdd565b925050819055508260056000828254611d309190612ff6565b92505081905550846003015460036000828254611d4d9190612ff6565b92505081905550846007015460076000828254611d6a9190612ff6565b9091555050604051611d7d908690613042565b604051908190038120907f0ca9a03881277f933ba6a55db5dba3cd4cfa9416f4891d4edeefee0cc6dc07fc90600090a25050336000908152600a60209081526040808320805460ff19168155600181018490556002810184905560038101849055600481018490556005810184905560068101849055600781018490556008018390558051610120810182528381529182018390528101829052606081018290526080810182905260a0810182905260c0810182905260e08101829052610100810191909152949350505050565b611249670de0b6b3a76400006064613009565b611e66612ec1565b6001600160a01b0382166000908152600a60205260409020805460ff16611ea0576040516331868fb760e11b815260040160405180910390fd5b6000611eaa612005565b90508160050154811115611ed157604051636ef5bcdd60e11b815260040160405180910390fd5b816003015460036000828254611ee79190612ff6565b92505081905550816007015460076000828254611f049190612ff6565b9091555050600182015460048054600090611f20908490612fdd565b9091555050604051611f33908390613042565b604051908190038120907f8eb3d2a79022846e3fddc6310504c9b46b10aad565da7a6804d8c00b1177391490600090a25050506001600160a01b03166000908152600a60209081526040808320805460ff19168155600181018490556002810184905560038101849055600481018490556005810184905560068101849055600781018490556008018390558051610120810182528381529182018390528101829052606081018290526080810182905260a0810182905260c0810182905260e0810182905261010081019190915290565b600080600160009054906101000a90046001600160a01b03166001600160a01b031663feaf968c6040518163ffffffff1660e01b815260040160a060405180830381865afa15801561205b573d6000803e3d6000fd5b505050506040513d601f19601f8201168201806040525081019061207f91906130be565b5050509150506000811215612092575060005b919050565b61209f612ec1565b6001600160a01b0382166000908152600a60205260409020805460ff166120d9576040516331868fb760e11b815260040160405180910390fd5b42816008015411156120fe57604051632df6a3e960e11b815260040160405180910390fd5b600254600354116121ac5761546081600801600082825461211f9190612fdd565b909155505050506001600160a01b03166000908152600a6020908152604091829020825161012081018452815460ff16151581526001820154928101929092526002810154928201929092526003820154606082015260048201546080820152600582015460a0820152600682015460c0820152600782015460e082015260089091015461010082015290565b60006003546002546121be9190612fdd565b905060006002546003546121d29190612ff6565b90506000828285600101546121e79190613009565b6121f19190613020565b905083600101548110612337578360030154600360008282546122149190612ff6565b925050819055508360070154600760008282546122319190612ff6565b909155505060018401546004805460009061224d908490612fdd565b9091555050604051612260908590613042565b604051908190038120907f8eb3d2a79022846e3fddc6310504c9b46b10aad565da7a6804d8c00b1177391490600090a25050506001600160a01b039092166000908152600a60209081526040808320805460ff19168155600181018490556002810184905560038101849055600481018490556005810184905560068101849055600781018490556008018390558051610120810182528381529182018390528101829052606081018290526080810182905260a0810182905260c0810182905260e0810182905261010081019190915292915050565b8084600101600082825461234b9190612ff6565b9250508190555080600460008282546123649190612fdd565b90915550506001840154600385015461237d9190613020565b60028501819055606490612399670de0b6b3a764000083613009565b6123a39190612ff6565b85600401546123b29190613009565b6123bc9190613020565b600585015560028401546064906123db670de0b6b3a764000083613009565b6123e59190612fdd565b85600401546123f49190613009565b6123fe9190613020565b846006018190555061546084600801600082825461241c9190612fdd565b909155505060405161242f908590613042565b604051908190038120907f68231237047f831001bde6adc5118a30ce889227f735daf9cf4b3c3e16f7eec990600090a25050506001600160a01b039092166000908152600a6020908152604091829020825161012081018452815460ff16151581526001820154928101929092526002810154928201929092526003820154606082015260048201546080820152600582015460a0820152600682015460c0820152600782015460e082015260089091015461010082015292915050565b6124f5612ec1565b33600090815260086020526040902054839081111561252757604051631e9acf1760e31b815260040160405180910390fd5b670de0b6b3a7640000841015612550576040516341c092a960e01b815260040160405180910390fd5b612563670de0b6b3a76400006001613009565b831080612581575061257e670de0b6b3a76400006064613009565b83115b1561259f57604051633fe89cb960e11b815260040160405180910390fd5b33600090815260086020526040812080548692906125be908490612ff6565b90915550600090506125d08486613009565b905060006125dc612005565b905060006125ea8683613020565b6125f49083612ff6565b905060006126028784613020565b61260c9084612fdd565b9050600060075461262486600354610ae99190612fdd565b61262e9190612ff6565b6003549091506000908a901561269f5760008760035461264e9190612fdd565b9050600081612665670de0b6b3a76400008b613009565b61266f9190613020565b9050670de0b6b3a76400006126848e83613009565b61268e9190613020565b935061269a848e612ff6565b925050505b806000036126c0576040516341c092a960e01b815260040160405180910390fd5b81600560008282546126d29190612fdd565b9250508190555086600360008282546126eb9190612fdd565b9250508190555082600760008282546127049190612fdd565b925050819055506040518061012001604052806001151581526020018281526020018b8152602001888152602001878152602001868152602001858152602001848152602001615460426127589190612fdd565b9052336000908152600a60209081526040918290208351815460ff1916901515178155908301516001820155828201516002820155606083015160038201556080830151600482015560a0830151600582015560c0830151600682015560e08301516007820155610100909201516008830155516127d69190613042565b604051908190038120907f9691da72ef539d5ccf9fea4e7c7f88019a837e693325699785b2c7c9d4cfb2de90600090a25050336000908152600a6020908152604091829020825161012081018452815460ff16151581526001820154928101929092526002810154928201929092526003820154606082015260048201546080820152600582015460a0820152600682015460c0820152600782015460e08201526008909101546101008201529998505050505050505050565b612898612ec1565b336000908152600960205260409020805460ff166128c957604051632674890960e11b815260040160405180910390fd5b60006128d3612005565b90508160040154811115806128ec575081600501548110155b1561290a576040516345f1258960e11b815260040160405180910390fd5b6000826004015483600501546129209190612ff6565b670de0b6b3a76400008460040154846129399190612ff6565b6129439190613009565b61294d9190613020565b90506000670de0b6b3a764000082856001015461296a9190613009565b6129749190613020565b90508084600101546129869190612ff6565b33600090815260086020526040812080549091906129a5908490612fdd565b9250508190555080600560008282546129be9190612fdd565b90915550506003840154600280546000906129da908490612ff6565b90915550506007840154600680546000906129f6908490612ff6565b9091555050604051612a09908590613042565b604051908190038120907f41ef72e31f6bde81fcb48207dec1465c6b7755288cd2969e03cd4b38764f257b90600090a25050336000908152600960209081526040808320805460ff19168155600181018490556002810184905560038101849055600481018490556005810184905560068101849055600781018490556008018390558051610120810182528381529182018390528101829052606081018290526080810182905260a0810182905260c0810182905260e081018290526101008101919091529392505050565b6000612aea670de0b6b3a764000084613009565b90506000612b00670de0b6b3a764000084613009565b90506000612b0e8284613009565b90506000612b1a612005565b90506000612b288483613020565b612b329083612fdd565b90506000612b408584613020565b612b4a9084612ff6565b90506000600654612b6286600254610ae99190612fdd565b612b6c9190612ff6565b600254909150600090889015612bdd57600087600254612b8c9190612fdd565b9050600081612ba3670de0b6b3a76400008b613009565b612bad9190613020565b9050670de0b6b3a7640000612bc28c83613009565b612bcc9190613020565b9350612bd8848c612ff6565b925050505b80600003612bfe576040516341c092a960e01b815260040160405180910390fd5b8160046000828254612c109190612fdd565b925050819055508660026000828254612c299190612fdd565b925050819055508260066000828254612c429190612fdd565b9250508190555060405180610120016040528060011515815260200182815260200189815260200188815260200187815260200186815260200185815260200184815260200161546042612c969190612fdd565b90526001600160a01b038d166000908152600960209081526040918290208351815460ff1916901515178155908301516001820155828201516002820155606083015160038201556080830151600482015560a0830151600582015560c0830151600682015560e0830151600782015561010090920151600883015551612d1d9190613042565b604051908190038120907f573a25a3312dce3b34fa314d28ff79a1714844441a2f7e5f244d674eb80b15c290600090a2505050505050505050505050565b612d6f670de0b6b3a76400006103e8613009565b3360009081526008602052604081208054909190612d8e908490612fdd565b909155503390507fe1fffcc4923d04b559f4d29a8bfc6cda04eb5b0d3c460751c2402c5c5cc9109c612dca670de0b6b3a76400006103e8613009565b60405190815260200160405180910390a2565b612de5612ec1565b336000908152600960205260409020805460ff16612e1657604051632674890960e11b815260040160405180910390fd5b6000612e20612005565b905081600501548110612e3657610fcb3361124c565b8160040154811115612e4a57610fcb612890565b610fcb61188f565b60006003821115612eb35750806000612e6c600283613020565b612e77906001612fdd565b90505b81811015612ead57905080600281612e928186613020565b612e9c9190612fdd565b612ea69190613020565b9050612e7a565b50919050565b811561209257506001919050565b60405180610120016040528060001515815260200160008152602001600081526020016000815260200160008152602001600081526020016000815260200160008152602001600081525090565b80356001600160a01b038116811461209257600080fd5b600060208284031215612f3857600080fd5b612f4182612f0f565b9392505050565b60008060408385031215612f5b57600080fd5b50508035926020909101359150565b60008060408385031215612f7d57600080fd5b612f8683612f0f565b946020939093013593505050565b600080600060608486031215612fa957600080fd5b612fb284612f0f565b95602085013595506040909401359392505050565b634e487b7160e01b600052601160045260246000fd5b80820180821115612ff057612ff0612fc7565b92915050565b81810381811115612ff057612ff0612fc7565b8082028115828204841417612ff057612ff0612fc7565b60008261303d57634e487b7160e01b600052601260045260246000fd5b500490565b815460ff161515815260018201546020820152600282015460408201526003820154606082015260048201546080820152600582015460a0820152600682015460c0820152600782015460e08201526008909101546101008201526101200190565b805169ffffffffffffffffffff8116811461209257600080fd5b600080600080600060a086880312156130d657600080fd5b6130df866130a4565b9450602086015193506040860151925060608601519150613102608087016130a4565b9050929550929590935056fea2646970667358221220da8c721275eb9bfb4371af6298311b82a4b4db3c69f09351c4ec652046cf58af64736f6c63430008140033","linkReferences":{}},"methodIdentifiers":{"FUNDING_INTERVAL()":"55efb287","FUNDING_PERIODS()":"359002f8","MAX_LEVERAGE()":"9b45ec97","MIN_LEVERAGE()":"34c1557d","MIN_MARGIN()":"eee8a168","PRECISION()":"aaf5eb68","addMarginLong(address,uint256)":"2143f4d4","addMarginShort(address,uint256)":"5a56c4b8","addSimulatedLong(address,uint256,uint256)":"40780071","addSimulatedShort(address,uint256,uint256)":"dd583fca","admin()":"f851a440","balance(address)":"e3d670d7","closeLong()":"24f82526","closeLongLoss()":"30fe512a","closeLongProfit()":"8f42e3ac","closeShort()":"f8432a1b","closeShortLoss()":"da2262f5","closeShortProfit()":"60cee4e5","currentPrice()":"9d1b464a","faucet()":"de5f72fd","fundingRateLong(address)":"adc8f5a4","fundingRateShort(address)":"1239921a","liquidateLong(address)":"9d0f8240","liquidateShort(address)":"3c7d0aa7","longProfits()":"374c8b40","longShares()":"f3d490f4","longTokens()":"6e4c3df3","longs(address)":"891de083","openLong(uint256,uint256)":"c181d418","openShort(uint256,uint256)":"1266a619","priceOracle()":"2630c12f","shortProfits()":"4e088863","shortShares()":"a10e58aa","shortTokens()":"0f416ad4","shorts(address)":"7b05811e"},"id":3}